2693309040855SWBNET       47232266440229RECOVERY    0040000190000000000000000900904
2693509041558BSCOTT       52710 32212238RESTORE     0040001470000000000000000900904
2693709061531JCARRICK     47256544147228            0040000010000000000000000900906
2693609060802WRFS         21476125050229            0040000090000000000000000900906
2693809100000JMS              34311162382105        01001   0     1295      1900910
2693809100000JMS              34311162382105        011     1 10     0      0900910
2693909151000DANIELSR         1142734  0FILE SAVE   0050000620000000000000000900915
2694109151333OPER        000001000021  0CDC         0 9     1     1600      0900915
2694209151349OPER        000001000021  0CDC         0 9    42   151456      0900915
2694309151412OPER        000001000021  0CD          0 9    42   151456      0900915
2694609231131CANNET      021477732347229CO          0050042650000000000000000900923
2694609231131CANNET      021477732347229CO          0040042670000000000000000900923
2603209020035JMS              34311162382105        01001   0      915      1910902
2603209020035JMS              34311162382105        011     1 10     0      0910902
2603409041520OPER        000001000021  0CDC         0 9    17    68276      0910904
0103509090951SRA         000000000000  0STORE TO TAP0040068300000000000000000910909
0103509090951SRA         000000000000  0STORE TO TAP0050068300000000000000000910909
2603509090951SRA              1215254  0STORE TO TAP0040000050000000000000000910909
2603509090951SRA              1215254  0STORE TO TAP0050077780000000000000000910909
2604009151000DANIELSR         1142734  0FILE SAVE   0050000420000000000000000910915
2604109181213SLIDLB       34355 76422 38            0040000480000000000000000910918
2604209182114HSBCNET      21477223547229            0040000010000000000000000910919
2604309230000JMS              34311162382105        01001   0      920      1910923
2604309230000JMS              34311162382105        011     1 10     0      0910923
2604409231432SRA              1215254  0STORE TO TAP0040000010000000000000000910923
2604409231432SRA              1215254  0STORE TO TAP0050023510000000000000001910923
2604509261307DGAUVIN      44060 31621229STORE TO TAP0040020110000000000000000910926
2604509261307DGAUVIN      44060 31621229STORE TO TAP0050020110000000000000000910926
2646608311630DANIELSR         1142734  0TNT FILES   0040000090000000000000000920831
2646608311630DANIELSR         1142734  0TNT FILES   0050000090000000000000000920831
2646709010300DANIELSR         1142734  0TNT FILES   0040000090000000000000000920901
2646709010300DANIELSR         1142734  0TNT FILES   0050000090000000000000000920901
2646809011000DANIELSR         1142734  0TNT FILES   0050000090000000000000000920901
2646809011000DANIELSR         1142734  0TNT FILES   0040000090000000000000000920901
2646909011630DANIELSR         1142734  0TNT FILES   0040000090000000000000000920901
2646909011630DANIELSR         1142734  0TNT FILES   0050000090000000000000000920901
2647009020300DANIELSR         1142734  0TNT FILES   0050000090000000000000000920902
2647009020300DANIELSR         1142734  0TNT FILES   0040000090000000000000000920902
2647109021000DANIELSR         1142734  0TNT FILES   0040000090000000000000000920902
2647109021000DANIELSR         1142734  0TNT FILES   0050000090000000000000000920902
2647209021630DANIELSR         1142734  0TNT FILES   0040000090000000000000000920902
2647209021630DANIELSR         1142734  0TNT FILES   0050000090000000000000000920902
2647309030300DANIELSR         1142734  0TNT FILES   0050000090000000000000000920903
2647309030300DANIELSR         1142734  0TNT FILES   0040000090000000000000000920903
2647509031630DANIELSR         1142734  0TNT FILES   0040000090000000000000000920903
2647509031630DANIELSR         1142734  0TNT FILES   0050000090000000000000000920903
2647609040300DANIELSR         1142734  0TNT FILES   0040000090000000000000000920904
2647609040300DANIELSR         1142734  0TNT FILES   0050000090000000000000000920904
2647709041000DANIELSR         1142734  0TNT FILES   0040000090000000000000000920904
2647709041000DANIELSR         1142734  0TNT FILES   0050000090000000000000000920904
2647809041630DANIELSR         1142734  0TNT FILES   0040000090000000000000000920904
2647809041630DANIELSR         1142734  0TNT FILES   0050000090000000000000000920904
2647909050300DANIELSR         1142734  0TNT FILES   0040000090000000000000000920905
2647909050300DANIELSR         1142734  0TNT FILES   0050000090000000000000000920905
2648009051000DANIELSR         1142734  0TNT FILES   0040000090000000000000000920905
2648009051000DANIELSR         1142734  0TNT FILES   0050000090000000000000000920905
2647409031000DANIELSR         1142734  0TNT FILES   0040000090000000000000000920905
2647409031000DANIELSR         1142734  0TNT FILES   0050000090000000000000000920905
2648109051630DANIELSR         1142734  0TNT FILES   0040000090000000000000000920905
2648109051630DANIELSR         1142734  0TNT FILES   0050000090000000000000000920905
2648209060420DANIELSR         1142734  0TNT FILES   0040000090000000000000000920906
2648209060420DANIELSR         1142734  0TNT FILES   0050000090000000000000000920906
2648309061000DANIELSR         1142734  0TNT FILES   0050000090000000000000000920906
2648309061000DANIELSR         1142734  0TNT FILES   0040000090000000000000000920906
2648409061630DANIELSR         1142734  0TNT FILES   0040000090000000000000000920906
2648409061630DANIELSR         1142734  0TNT FILES   0050000090000000000000000920906
2648509070300DANIELSR         1142734  0TNT FILES   0040000090000000000000000920907
2648509070300DANIELSR         1142734  0TNT FILES   0050000090000000000000000920907
2648609071000DANIELSR         1142734  0TNT FILES   0050000090000000000000000920907
2648609071000DANIELSR         1142734  0TNT FILES   0040000090000000000000000920907
2648709071630DANIELSR         1142734  0TNT FILES   0040000090000000000000000920907
2648709071630DANIELSR         1142734  0TNT FILES   0050000090000000000000000920907
2648809080300DANIELSR         1142734  0TNT FILES   0050000090000000000000000920908
2648809080300DANIELSR         1142734  0TNT FILES   0040000090000000000000000920908
2648909081000DANIELSR         1142734  0TNT FILES   0050000090000000000000000920908
2648909081000DANIELSR         1142734  0TNT FILES   0040000090000000000000000920908
2649009081630DANIELSR         1142734  0TNT FILES   0040000090000000000000000920908
2649009081630DANIELSR         1142734  0TNT FILES   0050000090000000000000000920908
2649109090300DANIELSR         1142734  0TNT FILES   0040000090000000000000000920909
2649109090300DANIELSR         1142734  0TNT FILES   0050000090000000000000000920909
2649209091000DANIELSR         1142734  0TNT FILES   0040000090000000000000000920909
2649209091000DANIELSR         1142734  0TNT FILES   0050000090000000000000000920909
2649309091630DANIELSR         1142734  0TNT FILES   0040000090000000000000000920909
2649309091630DANIELSR         1142734  0TNT FILES   0050000090000000000000000920909
2649409091823ACCG1        21477215544201            11001   0  1043800      1920909
2649409091823ACCG1        21477215544201            111   600 10     0      0920909
2649509100300DANIELSR         1142734  0TNT FILES   0040000090000000000000000920910
2649509100300DANIELSR         1142734  0TNT FILES   0050000090000000000000000920910
2649609100825ACCG1        21477215544201            11001   0  1043800      1920910
2649609100825ACCG1        21477215544201            111   600 10     0      0920910
2649709101000DANIELSR         1142734  0TNT FILES   0040000090000000000000000920910
2649709101000DANIELSR         1142734  0TNT FILES   0050000090000000000000000920910
2649809101630DANIELSR         1142734  0TNT FILES   0040000090000000000000000920910
2649809101630DANIELSR         1142734  0TNT FILES   0050000090000000000000000920910
2649909110300DANIELSR         1142734  0TNT FILES   0040000090000000000000000920911
2649909110300DANIELSR         1142734  0TNT FILES   0050000090000000000000000920911
2650009111000DANIELSR         1142734  0TNT FILES   0040000090000000000000000920911
2650009111000DANIELSR         1142734  0TNT FILES   0050000090000000000000000920911
2650109111630DANIELSR         1142734  0TNT FILES   0040000090000000000000000920911
2650109111630DANIELSR         1142734  0TNT FILES   0050000090000000000000000920911
2650209120300DANIELSR         1142734  0TNT FILES   0040000090000000000000000920912
2650209120300DANIELSR         1142734  0TNT FILES   0050000090000000000000000920912
2650309121000DANIELSR         1142734  0TNT FILES   0040000090000000000000000920912
2650309121000DANIELSR         1142734  0TNT FILES   0050000090000000000000000920912
2650409121630DANIELSR         1142734  0TNT FILES   0040000090000000000000000920912
2650409121630DANIELSR         1142734  0TNT FILES   0050000090000000000000000920912
2650509130332DANIELSR         1142734  0TNT FILES   0040000090000000000000000920913
2650509130332DANIELSR         1142734  0TNT FILES   0050000090000000000000000920913
2650609131000DANIELSR         1142734  0TNT FILES   0040000090000000000000000920913
2650609131000DANIELSR         1142734  0TNT FILES   0050000090000000000000000920913
2650709131630DANIELSR         1142734  0TNT FILES   0040000090000000000000000920913
2650709131630DANIELSR         1142734  0TNT FILES   0050000090000000000000000920913
2650809140000JMS              34311162382105        01001   0      950      1920914
2650809140000JMS              34311162382105        011     1 10     0      0920914
2650909140300DANIELSR         1142734  0TNT FILES   0040000090000000000000000920914
2650909140300DANIELSR         1142734  0TNT FILES   0050000090000000000000000920914
2651009141000DANIELSR         1142734  0TNT FILES   0040000090000000000000000920914
2651009141000DANIELSR         1142734  0TNT FILES   0050000090000000000000000920914
2651109141630DANIELSR         1142734  0TNT FILES   0040000090000000000000000920914
2651109141630DANIELSR         1142734  0TNT FILES   0050000090000000000000000920914
2651209150300DANIELSR         1142734  0TNT FILES   0040000090000000000000000920915
2651209150300DANIELSR         1142734  0TNT FILES   0050000090000000000000000920915
2651409151000DANIELSR         1142734  0TNT FILES   0040000090000000000000000920915
2651409151000DANIELSR         1142734  0TNT FILES   0050000090000000000000000920915
2651309151000DANIELSR         1142734  0FILE SAVE   0050000520000000000000000920915
2651509151630DANIELSR         1142734  0TNT FILES   0040000090000000000000000920915
2651509151630DANIELSR         1142734  0TNT FILES   0050000090000000000000000920915
2651609160300DANIELSR         1142734  0TNT FILES   0050000090000000000000000920916
2651609160300DANIELSR         1142734  0TNT FILES   0040000090000000000000000920916
2651709161000DANIELSR         1142734  0TNT FILES   0040000090000000000000000920916
2651709161000DANIELSR         1142734  0TNT FILES   0050000090000000000000000920916
2651809161630DANIELSR         1142734  0TNT FILES   0040000090000000000000000920916
2651809161630DANIELSR         1142734  0TNT FILES   0050000090000000000000000920916
2651909170300DANIELSR         1142734  0TNT FILES   0040000090000000000000000920917
2651909170300DANIELSR         1142734  0TNT FILES   0050000090000000000000000920917
2652009171000DANIELSR         1142734  0TNT FILES   0040000090000000000000000920917
2652009171000DANIELSR         1142734  0TNT FILES   0050000090000000000000000920917
2652109171630DANIELSR         1142734  0TNT FILES   0040000090000000000000000920917
2652109171630DANIELSR         1142734  0TNT FILES   0050000090000000000000000920917
2652309180509DANIELSR    000001142734000TNT         1040000090000000000000000920918
2652309180509DANIELSR    000001142734000TNT         1050000090000000000000000920918
2652409181000DANIELSR         1142734  0TNT FILES   0040000090000000000000000920918
2652409181000DANIELSR         1142734  0TNT FILES   0050000090000000000000000920918
2652509181630DANIELSR         1142734  0TNT FILES   0040000090000000000000000920918
2652509181630DANIELSR         1142734  0TNT FILES   0050000090000000000000000920918
2652609190300DANIELSR         1142734  0TNT FILES   0040000090000000000000000920919
2652609190300DANIELSR         1142734  0TNT FILES   0050000090000000000000000920919
2652709191000DANIELSR         1142734  0TNT FILES   0040000090000000000000000920919
2652709191000DANIELSR         1142734  0TNT FILES   0050000090000000000000000920919
2652809191630DANIELSR         1142734  0TNT FILES   0040000090000000000000000920919
2652809191630DANIELSR         1142734  0TNT FILES   0050000090000000000000000920919
2652909200330DANIELSR         1142734  0TNT FILES   0040000090000000000000000920920
2652909200330DANIELSR         1142734  0TNT FILES   0050000090000000000000000920920
2653009201000DANIELSR         1142734  0TNT FILES   0050000090000000000000000920920
2653009201000DANIELSR         1142734  0TNT FILES   0040000090000000000000000920920
2653109201630DANIELSR         1142734  0TNT FILES   0040000090000000000000000920920
2653109201630DANIELSR         1142734  0TNT FILES   0050000090000000000000000920920
2653209210300DANIELSR         1142734  0TNT FILES   0040000090000000000000000920921
2653209210300DANIELSR         1142734  0TNT FILES   0050000090000000000000000920921
2653309211000DANIELSR         1142734  0TNT FILES   0040000090000000000000000920921
2653309211000DANIELSR         1142734  0TNT FILES   0050000090000000000000000920921
2653409211630DANIELSR         1142734  0TNT FILES   0040000090000000000000000920921
2653409211630DANIELSR         1142734  0TNT FILES   0050000090000000000000000920921
2653509220300DANIELSR         1142734  0TNT FILES   0050000090000000000000000920922
2653509220300DANIELSR         1142734  0TNT FILES   0040000090000000000000000920922
2653609221000DANIELSR         1142734  0TNT FILES   0040000090000000000000000920922
2653609221000DANIELSR         1142734  0TNT FILES   0050000090000000000000000920922
2653709221630DANIELSR         1142734  0TNT FILES   0040000090000000000000000920922
2653709221630DANIELSR         1142734  0TNT FILES   0050000090000000000000000920922
2653809230300DANIELSR         1142734  0TNT FILES   0040000090000000000000000920923
2653809230300DANIELSR         1142734  0TNT FILES   0050000090000000000000000920923
2653909231000DANIELSR         1142734  0TNT FILES   0040000090000000000000000920923
2653909231000DANIELSR         1142734  0TNT FILES   0050000090000000000000000920923
2654009231630DANIELSR         1142734  0TNT FILES   0040000090000000000000000920923
2654009231630DANIELSR         1142734  0TNT FILES   0050000090000000000000000920923
2654109240300DANIELSR         1142734  0TNT FILES   0040000090000000000000000920924
2654109240300DANIELSR         1142734  0TNT FILES   0050000090000000000000000920924
2654209241000DANIELSR         1142734  0TNT FILES   0040000090000000000000000920924
2654209241000DANIELSR         1142734  0TNT FILES   0050000090000000000000000920924
2654309241630DANIELSR         1142734  0TNT FILES   0040000090000000000000000920924
2654309241630DANIELSR         1142734  0TNT FILES   0050000090000000000000000920924
2654409250300DANIELSR         1142734  0TNT FILES   0040000090000000000000000920925
2654409250300DANIELSR         1142734  0TNT FILES   0050000090000000000000000920925
2654509251000DANIELSR         1142734  0TNT FILES   0040000090000000000000000920925
2654509251000DANIELSR         1142734  0TNT FILES   0050000090000000000000000920925
2654609251630DANIELSR         1142734  0TNT FILES   0040000090000000000000000920925
2654609251630DANIELSR         1142734  0TNT FILES   0050000090000000000000000920925
2654709260300DANIELSR         1142734  0TNT FILES   0050000090000000000000000920926
2654709260300DANIELSR         1142734  0TNT FILES   0040000090000000000000000920926
2654809261000DANIELSR         1142734  0TNT FILES   0050000090000000000000000920926
2654809261000DANIELSR         1142734  0TNT FILES   0040000090000000000000000920926
2654909261630DANIELSR         1142734  0TNT FILES   0040000090000000000000000920926
2654909261630DANIELSR         1142734  0TNT FILES   0050000090000000000000000920926
2655009270344DANIELSR         1142734  0TNT FILES   0050000090000000000000000920927
2655009270344DANIELSR         1142734  0TNT FILES   0040000090000000000000000920927
2655109271000DANIELSR         1142734  0TNT FILES   0050000090000000000000000920927
2655109271000DANIELSR         1142734  0TNT FILES   0040000090000000000000000920927
2655209271630DANIELSR         1142734  0TNT FILES   0040000090000000000000000920927
2655209271630DANIELSR         1142734  0TNT FILES   0050000090000000000000000920927
2655309280300DANIELSR         1142734  0TNT FILES   0040000090000000000000000920928
2655309280300DANIELSR         1142734  0TNT FILES   0050000090000000000000000920928
2655509281000DANIELSR         1142734  0TNT FILES   0040000090000000000000000920928
2655509281000DANIELSR         1142734  0TNT FILES   0050000090000000000000000920928
2655609281630DANIELSR         1142734  0TNT FILES   0040000090000000000000000920928
2655609281630DANIELSR         1142734  0TNT FILES   0050000090000000000000000920928
2655709290300DANIELSR         1142734  0TNT FILES   0050000090000000000000000920929
2655709290300DANIELSR         1142734  0TNT FILES   0040000090000000000000000920929
2655809291000DANIELSR         1142734  0TNT FILES   0050000090000000000000000920929
2655809291000DANIELSR         1142734  0TNT FILES   0040000090000000000000000920929
2655909291630DANIELSR         1142734  0TNT FILES   0040000090000000000000000920929
2655909291630DANIELSR         1142734  0TNT FILES   0050000090000000000000000920929
2656009300300DANIELSR         1142734  0TNT FILES   0040000090000000000000000920930
2656009300300DANIELSR         1142734  0TNT FILES   0050000090000000000000000920930
2656109301000DANIELSR         1142734  0TNT FILES   0040000090000000000000000920930
2656109301000DANIELSR         1142734  0TNT FILES   0050000090000000000000000920930
2656209301630DANIELSR         1142734  0TNT FILES   0040000090000000000000000920930
2656209301NIELSR         1142734  0TNT FILES   0050000090000000000000000920930
2663708311630DANIELSR         1142734  0TNT FILES   0040000090000000000000000930831
2663708311630DANIELSR         1142734  0TNT FILES   0050000090000000000000000930831
2663809010300DANIELSR         1142734  0TNT FILES   0040000090000000000000000930901
2663809010300DANIELSR         1142734  0TNT FILES   0050000090000000000000000930901
2663909011121OPER        000001000021000TNT         0040000090000000000000000930901
2663909011121OPER        000001000021000TNT         0050000090000000000000000930901
2664009011630DANIELSR         1142734  0TNT FILES   0040000090000000000000000930901
2664009011630DANIELSR         1142734  0TNT FILES   0050000090000000000000000930901
2664109020300DANIELSR         1142734  0TNT FILES   0040000090000000000000000930902
2664109020300DANIELSR         1142734  0TNT FILES   0050000090000000000000000930902
2664209021218DANIELSR    000001142734000TNT         0040000090000000000000000930902
2664209021218DANIELSR    000001142734000TNT         0050000090000000000000000930902
2664309021630DANIELSR         1142734  0TNT FILES   0040000090000000000000000930902
2664309021630DANIELSR         1142734  0TNT FILES   0050000090000000000000000930902
2664409030300DANIELSR         1142734  0TNT FILES   0040000090000000000000000930903
2664409030300DANIELSR         1142734  0TNT FILES   0050000090000000000000000930903
2664509031214OPER        000001000021000TNT         0040000090000000000000000930903
2664509031214OPER        000001000021000TNT         0050000090000000000000000930903
2664609031630DANIELSR         1142734  0TNT FILES   0040000090000000000000000930903
2664609031630DANIELSR         1142734  0TNT FILES   0050000090000000000000000930903
2664709040300DANIELSR         1142734  0TNT FILES   0050000090000000000000000930904
2664709040300DANIELSR         1142734  0TNT FILES   0040000090000000000000000930904
2664909041331DANIELSR    000001142734000TNT FILES   1040000090000000000000000930904
2664909041331DANIELSR    000001142734000TNT FILES   1050000090000000000000000930904
2665009041630DANIELSR         1142734  0TNT FILES   0040000090000000000000000930904
2665009041630DANIELSR         1142734  0TNT FILES   0050000090000000000000000930904
2665109050521DANIELSR         1142734  0TNT FILES   0040000090000000000000000930905
2665109050521DANIELSR         1142734  0TNT FILES   0050000090000000000000000930905
2665209051107DANIELSR    000001142734000TNT         0040000090000000000000000930905
2665209051107DANIELSR    000001142734000TNT         0050000090000000000000000930905
2665309051630DANIELSR         1142734  0TNT FILES   0040000090000000000000000930905
2665309051630DANIELSR         1142734  0TNT FILES   0050000090000000000000000930905
2665409060000JMS              34311162382105        01001   0      915      1930906
2665409060000JMS              34311162382105        011     1 10     0      0930906
2665509060300DANIELSR         1142734  0TNT FILES   0040000090000000000000000930906
2665509060300DANIELSR         1142734  0TNT FILES   0050000090000000000000000930906
2665609061257DANIELSR    000001142734000TNT         0040000090000000000000000930906
2665609061257DANIELSR    000001142734000TNT         0050000090000000000000000930906
2665709061630DANIELSR         1142734  0TNT FILES   0040000090000000000000000930906
2665709061630DANIELSR         1142734  0TNT FILES   0050000090000000000000000930906
2665809070300DANIELSR         1142734  0TNT FILES   0040000090000000000000000930907
2665809070300DANIELSR         1142734  0TNT FILES   0050000090000000000000000930907
2666009070956DANIELSR    000001142734000TNT         0040000090000000000000000930907
2666009070956DANIELSR    000001142734000TNT         0050000090000000000000000930907
2666109071630DANIELSR         1142734  0TNT FILES   0040000090000000000000000930907
2666109071630DANIELSR         1142734  0TNT FILES   0050000090000000000000000930907
2666209080300DANIELSR         1142734  0TNT FILES   0040000090000000000000000930908
2666209080300DANIELSR         1142734  0TNT FILES   0050000090000000000000000930908
2666309080952DANIELSR    000001142734000TNT         0040000090000000000000000930908
2666309080952DANIELSR    000001142734000TNT         0050000090000000000000000930908
2666409081630DANIELSR         1142734  0TNT FILES   0040000090000000000000000930908
2666409081630DANIELSR         1142734  0TNT FILES   0050000090000000000000000930908
2666509090300DANIELSR         1142734  0TNT FILES   0040000090000000000000000930909
2666509090300DANIELSR         1142734  0TNT FILES   0050000090000000000000000930909
2666609091140DANIELSR    000001142734000TNT         0040000090000000000000000930909
2666609091140DANIELSR    000001142734000TNT         0050000090000000000000000930909
2666709091630DANIELSR         1142734  0TNT FILES   0040000090000000000000000930909
2666709091630DANIELSR         1142734  0TNT FILES   0050000090000000000000000930909
2666809100300DANIELSR         1142734  0TNT FILES   0050000090000000000000000930910
2666809100300DANIELSR         1142734  0TNT FILES   0040000090000000000000000930910
2666909101135DANIELSR    000001142734000TNT         0050000090000000000000000930910
2666909101135DANIELSR    000001142734000TNT         0040000090000000000000000930910
2667009101630DANIELSR         1142734  0TNT FILES   0040000090000000000000000930910
2667009101630DANIELSR         1142734  0TNT FILES   0050000090000000000000000930910
2667109110300DANIELSR         1142734  0TNT FILES   0040000090000000000000000930911
2667109110300DANIELSR         1142734  0TNT FILES   0050000090000000000000000930911
2667209111037OPER        000001000021000TNT FILES   0040000090000000000000000930911
2667209111037OPER        000001000021000TNT FILES   0050000090000000000000000930911
2667309111630DANIELSR         1142734  0TNT FILES   0040000090000000000000000930911
2667309111630DANIELSR         1142734  0TNT FILES   0050000090000000000000000930911
2667409120414DANIELSR         1142734  0TNT FILES   0050000090000000000000000930912
2667409120414DANIELSR         1142734  0TNT FILES   0040000090000000000000000930912
2667509121137DANIELSR    000001142734000TNT         0040000090000000000000000930912
2667509121137DANIELSR    000001142734000TNT         0050000090000000000000000930912
2667609121630DANIELSR         1142734  0TNT FILES   0040000090000000000000000930912
2667609121630DANIELSR         1142734  0TNT FILES   0050000090000000000000000930912
2667709130300DANIELSR         1142734  0TNT FILES   0040000090000000000000000930913
2667709130300DANIELSR         1142734  0TNT FILES   0050000090000000000000000930913
2667809131058OPER        000001000021000TNT FILES   0040000090000000000000000930913
2667809131058OPER        000001000021000TNT FILES   0050000090000000000000000930913
2667909131630DANIELSR         1142734  0TNT FILES   0040000090000000000000000930913
2667909131630DANIELSR         1142734  0TNT FILES   0050000090000000000000000930913
2668009140300DANIELSR         1142734  0TNT FILES   0040000090000000000000000930914
2668009140300DANIELSR         1142734  0TNT FILES   0050000090000000000000000930914
2668109140903DANIELSR    000001142734000TNT         1040000090000000000000000930914
2668109140903DANIELSR    000001142734000TNT         1050000090000000000000000930914
2668209141630DANIELSR         1142734  0TNT FILES   0040000090000000000000000930914
2668209141630DANIELSR         1142734  0TNT FILES   0050000090000000000000000930914
2668309150300DANIELSR         1142734  0TNT FILES   0040000090000000000000000930915
2668309150300DANIELSR         1142734  0TNT FILES   0050000090000000000000000930915
2668509151013DANIELSR    000001142734000TNT         0040000090000000000000000930915
2668509151013DANIELSR    000001142734000TNT         0050000090000000000000000930915
2668409151000DANIELSR         1142734  0FILE SAVE   0050000550000000000000000930915
2668609151630DANIELSR         1142734  0TNT FILES   0040000090000000000000000930915
2668609151630DANIELSR         1142734  0TNT FILES   0050000090000000000000000930915
2668709160300DANIELSR         1142734  0TNT FILES   0040000090000000000000000930916
2668709160300DANIELSR         1142734  0TNT FILES   0050000090000000000000000930916
2668809161125DANIELSR    000001142734000TNT         1040000090000000000000000930916
2668809161125DANIELSR    000001142734000TNT         1050000090000000000000000930916
2668909161630DANIELSR         1142734  0TNT FILES   0040000090000000000000000930916
2668909161630DANIELSR         1142734  0TNT FILES   0050000090000000000000000930916
2669009170300DANIELSR         1142734  0TNT FILES   0050000090000000000000000930917
2669009170300DANIELSR         1142734  0TNT FILES   0040000090000000000000000930917
2669109171034DANIELSR    000001142734000TNT         0050000090000000000000000930917
2669109171034DANIELSR    000001142734000TNT         0040000090000000000000000930917
2669209171630DANIELSR         1142734  0TNT FILES   0040000090000000000000000930917
2669209171630DANIELSR         1142734  0TNT FILES   0050000090000000000000000930917
2669309180300DANIELSR         1142734  0TNT FILES   0050000090000000000000000930918
2669309180300DANIELSR         1142734  0TNT FILES   0040000090000000000000000930918
2669409181110OPER        000001000021000TNT         0040000090000000000000000930918
2669409181110OPER        000001000021000TNT         0050000090000000000000000930918
2669509181630DANIELSR         1142734  0TNT FILES   0040000090000000000000000930918
2669509181630DANIELSR         1142734  0TNT FILES   0050000090000000000000000930918
2669609190407DANIELSR         1142734  0TNT FILES   0050000090000000000000000930919
2669609190407DANIELSR         1142734  0TNT FILES   0040000090000000000000000930919
2669809191040DANIELSR    000001142734000TNT         0050000090000000000000000930919
2669809191040DANIELSR    000001142734000TNT         0040000090000000000000000930919
2669909191630DANIELSR         1142734  0TNT FILES   0040000090000000000000000930919
2669909191630DANIELSR         1142734  0TNT FILES   0050000090000000000000000930919
2670009200300DANIELSR         1142734  0TNT FILES   0040000090000000000000000930920
2670009200300DANIELSR         1142734  0TNT FILES   0050000090000000000000000930920
2670109200953OPER        000001000021000TNT FILES   0040000090000000000000000930920
2670109200953OPER        000001000021000TNT FILES   0050000090000000000000000930920
2670209201630DANIELSR         1142734  0TNT FILES   0040000090000000000000000930920
2670209201630DANIELSR         1142734  0TNT FILES   0050000090000000000000000930920
2670409210300DANIELSR         1142734  0TNT FILES   0050000090000000000000000930921
2670409210300DANIELSR         1142734  0TNT FILES   0040000090000000000000000930921
2670309201628WRFS         21476125050229NONE        0050000040000000000000001930921
2670609211630DANIELSR         1142734  0TNT FILES   0040000090000000000000000930921
2670609211630DANIELSR         1142734  0TNT FILES   0050000090000000000000000930921
2670709220300DANIELSR         1142734  0TNT FILES   0040000090000000000000000930922
2670709220300DANIELSR         1142734  0TNT FILES   0050000090000000000000000930922
2670809220952BURNS1           1161424  0STORE       0050002170000000000000001930922
2670909221305DANIELSR    000001142734000TNT         0040000090000000000000000930922
2670909221305DANIELSR    000001142734000TNT         0050000090000000000000000930922
2670909221305DANIELSR    000001142734000TNT         0050000090000000000000000930922
2671009221630DANIELSR         1142734  0TNT FILES   0040000090000000000000000930922
2671009221630DANIELSR         1142734  0TNT FILES   0050000090000000000000000930922
2671109230300DANIELSR         1142734  0TNT FILES   0040000090000000000000000930923
2671109230300DANIELSR         1142734  0TNT FILES   0050000090000000000000000930923
2671209231127DANIELSR    000001142734000TNT         1040000090000000000000000930923
2671209231127DANIELSR    000001142734000TNT         1050000090000000000000000930923
2671309231630DANIELSR         1142734  0TNT FILES   0040000090000000000000000930923
2671309231630DANIELSR         1142734  0TNT FILES   0050000090000000000000000930923
2671409240300DANIELSR         1142734  0TNT FILES   0040000090000000000000000930924
2671409240300DANIELSR         1142734  0TNT FILES   0050000090000000000000000930924
2671509241020DANIELSR    000001142734000TNT         0050000090000000000000000930924
2671509241020DANIELSR    000001142734000TNT         0040000090000000000000000930924
2671609241630DANIELSR         1142734  0TNT FILES   0040000090000000000000000930924
2671609241630DANIELSR         1142734  0TNT FILES   0050000090000000000000000930924
2671709250300DANIELSR         1142734  0TNT FILES   0050000090000000000000000930925
2671709250300DANIELSR         1142734  0TNT FILES   0040000090000000000000000930925
2671809251128OPER        000001000021000TNT         0040000090000000000000000930925
2671809251128OPER        000001000021000TNT         0050000090000000000000000930925
2671909251630DANIELSR         1142734  0TNT FILES   0040000090000000000000000930925
2671909251630DANIELSR         1142734  0TNT FILES   0050000090000000000000000930925
2672009260437DANIELSR         1142734  0TNT FILES   0050000090000000000000000930926
2672009260437DANIELSR         1142734  0TNT FILES   0040000090000000000000000930926
2672109261035DANIELSR    000001142734000TNT         0040000090000000000000000930926
2672109261035DANIELSR    000001142734000TNT         0050000090000000000000000930926
2672209261630DANIELSR         1142734  0TNT FILES   0040000090000000000000000930926
2672209261630DANIELSR         1142734  0TNT FILES   0050000090000000000000000930926
2672309270000JMS              34311162382105        01001   0      920      1930927
2672309270000JMS              34311162382105        011     1 10     0      0930927
2672409270300DANIELSR         1142734  0TNT FILES   0040000090000000000000000930927
2672409270300DANIELSR         1142734  0TNT FILES   0050000090000000000000000930927
2672509271052OPER        000001000021000TNT FILES   1040000090000000000000000930927
2672509271052OPER        000001000021000TNT FILES   1050000090000000000000000930927
2672609271630DANIELSR         1142734  0TNT FILES   0040000090000000000000000930927
2672609271630DANIELSR         1142734  0TNT FILES   0050000090000000000000000930927
2672709280300DANIELSR         1142734  0TNT FILES   0050000090000000000000000930928
2672709280300DANIELSR         1142734  0TNT FILES   0040000090000000000000000930928
2672809280849DANIELSR    000001142734000TNT         1040000090000000000000000930928
2672809280849DANIELSR    000001142734000TNT         1050000090000000000000000930928
2672909281630DANIELSR         1142734  0TNT FILES   0040000090000000000000000930928
2672909281630DANIELSR         1142734  0TNT FILES   0050000090000000000000000930928
2673009290300DANIELSR         1142734  0TNT FILES   0040000090000000000000000930929
2673009290300DANIELSR         1142734  0TNT FILES   0050000090000000000000000930929
2673109291013DANIELSR    000001142734000TNT         0040000090000000000000000930929
2673109291013DANIELSR    000001142734000TNT         0050000090000000000000000930929
2673209291630DANIELSR         1142734  0TNT FILES   0040000090000000000000000930929
2673209291630DANIELSR         1142734  0TNT FILES   0050000090000000000000000930929
2673309300300DANIELSR         1142734  0TNT FILES   0040000090000000000000000930930
2673309300300DANIELSR         1142734  0TNT FILES   0050000090000000000000000930930
2673409301110DANIELSR    000001142734000TNT         1040000090000000000000000930930
2673409301110DANIELSR    000001142734000TNT         1050000090000000000000000930930
2673509301630DANIELSR         1142734  0TNT FILES   0040000090000000000000000930930
2673509301630DANIELSR         1142734  0TNT FILES   0050000090000000000000000930930
2677508311630DANIELSR         1142734  0TNT FILES   0040000090000000000000000940831
2677508311630DANIELSR         1142734  0TNT FILES   0050000090000000000000000940831
2677609010300DANIELSR         1142734  0TNT FILES   0040000090000000000000000940901
2677609010300DANIELSR         1142734  0TNT FILES   0050000090000000000000000940901
2677709011000DANIELSR         1142734  0TNT FILES   0040000090000000000000000940901
2677709011000DANIELSR         1142734  0TNT FILES   0050000090000000000000000940901
2677809011630DANIELSR         1142734  0TNT FILES   0040000090000000000000000940901
2677809011630DANIELSR         1142734  0TNT FILES   0050000090000000000000000940901
2677909020300DANIELSR         1142734  0TNT FILES   0040000090000000000000000940902
2677909020300DANIELSR         1142734  0TNT FILES   0050000090000000000000000940902
2678109021630DANIELSR         1142734  0TNT FILES   0040000090000000000000000940902
2678109021630DANIELSR         1142734  0TNT FILES   0050000090000000000000000940902
2678209030300DANIELSR         1142734  0TNT FILES   0050000090000000000000000940903
2678209030300DANIELSR         1142734  0TNT FILES   0040000090000000000000000940903
2678309031000DANIELSR         1142734  0TNT FILES   0040000090000000000000000940903
2678309031000DANIELSR         1142734  0TNT FILES   0050000090000000000000000940903
2678409031630DANIELSR         1142734  0TNT FILES   0040000090000000000000000940903
2678409031630DANIELSR         1142734  0TNT FILES   0050000090000000000000000940903
2678509040300DANIELSR         1142734  0TNT FILES   0050000090000000000000000940904
2678509040300DANIELSR         1142734  0TNT FILES   0040000090000000000000000940904
2678009021000DANIELSR         1142734  0TNT FILES   0040000090000000000000000940902
2678009021000DANIELSR         1142734  0TNT FILES   0050000090000000000000000940902
2678609041000DANIELSR         1142734  0TNT FILES   0050000090000000000000000940904
2678609041000DANIELSR         1142734  0TNT FILES   0040000090000000000000000940904
2678709041630DANIELSR         1142734  0TNT FILES   0040000090000000000000000940904
2678709041630DANIELSR         1142734  0TNT FILES   0050000090000000000000000940904
2678809050300DANIELSR         1142734  0TNT FILES   0050000090000000000000000940905
2678809050300DANIELSR         1142734  0TNT FILES   0040000090000000000000000940905
2678909051000DANIELSR         1142734  0TNT FILES   0050000090000000000000000940905
2678909051000DANIELSR         1142734  0TNT FILES   0040000090000000000000000940905
2679009051630DANIELSR         1142734  0TNT FILES   0040000090000000000000000940905
2679009051630DANIELSR         1142734  0TNT FILES   0050000090000000000000000940905
2679109060300DANIELSR         1142734  0TNT FILES   0050000090000000000000000940906
2679109060300DANIELSR         1142734  0TNT FILES   0040000090000000000000000940906
2679209061000DANIELSR         1142734  0TNT FILES   0050000090000000000000000940906
2679209061000DANIELSR         1142734  0TNT FILES   0040000090000000000000000940906
2679309061630DANIELSR         1142734  0TNT FILES   0040000090000000000000000940906
2679309061630DANIELSR         1142734  0TNT FILES   0050000090000000000000000940906
2679409070300DANIELSR         1142734  0TNT FILES   0040000090000000000000000940907
2679409070300DANIELSR         1142734  0TNT FILES   0050000090000000000000000940907
2679509071000DANIELSR         1142734  0TNT FILES   0040000090000000000000000940907
2679509071000DANIELSR         1142734  0TNT FILES   0050000090000000000000000940907
2679609071630DANIELSR         1142734  0TNT FILES   0040000090000000000000000940907
2679609071630DANIELSR         1142734  0TNT FILES   0050000090000000000000000940907
2679709080300DANIELSR         1142734  0TNT FILES   0050000090000000000000000940908
2679709080300DANIELSR         1142734  0TNT FILES   0040000090000000000000000940908
2679809081000DANIELSR         1142734  0TNT FILES   0040000090000000000000000940908
2679809081000DANIELSR         1142734  0TNT FILES   0050000090000000000000000940908
2679909081630DANIELSR         1142734  0TNT FILES   0040000090000000000000000940908
2679909081630DANIELSR         1142734  0TNT FILES   0050000090000000000000000940908
2680009090300DANIELSR         1142734  0TNT FILES   0050000090000000000000000940909
2680009090300DANIELSR         1142734  0TNT FILES   0040000090000000000000000940909
2680109091000DANIELSR         1142734  0TNT FILES   0040000090000000000000000940909
2680109091000DANIELSR         1142734  0TNT FILES   0050000090000000000000000940909
2680209091630DANIELSR         1142734  0TNT FILES   0040000090000000000000000940909
2680209091630DANIELSR         1142734  0TNT FILES   0050000090000000000000000940909
2680309100300DANIELSR         1142734  0TNT FILES   0040000090000000000000000940910
2680309100300DANIELSR         1142734  0TNT FILES   0050000090000000000000000940910
2680409101000DANIELSR         1142734  0TNT FILES   0040000090000000000000000940910
2680409101000DANIELSR         1142734  0TNT FILES   0050000090000000000000000940910
2680509101630DANIELSR         1142734  0TNT FILES   0040000090000000000000000940910
2680509101630DANIELSR         1142734  0TNT FILES   0050000090000000000000000940910
2680609110523DANIELSR         1142734  0TNT FILES   0050000090000000000000000940911
2680609110523DANIELSR         1142734  0TNT FILES   0040000090000000000000000940911
2680809111630DANIELSR         1142734  0TNT FILES   0040000090000000000000000940911
2680809111630DANIELSR         1142734  0TNT FILES   0050000090000000000000000940911
2680909120300DANIELSR         1142734  0TNT FILES   0050000090000000000000000940912
2680909120300DANIELSR         1142734  0TNT FILES   0040000090000000000000000940912
2681109121630DANIELSR         1142734  0TNT FILES   0040000090000000000000000940912
2681109121630DANIELSR         1142734  0TNT FILES   0050000090000000000000000940912
2681209130300DANIELSR         1142734  0TNT FILES   0040000090000000000000000940913
2681209130300DANIELSR         1142734  0TNT FILES   0050000090000000000000000940913
2680709111000DANIELSR         1142734  0TNT FILES   0040000090000000000000000940911
2680709111000DANIELSR         1142734  0TNT FILES   0050000090000000000000000940911
2681009121000DANIELSR         1142734  0TNT FILES   0040000090000000000000000940912
2681009121000DANIELSR         1142734  0TNT FILES   0050000090000000000000000940912
2681309131338NSSC         21477147773229            0040000050000000000000000940913
2681409131000DANIELSR         1142734  0TNT FILES   0040000090000000000000000940913
2681409131000DANIELSR         1142734  0TNT FILES   0050000090000000000000000940913
2681509131310NETCON       21477175306229RESTORE FILE1040000080000000000000000940913
2682009141630DANIELSR         1142734  0TNT FILES   0050000090000000000000000940914
2682009141630DANIELSR         1142734  0TNT FILES   0040000090000000000000000940914
2681909141910NSSC         21477147773229LOST IN SYST0040000030000000000000000940915
2683809200300DANIELSR         1142734  0TNT FILES   0040000090000000000000000940920
2683809200300DANIELSR         1142734  0TNT FILES   0050000090000000000000000940920
2683909201000DANIELSR         1142734  0TNT FILES   0040000090000000000000000940920
2683909201000DANIELSR         1142734  0TNT FILES   0050000090000000000000000940920
2684009201630UTIL             1    36  0TNT FILES   0040000090000000000000000940920
2684009201630UTIL             1    36  0TNT FILES   0050000090000000000000000940920
2684209210300UTIL             1    36  0TNT FILES   0040000090000000000000000940921
2684209210300UTIL             1    36  0TNT FILES   0050000090000000000000000940921
2684109210100UTIL             1    36  0TNT FILES   0040000040000000000000000940921
2684109210100UTIL             1    36  0TNT FILES   0050000040000000000000000940921
2684309211000UTIL             1    36  0TNT FILES   0040000090000000000000000940921
2684309211000UTIL             1    36  0TNT FILES   0050000090000000000000000940921
2684409211630UTIL             1    36  0TNT FILES   0040000090000000000000000940921
2684409211630UTIL             1    36  0TNT FILES   0050000090000000000000000940921
2684509220100UTIL             1    36  0TNT FILES   0040000040000000000000000940922
2684509220100UTIL             1    36  0TNT FILES   0050000040000000000000000940922
2684609220300UTIL             1    36  0TNT FILES   0040000090000000000000000940922
2684609220300UTIL             1    36  0TNT FILES   0050000090000000000000000940922
2684709221000UTIL             1    36  0TNT FILES   0040000090000000000000000940922
2684709221000UTIL             1    36  0TNT FILES   0050000090000000000000000940922
2684909230100UTIL             1    36  0TNT FILES   0040000040000000000000000940923
2684909230100UTIL             1    36  0TNT FILES   0050000040000000000000000940923
2685009230300UTIL             1    36  0TNT FILES   0040000090000000000000000940923
2685009230300UTIL             1    36  0TNT FILES   0050000090000000000000000940923
2685109231000UTIL             1    36  0TNT FILES   0040000090000000000000000940923
2685109231000UTIL             1    36  0TNT FILES   0050000090000000000000000940923
2685209231630UTIL             1    36  0TNT FILES   0040000090000000000000000940923
2685209231630UTIL             1    36  0TNT FILES   0050000090000000000000000940923
2685309240100UTIL             1    36  0TNT FILES   0040000040000000000000000940924
2685309240100UTIL             1    36  0TNT FILES   0050000040000000000000000940924
2685409240300UTIL             1    36  0TNT FILES   0040000090000000000000000940924
2685409240300UTIL             1    36  0TNT FILES   0050000090000000000000000940924
2684809221630UTIL             1    36  0TNT FILES   0040000090000000000000000940922
2684809221630UTIL             1    36  0TNT FILES   0050000090000000000000000940922
2685509241000UTIL             1    36  0TNT FILES   0040000090000000000000000940924
2685509241000UTIL             1    36  0TNT FILES   0050000090000000000000000940924
2685609241630UTIL             1    36  0TNT FILES   0040000090000000000000000940924
2685609241630UTIL             1    36  0TNT FILES   0050000090000000000000000940924
2685709250408UTIL             1    36  0TNT FILES   0040000040000000000000000940925
2685709250408UTIL             1    36  0TNT FILES   0050000040000000000000000940925
2685809250409UTIL             1    36  0TNT FILES   0040000090000000000000000940925
2685809250409UTIL             1    36  0TNT FILES   0050000090000000000000000940925
2685909251000UTIL             1    36  0TNT FILES   0040000090000000000000000940925
2685909251000UTIL             1    36  0TNT FILES   0050000090000000000000000940925
2686009251630UTIL             1    36  0TNT FILES   0040000090000000000000000940925
2686009251630UTIL             1    36  0TNT FILES   0050000090000000000000000940925
2686109260100UTIL             1    36  0TNT FILES   0040000040000000000000000940926
2686109260100UTIL             1    36  0TNT FILES   0050000040000000000000000940926
2686209260300UTIL             1    36  0TNT FILES   0040000090000000000000000940926
2686209260300UTIL             1    36  0TNT FILES   0050000090000000000000000940926
2686409261630UTIL             1    36  0TNT FILES   0040000090000000000000000940926
2686409261630UTIL             1    36  0TNT FILES   0050000090000000000000000940926
2686509270100UTIL             1    36  0TNT FILES   0050000040000000000000000940927
2686509270100UTIL             1    36  0TNT FILES   0040000040000000000000000940927
2686609270300UTIL             1    36  0TNT FILES   0040000090000000000000000940927
2686609270300UTIL             1    36  0TNT FILES   0050000090000000000000000940927
2686709271000UTIL             1    36  0TNT FILES   0040000090000000000000000940927
2686709271000UTIL             1    36  0TNT FILES   0050000090000000000000000940927
2686809271630UTIL             1    36  0TNT FILES   0040000090000000000000000940927
2686809271630UTIL             1    36  0TNT FILES   0050000090000000000000000940927
2686909280100UTIL             1    36  0TNT FILES   0040000040000000000000000940928
2686909280100UTIL             1    36  0TNT FILES   0050000040000000000000000940928
2687009280300UTIL             1    36  0TNT FILES   0040000090000000000000000940928
2687009280300UTIL             1    36  0TNT FILES   0050000090000000000000000940928
2686309261000UTIL             1    36  0TNT FILES   0040000090000000000000000940926
2686309261000UTIL             1    36  0TNT FILES   0050000090000000000000000940926
2687109281000UTIL             1    36  0TNT FILES   0040000090000000000000000940928
2687109281000UTIL             1    36  0TNT FILES   0050000090000000000000000940928
2687209281630UTIL             1    36  0TNT FILES   0050000090000000000000000940928
2687209281630UTIL             1    36  0TNT FILES   0040000090000000000000000940928
2687309290100UTIL             1    36  0TNT FILES   0050000040000000000000000940929
2687309290100UTIL             1    36  0TNT FILES   0040000040000000000000000940929
2687409290300UTIL             1    36  0TNT FILES   0050000090000000000000000940929
2687409290300UTIL             1    36  0TNT FILES   0040000090000000000000000940929
2687509291000UTIL             1    36  0TNT FILES   0040000090000000000000000940929
2687509291000UTIL             1    36  0TNT FILES   0050000090000000000000000940929
2687609291630UTIL             1    36  0TNT FILES   0040000090000000000000000940929
2687609291630UTIL             1    36  0TNT FILES   0050000090000000000000000940929
2687709300100UTIL             1    36  0TNT FILES   0050000040000000000000000940930
2687709300100UTIL             1    36  0TNT FILES   0040000040000000000000000940930
2687809300300UTIL             1    36  0TNT FILES   0050000090000000000000000940930
2687809300300UTIL             1    36  0TNT FILES   0040000090000000000000000940930
2687909301000UTIL             1    36  0TNT FILES   0040000090000000000000000940930
2687909301000UTIL             1    36  0TNT FILES   0050000090000000000000000940930
2688009301630UTIL             1    36  0TNT FILES   0040000090000000000000000940930
2688009301630UTIL             1    36  0TNT FILES   0050000090000000000000000940930
,o*-|