2691407051151SRAMOV           1257377  0EXXON       0050001000000000000000001900705
2691507061240SCOHEN       11334424155200            0040000010000000000000000900710
0191907110902NTS         000000000000  3BSFNET      0040000020000000000000000900711
2691907110902NTS          11020171731  3BSFNET      0040001460000000000000000900701
2692007111144NTS          11020171731  3BSF NET     0040004540000000000000000900711
2692207120843SRA              1215254  0RESTORE FILE0040000670000000000000000900712
2691607090000JMS              34311162382105        01001   0     1295      1900713
2691607090000JMS              34311162382105        011     1 10     0      0900713
2692307151000DANIELSR         1142734  0FILE SAVE   0050000620000000000000000900715
2692407300152JMS              34311162382105        01001   0     1295      1900730
2692407300152JMS              34311162382105        011     1 10     0      0900730
2692507311157TECHSERV     21476261167201            0040000020000000000000000900731
2602007010103JMS              34311162382105        01001   0     1295      1910701
2602007010103JMS              34311162382105        011     1 10     0      0910701
2602107090911SRA              1215254  0RESTORE FROM0040000450000000000000000910709
2602207091344SRA              1215254  0RESTORE FROM0040028390000000000000000910709
2602307112126CARL             3352477238CMF         0050033890000000000000000910712
2602407151000DANIELSR         1142734  0FILE SAVE   0050000420000000000000000910715
2602507220000JMS              34311162382105        01001   0     1295      1910722
2602507220000JMS              34311162382105        011     1 10     0      0910722
2602607241101NTS          11020171731  3N/A         0040000010000000000000000910724
2602707311115INTLSUPT     44267175763229            0040001230000000000000000910731
2602707311115INTLSUPT     44267175763229            0050001230000000000000000910731
2626107010300DANIELSR         1142734  0TNT FILES   0050000090000000000000000920701
2626107010300DANIELSR         1142734  0TNT FILES   0040000090000000000000000920701
2626207011000DANIELSR         1142734  0TNT FILES   0040000090000000000000000920701
2626207011000DANIELSR         1142734  0TNT FILES   0050000090000000000000000920701
2626307011630DANIELSR         1142734  0TNT FILES   0040000090000000000000000920701
2626307011630DANIELSR         1142734  0TNT FILES   0050000090000000000000000920701
2626407020300DANIELSR         1142734  0TNT FILES   0040000090000000000000000920702
2626407020300DANIELSR         1142734  0TNT FILES   0050000090000000000000000920702
2626507021000DANIELSR         1142734  0TNT FILES   0040000090000000000000000920702
2626507021000DANIELSR         1142734  0TNT FILES   0050000090000000000000000920702
2626607021442NETCONTS     214772542362292101        0040000010000000000000000920702
2626707021630DANIELSR         1142734  0TNT FILES   0040000090000000000000000920702
2626707021630DANIELSR         1142734  0TNT FILES   0050000090000000000000000920702
2626807030300DANIELSR         1142734  0TNT FILES   0040000090000000000000000920703
2626807030300DANIELSR         1142734  0TNT FILES   0050000090000000000000000920703
2626907031000DANIELSR         1142734  0TNT FILES   0040000090000000000000000920703
2626907031000DANIELSR         1142734  0TNT FILES   0050000090000000000000000920703
2627007031630DANIELSR         1142734  0TNT FILES   0040000090000000000000000920703
2627007031630DANIELSR         1142734  0TNT FILES   0050000090000000000000000920703
2627107040300DANIELSR         1142734  0TNT FILES   0050000090000000000000000920704
2627107040300DANIELSR         1142734  0TNT FILES   0040000090000000000000000920704
2627207041000DANIELSR         1142734  0TNT FILES   0040000090000000000000000920704
2627207041000DANIELSR         1142734  0TNT FILES   0050000090000000000000000920704
2627307041630DANIELSR         1142734  0TNT FILES   0040000090000000000000000920704
2627307041630DANIELSR         1142734  0TNT FILES   0050000090000000000000000920704
2627507051000DANIELSR         1142734  0TNT FILES   0040000090000000000000000920705
2627507051000DANIELSR         1142734  0TNT FILES   0050000090000000000000000920705
2627607051630DANIELSR         1142734  0TNT FILES   0040000090000000000000000920705
2627607051630DANIELSR         1142734  0TNT FILES   0050000090000000000000000920705
2627707060300DANIELSR         1142734  0TNT FILES   0040000090000000000000000920706
2627707060300DANIELSR         1142734  0TNT FILES   0050000090000000000000000920706
2627807061000DANIELSR         1142734  0TNT FILES   0040000090000000000000000920706
2627807061000DANIELSR         1142734  0TNT FILES   0050000090000000000000000920706
2627907061630DANIELSR         1142734  0TNT FILES   0040000090000000000000000920706
2627907061630DANIELSR         1142734  0TNT FILES   0050000090000000000000000920706
2628007070300DANIELSR         1142734  0TNT FILES   0040000090000000000000000920707
2628007070300DANIELSR         1142734  0TNT FILES   0050000090000000000000000920707
2628107071000DANIELSR         1142734  0TNT FILES   0040000090000000000000000920707
2628107071000DANIELSR         1142734  0TNT FILES   0050000090000000000000000920707
2628207071630DANIELSR         1142734  0TNT FILES   0040000090000000000000000920707
2628207071630DANIELSR         1142734  0TNT FILES   0050000090000000000000000920707
2628307080536DANIELSR    000001142734000TNT         1040000090000000000000000920708
2628307080536DANIELSR    000001142734000TNT         1050000090000000000000000920708
2628407082131DANIELSR    000001142734000TNT FILES   0040000090000000000000000920708
2628407082131DANIELSR    000001142734000TNT FILES   0050000090000000000000000920708
2628707090129DANIELSR         1142734  0TNT FILES   0040000090000000000000000920709
2628707090129DANIELSR         1142734  0TNT FILES   0050000090000000000000000920709
2628907091000DANIELSR         1142734  0TNT FILES   0040000090000000000000000920709
2628907091000DANIELSR         1142734  0TNT FILES   0050000090000000000000000920709
2629007091630DANIELSR         1142734  0TNT FILES   0040000090000000000000000920709
2629007091630DANIELSR         1142734  0TNT FILES   0050000090000000000000000920709
2629107100300DANIELSR         1142734  0TNT FILES   0040000090000000000000000920710
2629107100300DANIELSR         1142734  0TNT FILES   0050000090000000000000000920710
2629207101000DANIELSR         1142734  0TNT FILES   0040000090000000000000000920710
2629207101000DANIELSR         1142734  0TNT FILES   0050000090000000000000000920710
2629307101630DANIELSR         1142734  0TNT FILES   0040000090000000000000000920710
2629307101630DANIELSR         1142734  0TNT FILES   0050000090000000000000000920710
2629407110300DANIELSR         1142734  0TNT FILES   0050000090000000000000000920711
2629407110300DANIELSR         1142734  0TNT FILES   0040000090000000000000000920711
2629507111000DANIELSR         1142734  0TNT FILES   0040000090000000000000000920711
2629507111000DANIELSR         1142734  0TNT FILES   0050000090000000000000000920711
2629607111630DANIELSR         1142734  0TNT FILES   0040000090000000000000000920711
2629607111630DANIELSR         1142734  0TNT FILES   0050000090000000000000000920711
2629707120524DANIELSR         1142734  0TNT FILES   0040000090000000000000000920712
2629707120524DANIELSR         1142734  0TNT FILES   0050000090000000000000000920712
2629807121000DANIELSR         1142734  0TNT FILES   0040000090000000000000000920712
2629807121000DANIELSR         1142734  0TNT FILES   0050000090000000000000000920712
2629907121630DANIELSR         1142734  0TNT FILES   0040000090000000000000000920712
2629907121630DANIELSR         1142734  0TNT FILES   0050000090000000000000000920712
2630007130000JMS              34311162382105        01001   0      950      1920713
2630007130000JMS              34311162382105        011     1 10     0      0920713
2630107130300DANIELSR         1142734  0TNT FILES   0050000090000000000000000920712
2630107130300DANIELSR         1142734  0TNT FILES   0040000090000000000000000920712
2630207131000DANIELSR         1142734  0TNT FILES   0040000090000000000000000920713
2630207131000DANIELSR         1142734  0TNT FILES   0050000090000000000000000920713
2630307131630DANIELSR         1142734  0TNT FILES   0040000090000000000000000920713
2630307131630DANIELSR         1142734  0TNT FILES   0050000090000000000000000920713
2630407140300DANIELSR         1142734  0TNT FILES   0040000090000000000000000920714
2630407140300DANIELSR         1142734  0TNT FILES   0050000090000000000000000920714
2630507141000DANIELSR         1142734  0TNT FILES   0040000090000000000000000920714
2630507141000DANIELSR         1142734  0TNT FILES   0050000090000000000000000920714
2630607141630DANIELSR         1142734  0TNT FILES   0040000090000000000000000920714
2630607141630DANIELSR         1142734  0TNT FILES   0050000090000000000000000920714
2630707150300DANIELSR         1142734  0TNT FILES   0050000090000000000000000920715
2630707150300DANIELSR         1142734  0TNT FILES   0040000090000000000000000920715
2630907151000DANIELSR         1142734  0TNT FILES   0040000090000000000000000920715
2630907151000DANIELSR         1142734  0TNT FILES   0050000090000000000000000920715
2630807151000DANIELSR         1142734  0FILE SAVE   0050000520000000000000000920715
2631007151120OPER        000001000021  0            0 9    63   225290      0920715
2631107151512OPER        000001000021  0            0 9    12    41200      0920715
2631207151534OPER        000001000021  0CDC         0 9    63   225290      0920715
2631407151949CSS800       21477333303229            0040000010000000000000000920715
2631307151630DANIELSR         1142734  0TNT FILES   0040000090000000000000000920715
2631307151630DANIELSR         1142734  0TNT FILES   0050000090000000000000000920715
2631507160300DANIELSR         1142734  0TNT FILES   0040000090000000000000000920716
2631507160300DANIELSR         1142734  0TNT FILES   0050000090000000000000000920716
2631607161000DANIELSR         1142734  0TNT FILES   0040000090000000000000000920716
2631607161000DANIELSR         1142734  0TNT FILES   0050000090000000000000000920716
2631707161630DANIELSR         1142734  0TNT FILES   0040000090000000000000000920716
2631707161630DANIELSR         1142734  0TNT FILES   0050000090000000000000000920716
2631807170300DANIELSR         1142734  0TNT FILES   0040000090000000000000000920717
2631807170300DANIELSR         1142734  0TNT FILES   0050000090000000000000000920717
2631907171000DANIELSR         1142734  0TNT FILES   0040000090000000000000000920717
2631907171000DANIELSR         1142734  0TNT FILES   0050000090000000000000000920717
2632007172029DANIELSR    000001142734000TNT         0040000090000000000000000920717
2632007172029DANIELSR    000001142734000TNT         0050000090000000000000000920717
2632207180300DANIELSR         1142734  0TNT FILES   0040000090000000000000000920718
2632207180300DANIELSR         1142734  0TNT FILES   0050000090000000000000000920718
2632307181000DANIELSR         1142734  0TNT FILES   0040000090000000000000000920718
2632307181000DANIELSR         1142734  0TNT FILES   0050000090000000000000000920718
2632407181630DANIELSR         1142734  0TNT FILES   0040000090000000000000000920718
2632407181630DANIELSR         1142734  0TNT FILES   0050000090000000000000000920718
2632507190402DANIELSR         1142734  0TNT FILES   0040000090000000000000000920719
2632507190402DANIELSR         1142734  0TNT FILES   0050000090000000000000000920719
2632607191000DANIELSR         1142734  0TNT FILES   0040000090000000000000000920719
2632607191000DANIELSR         1142734  0TNT FILES   0050000090000000000000000920719
2632707191630DANIELSR         1142734  0TNT FILES   0040000090000000000000000920719
2632707191630DANIELSR         1142734  0TNT FILES   0050000090000000000000000920719
2632807200300DANIELSR         1142734  0TNT FILES   0050000090000000000000000920720
2632807200300DANIELSR         1142734  0TNT FILES   0040000090000000000000000920720
2632907201000DANIELSR         1142734  0TNT FILES   0040000090000000000000000920720
2632907201000DANIELSR         1142734  0TNT FILES   0050000090000000000000000920720
2633007201630DANIELSR         1142734  0TNT FILES   0040000090000000000000000920720
2633007201630DANIELSR         1142734  0TNT FILES   0050000090000000000000000920720
2633107210300DANIELSR         1142734  0TNT FILES   0040000090000000000000000920721
2633107210300DANIELSR         1142734  0TNT FILES   0050000090000000000000000920721
2633207211000DANIELSR         1142734  0TNT FILES   0050000090000000000000000920721
2633207211000DANIELSR         1142734  0TNT FILES   0040000090000000000000000920721
2633307211630DANIELSR         1142734  0TNT FILES   0040000090000000000000000920721
2633307211630DANIELSR         1142734  0TNT FILES   0050000090000000000000000920721
2633407220300DANIELSR         1142734  0TNT FILES   0040000090000000000000000920722
2633407220300DANIELSR         1142734  0TNT FILES   0050000090000000000000000920722
2633507221000DANIELSR         1142734  0TNT FILES   0040000090000000000000000920722
2633507221000DANIELSR         1142734  0TNT FILES   0050000090000000000000000920722
2633607221630DANIELSR         1142734  0TNT FILES   0040000090000000000000000920722
2633607221630DANIELSR         1142734  0TNT FILES   0050000090000000000000000920722
2633707230300DANIELSR         1142734  0TNT FILES   0040000090000000000000000920723
2633707230300DANIELSR         1142734  0TNT FILES   0050000090000000000000000920723
2633807231000DANIELSR         1142734  0TNT FILES   0040000090000000000000000920723
2633807231000DANIELSR         1142734  0TNT FILES   0050000090000000000000000920723
2633907231630DANIELSR         1142734  0TNT FILES   0040000090000000000000000920723
2633907231630DANIELSR         1142734  0TNT FILES   0050000090000000000000000920723
2634007240300DANIELSR         1142734  0TNT FILES   0040000090000000000000000920724
2634007240300DANIELSR         1142734  0TNT FILES   0050000090000000000000000920724
2634107241000DANIELSR         1142734  0TNT FILES   0040000090000000000000000920724
2634107241000DANIELSR         1142734  0TNT FILES   0050000090000000000000000920724
2634207241630DANIELSR         1142734  0TNT FILES   0040000090000000000000000920724
2634207241630DANIELSR         1142734  0TNT FILES   0050000090000000000000000920724
2634407250703DANIELSR    000001142734000TNT         1040000090000000000000000920725
2634407250703DANIELSR    000001142734000TNT         1050000090000000000000000920725
2634507251000DANIELSR         1142734  0TNT FILES   0040000090000000000000000920725
2634507251000DANIELSR         1142734  0TNT FILES   0050000090000000000000000920725
2634607251637DANIELSR         1142734  0TNT FILES   0040000090000000000000000920725
2634607251637DANIELSR         1142734  0TNT FILES   0050000090000000000000000920725
2634707260348DANIELSR         1142734  0TNT FILES   0050000090000000000000000920726
2634707260348DANIELSR         1142734  0TNT FILES   0040000090000000000000000920726
2634807261000DANIELSR         1142734  0TNT FILES   0050000090000000000000000920726
2634807261000DANIELSR         1142734  0TNT FILES   0040000090000000000000000920726
2634907261630DANIELSR         1142734  0TNT FILES   0040000090000000000000000920726
2634907261630DANIELSR         1142734  0TNT FILES   0050000090000000000000000920726
2635007270300DANIELSR         1142734  0TNT FILES   0050000090000000000000000920727
2635007270300DANIELSR         1142734  0TNT FILES   0040000090000000000000000920727
2635107271000DANIELSR         1142734  0TNT FILES   0040000090000000000000000920727
2635107271000DANIELSR         1142734  0TNT FILES   0050000090000000000000000920727
2635207271630DANIELSR         1142734  0TNT FILES   0040000090000000000000000920727
2635207271630DANIELSR         1142734  0TNT FILES   0050000090000000000000000920727
2635307280300DANIELSR         1142734  0TNT FILES   0040000090000000000000000920728
2635307280300DANIELSR         1142734  0TNT FILES   0050000090000000000000000920728
2635407281000DANIELSR         1142734  0TNT FILES   0040000090000000000000000920728
2635407281000DANIELSR         1142734  0TNT FILES   0050000090000000000000000920728
2635507281630DANIELSR         1142734  0TNT FILES   0040000090000000000000000920728
2635507281630DANIELSR         1142734  0TNT FILES   0050000090000000000000000920728
2635607290300DANIELSR         1142734  0TNT FILES   0040000090000000000000000920729
2635607290300DANIELSR         1142734  0TNT FILES   0050000090000000000000000920729
2635707291000DANIELSR         1142734  0TNT FILES   0040000090000000000000000920729
2635707291000DANIELSR         1142734  0TNT FILES   0050000090000000000000000920729
2635807291630DANIELSR         1142734  0TNT FILES   0040000090000000000000000920729
2635807291630DANIELSR         1142734  0TNT FILES   0050000090000000000000000920729
2635907300300DANIELSR         1142734  0TNT FILES   0040000090000000000000000920730
2635907300300DANIELSR         1142734  0TNT FILES   0050000090000000000000000920730
2636107301000DANIELSR         1142734  0TNT FILES   0040000090000000000000000920730
2636107301000DANIELSR         1142734  0TNT FILES   0050000090000000000000000920730
2636207301630DANIELSR         1142734  0TNT FILES   0040000090000000000000000920730
2636207301630DANIELSR         1142734  0TNT FILES   0050000090000000000000000920730
2636307310300DANIELSR         1142734  0TNT FILES   0040000090000000000000000920731
2636307310300DANIELSR         1142734  0TNT FILES   0050000090000000000000000920731
2636407311000DANIELSR         1142734  0TNT FILES   0040000090000000000000000920731
2636407311000DANIELSR         1142734  0TNT FILES   0050000090000000000000000920731
2644407010300DANIELSR         1142734  0TNT FILES   0050000090000000000000000930701
2644407010300DANIELSR         1142734  0TNT FILES   0040000090000000000000000930701
2644507011000DANIELSR         1142734  0TNT FILES   0040000090000000000000000930701
2644507011000DANIELSR         1142734  0TNT FILES   0050000090000000000000000930701
2644607011630DANIELSR         1142734  0TNT FILES   0040000090000000000000000930701
2644607011NIELSR         1142734  0TNT FILES   0050000090000000000000000930701
2644707020300DANIELSR         1142734  0TNT FILES   0040000090000000000000000930702
2644707020300DANIELSR         1142734  0TNT FILES   0050000090000000000000000930702
2644807021000DANIELSR         1142734  0TNT FILES   0050000090000000000000000930702
2644807021000DANIELSR         1142734  0TNT FILES   0040000090000000000000000930702
2644907021630DANIELSR         1142734  0TNT FILES   0040000090000000000000000930702
2644907021630DANIELSR         1142734  0TNT FILES   0050000090000000000000000930702
2645007030300DANIELSR         1142734  0TNT FILES   0050000090000000000000000930703
2645007030300DANIELSR         1142734  0TNT FILES   0040000090000000000000000930703
2645107031000DANIELSR         1142734  0TNT FILES   0050000090000000000000000930703
2645107031000DANIELSR         1142734  0TNT FILES   0040000090000000000000000930703
0145207031630DANIELSR    000000000000  0TNT FILES   0040000090000000000000000930703
0145207031630DANIELSR    000000000000  0TNT FILES   0050000090000000000000000930703
2645207031630DANIELSR         1142734  0TNT FILES   0040000090000000000000000930703
2645207031630DANIELSR         1142734  0TNT FILES   0050000090000000000000000930703
2645307040418DANIELSR         1142734  0TNT FILES   0050000090000000000000000930704
2645307040418DANIELSR         1142734  0TNT FILES   0040000090000000000000000930704
2645407041000DANIELSR         1142734  0TNT FILES   0040000090000000000000000930704
2645407041000DANIELSR         1142734  0TNT FILES   0050000090000000000000000930704
2645507041630DANIELSR         1142734  0TNT FILES   0040000090000000000000000930704
2645507041630DANIELSR         1142734  0TNT FILES   0050000090000000000000000930704
2645607050000JMS              34311162382105        01001   0      915      1930705
2645607050000JMS              34311162382105        011     1 10     0      0930705
2645707050300DANIELSR         1142734  0TNT FILES   0040000090000000000000000930705
2645707050300DANIELSR         1142734  0TNT FILES   0050000090000000000000000930705
2645807051000DANIELSR         1142734  0TNT FILES   0040000090000000000000000930705
2645807051000DANIELSR         1142734  0TNT FILES   0050000090000000000000000930705
2645907051630DANIELSR         1142734  0TNT FILES   0040000090000000000000000930705
2645907051630DANIELSR         1142734  0TNT FILES   0050000090000000000000000930705
2646007060300DANIELSR         1142734  0TNT FILES   0040000090000000000000000930706
2646007060300DANIELSR         1142734  0TNT FILES   0050000090000000000000000930706
2646107061000DANIELSR         1142734  0TNT FILES   0040000090000000000000000930706
2646107061000DANIELSR         1142734  0TNT FILES   0050000090000000000000000930706
2646207061630DANIELSR         1142734  0TNT FILES   0040000090000000000000000930706
2646207061630DANIELSR         1142734  0TNT FILES   0050000090000000000000000930706
2646307070300DANIELSR         1142734  0TNT FILES   0040000090000000000000000930707
2646307070300DANIELSR         1142734  0TNT FILES   0050000090000000000000000930707
2646407071000DANIELSR         1142734  0TNT FILES   0040000090000000000000000930707
2646407071000DANIELSR         1142734  0TNT FILES   0050000090000000000000000930707
2646507071630DANIELSR         1142734  0TNT FILES   0040000090000000000000000930707
2646507071630DANIELSR         1142734  0TNT FILES   0050000090000000000000000930707
2646607080300DANIELSR         1142734  0TNT FILES   0040000090000000000000000930708
2646607080300DANIELSR         1142734  0TNT FILES   0050000090000000000000000930708
2646707081000DANIELSR         1142734  0TNT FILES   0040000090000000000000000930708
2646707081000DANIELSR         1142734  0TNT FILES   0050000090000000000000000930708
2646807081630DANIELSR         1142734  0TNT FILES   0040000090000000000000000930708
2646807081630DANIELSR         1142734  0TNT FILES   0050000090000000000000000930708
2646907090300DANIELSR         1142734  0TNT FILES   0040000090000000000000000930709
2646907090300DANIELSR         1142734  0TNT FILES   0050000090000000000000000930709
2647007091000DANIELSR         1142734  0TNT FILES   0040000090000000000000000930709
2647007091000DANIELSR         1142734  0TNT FILES   0050000090000000000000000930709
2647107091630DANIELSR         1142734  0TNT FILES   0040000090000000000000000930709
2647107091630DANIELSR         1142734  0TNT FILES   0050000090000000000000000930709
2647207100300DANIELSR         1142734  0TNT FILES   0050000090000000000000000930710
2647207100300DANIELSR         1142734  0TNT FILES   0040000090000000000000000930710
2647307101000DANIELSR         1142734  0TNT FILES   0050000090000000000000000930710
2647307101000DANIELSR         1142734  0TNT FILES   0040000090000000000000000930710
2647407101630DANIELSR         1142734  0TNT FILES   0040000090000000000000000930710
2647407101630DANIELSR         1142734  0TNT FILES   0050000090000000000000000930710
2647507110525DANIELSR         1142734  0TNT FILES   0040000090000000000000000930711
2647507110525DANIELSR         1142734  0TNT FILES   0050000090000000000000000930711
2647607111000DANIELSR         1142734  0TNT FILES   0040000090000000000000000930711
2647607111000DANIELSR         1142734  0TNT FILES   0050000090000000000000000930711
2647707111630DANIELSR         1142734  0TNT FILES   0040000090000000000000000930711
2647707111630DANIELSR         1142734  0TNT FILES   0050000090000000000000000930711
2647807120300DANIELSR         1142734  0TNT FILES   0040000090000000000000000930712
2647807120300DANIELSR         1142734  0TNT FILES   0050000090000000000000000930712
2648007121630DANIELSR         1142734  0TNT FILES   0040000090000000000000000930712
2648007121630DANIELSR         1142734  0TNT FILES   0050000090000000000000000930712
2648107130300DANIELSR         1142734  0TNT FILES   0040000090000000000000000930713
2648107130300DANIELSR         1142734  0TNT FILES   0050000090000000000000000930713
2648207131000DANIELSR         1142734  0TNT FILES   0040000090000000000000000930713
2648207131000DANIELSR         1142734  0TNT FILES   0050000090000000000000000930713
2648307131630DANIELSR         1142734  0TNT FILES   0040000090000000000000000930713
2648307131630DANIELSR         1142734  0TNT FILES   0050000090000000000000000930713
2648407140300DANIELSR         1142734  0TNT FILES   0040000090000000000000000930714
2648407140300DANIELSR         1142734  0TNT FILES   0050000090000000000000000930714
2648507141000DANIELSR         1142734  0TNT FILES   0050000090000000000000000930714
2648507141000DANIELSR         1142734  0TNT FILES   0040000090000000000000000930714
2648607141630DANIELSR         1142734  0TNT FILES   0040000090000000000000000930714
2648607141630DANIELSR         1142734  0TNT FILES   0050000090000000000000000930714
2648707150300DANIELSR         1142734  0TNT FILES   0050000090000000000000000930715
2648707150300DANIELSR         1142734  0TNT FILES   0040000090000000000000000930715
2648907151000DANIELSR         1142734  0TNT FILES   0040000090000000000000000930715
2648907151000DANIELSR         1142734  0TNT FILES   0050000090000000000000000930715
2648807151000DANIELSR         1142734  0FILE SAVE   0050000550000000000000000980715
2649007151733MBETTY       44062500355229            0040000010000000000000000930715
2649107151630DANIELSR         1142734  0TNT FILES   0040000090000000000000000930715
2649107151630DANIELSR         1142734  0TNT FILES   0050000090000000000000000930715
2649207160300DANIELSR         1142734  0TNT FILES   0050000090000000000000000930716
2649207160300DANIELSR         1142734  0TNT FILES   0040000090000000000000000930716
2649307161000DANIELSR         1142734  0TNT FILES   0040000090000000000000000930716
2649307161000DANIELSR         1142734  0TNT FILES   0050000090000000000000000930716
2649407161630DANIELSR         1142734  0TNT FILES   0040000090000000000000000930716
2649407161630DANIELSR         1142734  0TNT FILES   0050000090000000000000000930716
2649507170300DANIELSR         1142734  0TNT FILES   0040000090000000000000000930717
2649507170300DANIELSR         1142734  0TNT FILES   0050000090000000000000000930717
2649607171000DANIELSR         1142734  0TNT FILES   0050000090000000000000000930717
2649607171000DANIELSR         1142734  0TNT FILES   0040000090000000000000000930717
2649707171630DANIELSR         1142734  0TNT FILES   0040000090000000000000000930717
2649707171630DANIELSR         1142734  0TNT FILES   0050000090000000000000000930717
2649807180356DANIELSR         1142734  0TNT FILES   0050000090000000000000000930718
2649807180356DANIELSR         1142734  0TNT FILES   0040000090000000000000000930718
2649907181000DANIELSR         1142734  0TNT FILES   0040000090000000000000000930718
2649907181000DANIELSR         1142734  0TNT FILES   0050000090000000000000000930718
2650007181630DANIELSR         1142734  0TNT FILES   0040000090000000000000000930718
2650007181630DANIELSR         1142734  0TNT FILES   0050000090000000000000000930718
2650107190300DANIELSR         1142734  0TNT FILES   0050000090000000000000000930719
2650107190300DANIELSR         1142734  0TNT FILES   0040000090000000000000000930719
2650207191000DANIELSR         1142734  0TNT FILES   0040000090000000000000000930719
2650207191000DANIELSR         1142734  0TNT FILES   0050000090000000000000000930719
2650307191630DANIELSR         1142734  0TNT FILES   0040000090000000000000000930719
2650307191630DANIELSR         1142734  0TNT FILES   0050000190000000000000000930719
2650407200300DANIELSR         1142734  0TNT FILES   0040000090000000000000000930720
2650407200300DANIELSR         1142734  0TNT FILES   0050000090000000000000000930720
2650507201000DANIELSR         1142734  0TNT FILES   0040000090000000000000000930720
2650507201000DANIELSR         1142734  0TNT FILES   0050000090000000000000000930720
2650607201630DANIELSR         1142734  0TNT FILES   0040000090000000000000000930720
2650607201630DANIELSR         1142734  0TNT FILES   0050000090000000000000000930720
2650707210300DANIELSR         1142734  0TNT FILES   0040000090000000000000000930721
2650707210300DANIELSR         1142734  0TNT FILES   0050000090000000000000000930721
2650807211000DANIELSR         1142734  0TNT FILES   0040000090000000000000000930721
2650807211000DANIELSR         1142734  0TNT FILES   0050000090000000000000000930721
2650907211630DANIELSR         1142734  0TNT FILES   0040000090000000000000000930721
2650907211630DANIELSR         1142734  0TNT FILES   0050000090000000000000000930721
2651007220300DANIELSR         1142734  0TNT FILES   0040000090000000000000000930722
2651007220300DANIELSR         1142734  0TNT FILES   0050000090000000000000000930722
2651107221000DANIELSR         1142734  0TNT FILES   0040000090000000000000000930722
2651107221000DANIELSR         1142734  0TNT FILES   0050000090000000000000000930722
2651207221630DANIELSR         1142734  0TNT FILES   0040000090000000000000000930722
2651207221630DANIELSR         1142734  0TNT FILES   0050000090000000000000000930722
2651307230300DANIELSR         1142734  0TNT FILES   0040000090000000000000000930723
2651307230300DANIELSR         1142734  0TNT FILES   0050000090000000000000000930723
2651407231000DANIELSR         1142734  0TNT FILES   0050000090000000000000000930723
2651407231000DANIELSR         1142734  0TNT FILES   0040000090000000000000000930723
2651507231630DANIELSR         1142734  0TNT FILES   0040000090000000000000000930723
2651507231630DANIELSR         1142734  0TNT FILES   0050000090000000000000000930723
2651607240300DANIELSR         1142734  0TNT FILES   0050000090000000000000000930724
2651607240300DANIELSR         1142734  0TNT FILES   0040000090000000000000000930724
2651707241000DANIELSR         1142734  0TNT FILES   0040000090000000000000000930724
2651707241000DANIELSR         1142734  0TNT FILES   0050000090000000000000000930724
2651807241630DANIELSR         1142734  0TNT FILES   0040000090000000000000000930724
2651807241630DANIELSR         1142734  0TNT FILES   0050000090000000000000000930724
2651907250347DANIELSR         1142734  0TNT FILES   0050000090000000000000000930725
2651907250347DANIELSR         1142734  0TNT FILES   0040000090000000000000000930725
2652007251000DANIELSR         1142734  0TNT FILES   0040000090000000000000000930725
2652007251000DANIELSR         1142734  0TNT FILES   0050000090000000000000000930725
2652107251630DANIELSR         1142734  0TNT FILES   0040000090000000000000000930725
2652107251630DANIELSR         1142734  0TNT FILES   0050000090000000000000000930725
2652207260000JMS              34311162382105        01001   0      920      1930726
2652207260000JMS              34311162382105        011     1 10     0      0930726
2652307260300DANIELSR         1142734  0TNT FILES   0050000090000000000000000930726
2652307260300DANIELSR         1142734  0TNT FILES   0040000090000000000000000930726
2652407261000DANIELSR         1142734  0TNT FILES   0040000090000000000000000930726
2652407261000DANIELSR         1142734  0TNT FILES   0050000090000000000000000930726
2652507261630DANIELSR         1142734  0TNT FILES   0040000090000000000000000930726
2652507261630DANIELSR         1142734  0TNT FILES   0050000090000000000000000930726
2652607270300DANIELSR         1142734  0TNT FILES   0040000090000000000000000930727
2652607270300DANIELSR         1142734  0TNT FILES   0050000090000000000000000930727
2652707271000DANIELSR         1142734  0TNT FILES   0040000090000000000000000930727
2652707271000DANIELSR         1142734  0TNT FILES   0050000090000000000000000930727
2652807271630DANIELSR         1142734  0TNT FILES   0040000090000000000000000930727
2652807271630DANIELSR         1142734  0TNT FILES   0050000090000000000000000930727
2652907280300DANIELSR         1142734  0TNT FILES   0040000090000000000000000930728
2652907280300DANIELSR         1142734  0TNT FILES   0050000090000000000000000930728
2653107281000DANIELSR         1142734  0TNT FILES   0040000090000000000000000930728
2653107281000DANIELSR         1142734  0TNT FILES   0050000090000000000000000930728
2653207281630DANIELSR         1142734  0TNT FILES   0040000090000000000000000930728
2653207281630DANIELSR         1142734  0TNT FILES   0050000090000000000000000930728
2653307290300DANIELSR         1142734  0TNT FILES   0040000090000000000000000930729
2653307290300DANIELSR         1142734  0TNT FILES   0050000090000000000000000930729
2653407291000DANIELSR         1142734  0TNT FILES   0040000090000000000000000930729
2653407291000DANIELSR         1142734  0TNT FILES   0050000090000000000000000930729
2653507291630DANIELSR         1142734  0TNT FILES   0040000090000000000000000930729
2653507291630DANIELSR         1142734  0TNT FILES   0050000090000000000000000930729
2653607300300DANIELSR         1142734  0TNT FILES   0040000090000000000000000930730
2653607300300DANIELSR         1142734  0TNT FILES   0050000090000000000000000930730
2653707301000DANIELSR         1142734  0TNT FILES   0050000090000000000000000930730
2653707301000DANIELSR         1142734  0TNT FILES   0040000090000000000000000930730
2653807301630DANIELSR         1142734  0TNT FILES   0040000090000000000000000930730
2653807301630DANIELSR         1142734  0TNT FILES   0050000090000000000000000930730
2653907310300DANIELSR         1142734  0TNT FILES   0040000090000000000000000930731
2653907310300DANIELSR         1142734  0TNT FILES   0050000090000000000000000930731
2654007311000DANIELSR         1142734  0TNT FILES   0050000090000000000000000930731
2654007311000DANIELSR         1142734  0TNT FILES   0040000090000000000000000930731
2658407010300DANIELSR         1142734  0TNT FILES   0040000090000000000000000940701
2658407010300DANIELSR         1142734  0TNT FILES   0050000090000000000000000940701
2658507011000DANIELSR         1142734  0TNT FILES   0040000090000000000000000940701
2658507011000DANIELSR         1142734  0TNT FILES   0050000090000000000000000940701
2658607011635DANIELSR         1142734  0TNT FILES   0040000090000000000000000940701
2658607011635DANIELSR         1142734  0TNT FILES   0050000090000000000000000940701
2658707020300DANIELSR         1142734  0TNT FILES   0050000090000000000000000940702
2658707020300DANIELSR         1142734  0TNT FILES   0040000090000000000000000940702
2658807021000DANIELSR         1142734  0TNT FILES   0040000090000000000000000940702
2658807021000DANIELSR         1142734  0TNT FILES   0050000090000000000000000940702
2658907021630DANIELSR         1142734  0TNT FILES   0040000090000000000000000940702
2658907021630DANIELSR         1142734  0TNT FILES   0050000090000000000000000940702
2659007030300DANIELSR         1142734  0TNT FILES   0050000090000000000000000940703
2659007030300DANIELSR         1142734  0TNT FILES   0040000090000000000000000940703
2659107031000DANIELSR         1142734  0TNT FILES   0040000090000000000000000940703
2659107031000DANIELSR         1142734  0TNT FILES   0050000090000000000000000940703
2659207031630DANIELSR         1142734  0TNT FILES   0040000090000000000000000940703
2659207031630DANIELSR         1142734  0TNT FILES   0050000090000000000000000940703
2659307040300DANIELSR         1142734  0TNT FILES   0050000090000000000000000940704
2659307040300DANIELSR         1142734  0TNT FILES   0040000090000000000000000940704
2659407041000DANIELSR         1142734  0TNT FILES   0040000090000000000000000940704
2659407041000DANIELSR         1142734  0TNT FILES   0050000090000000000000000940704
2659507041630DANIELSR         1142734  0TNT FILES   0040000090000000000000000940704
2659507041630DANIELSR         1142734  0TNT FILES   0050000090000000000000000940704
2659607050300DANIELSR         1142734  0TNT FILES   0050000090000000000000000940705
2659607050300DANIELSR         1142734  0TNT FILES   0040000090000000000000000940705
2659707051000DANIELSR         1142734  0TNT FILES   0040000090000000000000000940705
2659707051000DANIELSR         1142734  0TNT FILES   0050000090000000000000000940705
2659807051041SRA              1215254  0COPY FILES  0040000560000000000000000940705
2659807051041SRA              1215254  0COPY FILES  0050000280000000000000000940705
2659907051630DANIELSR         1142734  0TNT FILES   0040000090000000000000000940705
2659907051630DANIELSR         1142734  0TNT FILES   0050000090000000000000000940705
2660007060300DANIELSR         1142734  0TNT FILES   0040000090000000000000000940706
2660007060300DANIELSR         1142734  0TNT FILES   0050000090000000000000000940706
2660107061000DANIELSR         1142734  0TNT FILES   0040000090000000000000000940706
2660107061000DANIELSR         1142734  0TNT FILES   0050000090000000000000000940706
2660207061630DANIELSR         1142734  0TNT FILES   0040000090000000000000000940706
2660207061630DANIELSR         1142734  0TNT FILES   0050000090000000000000000940706
2660307070300DANIELSR         1142734  0TNT FILES   0050000090000000000000000940707
2660307070300DANIELSR         1142734  0TNT FILES   0040000090000000000000000940707
2660407071000DANIELSR         1142734  0TNT FILES   0040000090000000000000000940707
2660407071000DANIELSR         1142734  0TNT FILES   0050000090000000000000009940707
2660407071000DANIELSR         1142734  0TNT FILES   0050000090000000000000000940707
2660507071630DANIELSR         1142734  0TNT FILES   0040000090000000000000000940707
2660507071630DANIELSR         1142734  0TNT FILES   0050000090000000000000000940707
2660607080300DANIELSR         1142734  0TNT FILES   0040000090000000000000000940708
2660607080300DANIELSR         1142734  0TNT FILES   0050000090000000000000000940708
2660707081000DANIELSR         1142734  0TNT FILES   0040000090000000000000000940708
2660707081000DANIELSR         1142734  0TNT FILES   0050000090000000000000000940708
2660807081630DANIELSR         1142734  0TNT FILES   0040000090000000000000000940708
2660807081630DANIELSR         1142734  0TNT FILES   0050000090000000000000000940708
2660907090300DANIELSR         1142734  0TNT FILES   0050000090000000000000000940709
2660907090300DANIELSR         1142734  0TNT FILES   0040000090000000000000000940709
2661007091000DANIELSR         1142734  0TNT FILES   0040000090000000000000000940709
2661007091000DANIELSR         1142734  0TNT FILES   0050000090000000000000000940709
2661107091630DANIELSR         1142734  0TNT FILES   0040000090000000000000000940709
2661107091630DANIELSR         1142734  0TNT FILES   0050000090000000000000000940709
2661207100314DANIELSR         1142734  0TNT FILES   0050000090000000000000000940710
2661207100314DANIELSR         1142734  0TNT FILES   0040000090000000000000000940710
2661307101000DANIELSR         1142734  0TNT FILES   0050000090000000000000000940710
2661307101000DANIELSR         1142734  0TNT FILES   0040000090000000000000000940710
2661407101630DANIELSR         1142734  0TNT FILES   0050000090000000000000000940710
2661407101630DANIELSR         1142734  0TNT FILES   0040000090000000000000000940710
2661507110300DANIELSR         1142734  0TNT FILES   0050000090000000000000000940711
2661507110300DANIELSR         1142734  0TNT FILES   0040000090000000000000000940711
2661607111000DANIELSR         1142734  0TNT FILES   0040000090000000000000000940711
2661607111000DANIELSR         1142734  0TNT FILES   0050000090000000000000000940711
2661707111630DANIELSR         1142734  0TNT FILES   0040000090000000000000000940711
2661707111630DANIELSR         1142734  0TNT FILES   0050000090000000000000000940711
2661807120300DANIELSR         1142734  0TNT FILES   0040000090000000000000000940712
2661807120300DANIELSR         1142734  0TNT FILES   0050000090000000000000000940712
2661907121000DANIELSR         1142734  0TNT FILES   0040000090000000000000000930712
2661907121000DANIELSR         1142734  0TNT FILES   0050000090000000000000000930712
2662007121630DANIELSR         1142734  0TNT FILES   0040000090000000000000000940712
2662007121630DANIELSR         1142734  0TNT FILES   0050000090000000000000000940712
2662107130300DANIELSR         1142734  0TNT FILES   0040000090000000000000000940713
2662107130300DANIELSR         1142734  0TNT FILES   0050000090000000000000000940713
2662207131000DANIELSR         1142734  0TNT FILES   0040000090000000000000000940713
2662207131000DANIELSR         1142734  0TNT FILES   0050000090000000000000000940713
2662307131630DANIELSR         1142734  0TNT FILES   0040000090000000000000000940713
2662307131630DANIELSR         1142734  0TNT FILES   0050000090000000000000000940713
2662407140300DANIELSR         1142734  0TNT FILES   0050000090000000000000000940714
2662407140300DANIELSR         1142734  0TNT FILES   0040000090000000000000000940714
2662507141000DANIELSR         1142734  0TNT FILES   0040000090000000000000000940714
2662507141000DANIELSR         1142734  0TNT FILES   0050000090000000000000000940714
2662607141630DANIELSR         1142734  0TNT FILES   0050000090000000000000000940714
2662607141630DANIELSR         1142734  0TNT FILES   0040000090000000000000000940714
2662707150300DANIELSR         1142734  0TNT FILES   0040000090000000000000000940715
2662707150300DANIELSR         1142734  0TNT FILES   0050000090000000000000000940715
2662907151000DANIELSR         1142734  0TNT FILES   0040000090000000000000000940715
2662907151000DANIELSR         1142734  0TNT FILES   0050000090000000000000000940715
2662807151000DANIELSR         1142734  0FILE SAVE   0050000580000000000000000940715
2663007151630DANIELSR         1142734  0TNT FILES   0040000090000000000000000940715
2663007151630DANIELSR         1142734  0TNT FILES   0050000090000000000000000940715
2663107160300DANIELSR         1142734  0TNT FILES   0050000090000000000000000940716
2663107160300DANIELSR         1142734  0TNT FILES   0040000090000000000000000940716
2663207161006DANIELSR         1142734  0TNT FILES   0040000090000000000000000940716
2663207161006DANIELSR         1142734  0TNT FILES   0050000090000000000000000940716
2663307161630DANIELSR         1142734  0TNT FILES   0040000090000000000000000940716
2663307161630DANIELSR         1142734  0TNT FILES   0050000090000000000000000940716
2663407170355DANIELSR         1142734  0TNT FILES   0040000090000000000000000940717
2663407170355DANIELSR         1142734  0TNT FILES   0050000090000000000000000940717
2663507171000DANIELSR         1142734  0TNT FILES   0050000090000000000000000940717
2663507171000DANIELSR         1142734  0TNT FILES   0040000090000000000000000940717
2663607171630DANIELSR         1142734  0TNT FILES   0040000090000000000000000940717
2663607171630DANIELSR         1142734  0TNT FILES   0050000090000000000000000940717
2663707180000JMS              34311162382105        0 1     1 10000000       940718
2663807180300DANIELSR         1142734  0TNT FILES   0040000090000000000000000940718
2663807180300DANIELSR         1142734  0TNT FILES   0050000090000000000000000940718
2663907181000DANIELSR         1142734  0TNT FILES   0040000090000000000000000940718
2663907181000DANIELSR         1142734  0TNT FILES   0050000090000000000000000940718
2664007181630DANIELSR         1142734  0TNT FILES   0040000090000000000000000940718
2664007181630DANIELSR         1142734  0TNT FILES   0050000090000000000000000940718
2664107190300DANIELSR         1142734  0TNT FILES   0040000090000000000000000940719
2664107190300DANIELSR         1142734  0TNT FILES   0050000090000000000000000940719
2664207191000DANIELSR         1142734  0TNT FILES   0040000090000000000000000940719
2664207191000DANIELSR         1142734  0TNT FILES   0050000090000000000000000940719
2664307191630DANIELSR         1142734  0TNT FILES   0040000090000000000000000940719
2664307191630DANIELSR         1142734  0TNT FILES   0050000090000000000000000940719
2664407200300DANIELSR         1142734  0TNT FILES   0040000090000000000000000940720
2664407200300DANIELSR         1142734  0TNT FILES   0050000090000000000000000940720
2664507201000DANIELSR         1142734  0TNT FILES   0050000090000000000000000940720
2664507201000DANIELSR         1142734  0TNT FILES   0040000090000000000000000940720
2664607201630DANIELSR         1142734  0TNT FILES   0040000090000000000000000940720
2664607201630DANIELSR         1142734  0TNT FILES   0050000090000000000000000940720
2664707210300DANIELSR         1142734  0TNT FILES   0040000090000000000000000940721
2664707210300DANIELSR         1142734  0TNT FILES   0050000090000000000000000940721
2664807211000DANIELSR         1142734  0TNT FILES   0040000090000000000000000940721
2664807211000DANIELSR         1142734  0TNT FILES   0050000090000000000000000940721
2664907211630DANIELSR         1142734  0TNT FILES   0050000090000000000000000940721
2664907211630DANIELSR         1142734  0TNT FILES   0040000090000000000000000940721
2665007220300DANIELSR         1142734  0TNT FILES   0040000090000000000000000940722
2665007220300DANIELSR         1142734  0TNT FILES   0050000090000000000000000940722
2665207221000DANIELSR         1142734  0TNT FILES   0040000090000000000000000940722
2665207221000DANIELSR         1142734  0TNT FILES   0050000090000000000000000940722
2665307221630DANIELSR         1142734  0TNT FILES   0040000090000000000000000940722
2665307221630DANIELSR         1142734  0TNT FILES   0050000090000000000000000940722
2665407230300DANIELSR         1142734  0TNT FILES   0040000090000000000000000940723
2665407230300DANIELSR         1142734  0TNT FILES   0050000090000000000000000940723
2665507231000DANIELSR         1142734  0TNT FILES   0040000090000000000000000940723
2665507231000DANIELSR         1142734  0TNT FILES   0050000090000000000000000940723
2665607231630DANIELSR         1142734  0TNT FILES   0040000090000000000000000940723
2665607231630DANIELSR         1142734  0TNT FILES   0050000090000000000000000940723
2665707240300DANIELSR         1142734  0TNT FILES   0040000090000000000000000940724
2665707240300DANIELSR         1142734  0TNT FILES   0050000090000000000000000940724
2665807241000DANIELSR         1142734  0TNT FILES   0050000090000000000000000940724
2665807241000DANIELSR         1142734  0TNT FILES   0040000090000000000000000940724
2665907241630DANIELSR         1142734  0TNT FILES   0040000090000000000000000940724
2665907241630DANIELSR         1142734  0TNT FILES   0050000090000000000000000940724
2666007250300DANIELSR         1142734  0TNT FILES   0040000090000000000000000940725
2666007250300DANIELSR         1142734  0TNT FILES   0050000090000000000000000940725
2666107251000DANIELSR         1142734  0TNT FILES   0040000090000000000000000940725
2666107251000DANIELSR         1142734  0TNT FILES   0050000090000000000000000940725
2666207251630DANIELSR         1142734  0TNT FILES   0040000090000000000000000940725
2666207251630DANIELSR         1142734  0TNT FILES   0050000090000000000000000940725
2666307260300DANIELSR         1142734  0TNT FILES   0040000090000000000000000940726
2666307260300DANIELSR         1142734  0TNT FILES   0050000090000000000000000940726
2666407261000DANIELSR         1142734  0TNT FILES   0040000090000000000000000940726
2666407261000DANIELSR         1142734  0TNT FILES   0050000090000000000000000940726
2666507261630DANIELSR         1142734  0TNT FILES   0040000090000000000000000940726
2666507261630DANIELSR         1142734  0TNT FILES   0050000090000000000000000940726
2666607270300DANIELSR         1142734  0TNT FILES   0040000090000000000000000940727
2666607270300DANIELSR         1142734  0TNT FILES   0050000090000000000000000940727
2666707271000DANIELSR         1142734  0TNT FILES   0040000090000000000000000940727
2666707271000DANIELSR         1142734  0TNT FILES   0050000090000000000000000940727
2666807271630DANIELSR         1142734  0TNT FILES   0040000090000000000000000940726
2666807271630DANIELSR         1142734  0TNT FILES   0050000090000000000000000940726
2666907280300DANIELSR         1142734  0TNT FILES   0050000090000000000000000940728
2666907280300DANIELSR         1142734  0TNT FILES   0040000090000000000000000940728
2667007281000DANIELSR         1142734  0TNT FILES   0040000090000000000000000940728
2667007281000DANIELSR         1142734  0TNT FILES   0050000090000000000000000940728
2667107281630DANIELSR         1142734  0TNT FILES   0040000090000000000000000940728
2667107281630DANIELSR         1142734  0TNT FILES   0050000090000000000000000940728
2667207290300DANIELSR         1142734  0TNT FILES   0050000090000000000000000940729
2667207290300DANIELSR         1142734  0TNT FILES   0040000090000000000000000940729
2667307291000DANIELSR         1142734  0TNT FILES   0040000090000000000000000940729
2667307291000DANIELSR         1142734  0TNT FILES   0050000090000000000000000940729
2667407291630DANIELSR         1142734  0TNT FILES   0040000090000000000000000940729
2667407291630DANIELSR         1142734  0TNT FILES   0050000090000000000000000940729
2667507300300DANIELSR         1142734  0TNT FILES   0050000090000000000000000940730
2667507300300DANIELSR         1142734  0TNT FILES   0040000090000000000000000940730
2667607301000DANIELSR         1142734  0TNT FILES   0050000090000000000000000940730
2667607301000DANIELSR         1142734  0TNT FILES   0040000090000000000000000940730
2667707301630DANIELSR         1142734  0TNT FILES   0040000090000000000000000940730
2667707301630DANIELSR         1142734  0TNT FILES   0050000090000000000000000940730
2667807310300DANIELSR         1142734  0TNT FILES   0040000090000000000000000940731
2667807310300DANIELSR         1142734  0TNT FILES   0050000090000000000000000940731
2667907311000DANIELSR         1142734  0TNT FILES   0040000090000000000000000940731
2667907311000DANIELSR         1142734  0TNT FILES   0050000090000000000000000940731
V
jD&