2681208031631TECHSERV     21476261167201            0040000010000000000000000890803
2681308031639TYMRES5      10056670610229            0040002880000000000000000890804
2681608091717TNSM         27514745542228            0040000470000000000000000890809
2681708151000DANIELSR         1142734  0FILE SAVE   0050000420000000000000000890815
