2691707101346SCOHEN      ZACHARYE    200            0000000000000000000000000000000
2691807101534NTS         ZACHARYE      3            0000000000000000000000000000000
2692107111148NTS         ZACHARYE      3BSF NET     0000000000000000000000000000000
2625906301630DANIELSR    JONESJ        0TNT FILES   0000000000000000000000000000000
2627407050424DANIELSR    CAMARA        0TNT FILES   0000000000000000000000000000000
2628507090128DANIELSR    HOONINGK      0TNT FILES   0000000000000000000000000000000
2628607090128DANIELSR    HOONINGK      0TNT FILES   0000000000000000000000000000000
2628807090300DANIELSR    CALDERONJ     0TNT FILES   0000000000000000000000000000000
2632107180120DANIELSR    CALDERONJ     0TNT FILES   0000000000000000000000000000000
2634307250300DANIELSR    HOONINGK      0TNT FILES   0000000000000000000000000000000
2647907121000DANIELSR    MMARTIN       0TNT FILES   0000000000000000000000000000000
2665107220301DANIELSR    HIGHTOWER     0TNT FILES   0000000000000000000000000000000
