2695810221710SIRTITAS    DKEITH      228            0000000000000000000000000000000
2605210241737JOHNSONP    WILKEC      228            0000000000000000000000000000000
2655409281333SLIDTM      JONESJ       38NONE        0000000000000000000000000000000
2662610220259DANIELSR    ALLEGRO       0TNT FILES   0000000000000000000000000000000
2662710220259DANIELSR    ALLEGRO       0TNT FILES   0000000000000000000000000000000
2665610301508DANIELSR    HIGHTOWER     0TNT FILES   0000000000000000000000000000000
2665810301508DANIELSR    HIGHTOWER     0TNT FILES   0000000000000000000000000000000
2665910301510DANIELSR    HIGHTOWER     0TNT FILES   0000000000000000000000000000000
2666110310736DANIELSR    HOONINGK      0TNT FILES   0000000000000000000000000000000
2666210311000DANIELSR    ZACHARYE      0TNT FILES   0000000000000000000000000000000
