2600805031111EXXNET      HIGHTOWER   229MRSA        0000000000000000000000000000000
2600905061243JLAW        DKEITH      229            0000000000000000000000000000000
2601205231525RHOWLAND    HIGHTOWER   229            0000000000000000000000000000000
2612905231900DANIELSR    CAMARA        0TNT FILES   0000000000000000000000000000000
2614805291614DANIELSR    HIGHTOWER     0TNT FILES   0000000000000000000000000000000
2614905291900DANIELSR    HIGHTOWER     0TNT FILES   0000000000000000000000000000000
2626905061000DANIELSR    CAMARA        0TNT FILES   0000000000000000000000000000000
2645805211630DANIELSR    JONESJ        0TNT FILES   0000000000000000000000000000000
