2696711281747TNSM        JONESJ      228            0000000000000000000000000000000
2696811291717TNSM        JONESJ      228            0000000000000000000000000000000
2605711020941ONTFRA      WILKEC      228            0000000000000000000000000000000
2666310311630DANIELSR    CAMARA        0TNT FILES   0000000000000000000000000000000
2666410311800DANIELSR    CAMARA        0TNT FILES   0000000000000000000000000000000
2666511010435DANIELSR    CAMARA        0TNT FILES   0000000000000000000000000000000
2666611011000DANIELSR    CAMARA        0TNT FILES   0000000000000000000000000000000
2668711071630DANIELSR    CAMARA        0TNT FILES   0000000000000000000000000000000
2669711110300DANIELSR    HIGHTOWER     0TNT FILES   0000000000000000000000000000000
2669411100300DANIELSR    HIGHTOWER     0TNT FILES   0000000000000000000000000000000
2669511101000DANIELSR    HIGHTOWER     0TNT FILES   0000000000000000000000000000000
2669611101630DANIELSR    HIGHTOWER     0TNT FILES   0000000000000000000000000000000
2673411220602DANIELSR    JONESJ        0TNT FILES   0000000000000000000000000000000
2673611221630DANIELSR    JONESJ        0TNT FILES   0000000000000000000000000000000
2682611010753DANIELSR    HIGHTOWER     0TNT FILES   0000000000000000000000000000000
2682711010753DANIELSR    HIGHTOWER     0TNT FILES   0000000000000000000000000000000
2682811011630DANIELSR    HIGHTOWER     0TNT FILES   0000000000000000000000000000000
2683011021000DANIELSR    CAINK         0TNT FILES   0000000000000000000000000000000
2683411031000DANIELSR    CAMARA        0TNT FILES   0000000000000000000000000000000
2690211240300DANIELSR    TONYR         0TNT FILES   0000000000000000000000000000000
