2693409040806WRFS        HIGHTOWER   229            0000000000000000000000000000000
2603309021146TNSM        WILKEC      228            0000000000000000000000000000000
2603609101434SIRTITAS    ZACHARYE    228            0000000000000000000000000000000
2603709110945SIRTITAS    JONESJ      228            0000000000000000000000000000000
2603809121333SIRTITAS    WILKEC      228            0000000000000000000000000000000
2603909131310SIRTITAS    ZACHARYE    228            0000000000000000000000000000000
2652209180300DANIELSR    HIGHTOWER     0TNT FILES   0000000000000000000000000000000
2670509211909FLMTECH     THROWERM    229            0000000000000000000000000000000
2682309151000DANIELSR    HIGHTOWER     0TNT FILES   0000000000000000000000000000000
2682109150300DANIELSR    HIGHTOWER     0TNT FILES   0000000000000000000000000000000
2681609131630DANIELSR    HIGHTOWER     0TNT FILES   0000000000000000000000000000000
2681709140300DANIELSR    HIGHTOWER     0TNT FILES   0000000000000000000000000000000
2681809141000DANIELSR    HIGHTOWER     0TNT FILES   0000000000000000000000000000000
2682209151002PAPDEV      SILVAM      229            0000000000000000000000000000000
2682409151630DANIELSR    SILVAM        0TNT FILES   0000000000000000000000000000000
2682509162319DANIELSR    SILVAM        0TNT FILES   0000000000000000000000000000000
2682609162319DANIELSR    SILVAM        0TNT FILES   0000000000000000000000000000000
2682709162319DANIELSR    SILVAM        0TNT FILES   0000000000000000000000000000000
2682809170300DANIELSR    SILVAM        0TNT FILES   0000000000000000000000000000000
2682909171000DANIELSR    SILVAM        0TNT FILES   0000000000000000000000000000000
2683009171630DANIELSR    SILVAM        0TNT FILES   0000000000000000000000000000000
2683109180300DANIELSR    SILVAM        0TNT FILES   0000000000000000000000000000000
2683209181000DANIELSR    SILVAM        0TNT FILES   0000000000000000000000000000000
2683309181630DANIELSR    SILVAM        0TNT FILES   0000000000000000000000000000000
2683509190353DANIELSR    SILVAM        0TNT FILES   0000000000000000000000000000000
2683609191000DANIELSR    SILVAM        0TNT FILES   0000000000000000000000000000000
2683709191630DANIELSR    SILVAM        0TNT FILES   0000000000000000000000000000000
