2622704230300DANIELSR    HOONINGK      0TNT FILES   0000000000000000000000000000000
2622604221814DBVAL       HIGHTOWER   201            1000000000000000000000000000000
2622804231437DANIELSR    HIGHTOWER     0TNT FILES   0000000000000000000000000000000
2622904231630DANIELSR    MERLOSJ       0TNT FILES   0000000000000000000000000000000
2623004240300DANIELSR    HOONINGK      0TNT FILES   0000000000000000000000000000000
2624104271630DANIELSR    ZACHARYE      0TNT FILES   0000000000000000000000000000000
