2691206211051DAUERBACH   HIGHTOWER   229            0000000000000000000000000000000
2619206111000DANIELSR    CAMARA        0TNT FILES   0000000000000000000000000000000
2619606120300DANIELSR    CALDERONJ     0TNT FILES   0000000000000000000000000000000
2622606201900DANIELSR    CALDERONJ     0TNT FILES   0000000000000000000000000000000
2625306291402DANIELSR    CAMARA        0TNT FILES   0000000000000000000000000000000
2625406291402DANIELSR    CAMARA        0TNT FILES   0000000000000000000000000000000
2625506291402DANIELSR    CAMARA        0TNT FILES   0000000000000000000000000000000
