2606712162001CSS800      MALCOLMJ    229            0000000000000000000000000000000
2677412050300DANIELSR    CAMARA        0TNT FILES   0000000000000000000000000000000
2677312041630DANIELSR    HIGHTOWER     0TNT FILES   0000000000000000000000000000000
2679712121601DANIELSR    CAMARA        0TNT FILES   0000000000000000000000000000000
2679812121630DANIELSR    CAMARA        0TNT FILES   0000000000000000000000000000000
2680012131000DANIELSR    CAMARA        0TNT FILES   0000000000000000000000000000000
2680112131630DANIELSR    EBROWN        0TNT FILES   0000000000000000000000000000000
2680212140300DANIELSR    EBROWN        0TNT FILES   0000000000000000000000000000000
2680312141000DANIELSR    EBROWN        0TNT FILES   0000000000000000000000000000000
2680412141946DANIELSR    EBROWN        0TNT FILES   0000000000000000000000000000000
2680612150300DANIELSR    HOONINGK      0TNT FILES   0000000000000000000000000000000
2680912151000DANIELSR    HIGHTOWER     0TNT FILES   0000000000000000000000000000000
2680512150737SIRTITAS    HIGHTOWER   228            0000000000000000000000000000000
2680712151302SIRTITAS    HIGHTOWER   228            0000000000000000000000000000000
