2636908020646DANIELSR    CAMARA        0TNT FILES   0000000000000000000000000000000
2640408131036DANIELSR    JONESJ        0TNT FILES   0000000000000000000000000000000
2640308131035DANIELSR    JONESJ        0TNT FILES   0000000000000000000000000000000
2642108171501FISBEIN     CALDERONJ   228            0000000000000000000000000000000
2659108161456DANIELSR    CAMARA        0TNT FILES   0000000000000000000000000000000
