2675002060854DANIELSR         1142734  0MONITOR TAPE0050000020000000000000000890206
2675102060932SRA              1215254  0SCRATCH TAPE0040000020000000000000000890206
2675202091640WATECH       44047251216229            0040000010000000000000000890209
2675302151000DANIELSR         1142734  0FILE SAVE   0050000870000000000000000890215
2675502231244BRUCES      011020030722  3            0 9   287   528164      0890223
