2674701021150DANIELSR         1142734  0MONITOR TAPE0050000020000000000000000890103
2674801131656SWBNET       47232266440229            0040000030000000000000000890113
2674901151000DANIELSR         1142734  0FILE SAVE   0050000850000000000000000890115
