2678105300924RKRUL       021477421552229            0 9   143   210702      0890530
2678205311528SRA              1215254  0STORE TO TAP0050001680000000000000000890531
2678205311528SRA              1215254  0STORE TO TAP0040000010000000000000000890531
2678305311554SRA              1215254  0STORE TO TAP0050007360000000000000000890531
2678305311554SRA              1215254  0STORE TO TAP0040000010000000000000000890531
2678405311750SRA              1215254  0STORE TO TAP0050006140000000000000002890531
2678506050901TECHSERV     21476261167201            0050002210000000000000001890605
2678606061831NTS          11020171731  3            0040000010000000000000000890606
2678706070853SSEREP           1320663  01022        0040000010000000000000000890607
2678806091502SRA              1215254  0MOVE FROM F20050103950000000000000004890609
2678806091502SRA              1215254  0MOVE FROM F20040000010000000000000000890609
2678906131354OPER        000001000021  0CDC         0 9    18    72536      0890613
2679006131426OPER        000001000021  0CDC         0 9    18    75400      0890613
2679106141438DATAPAK      27514252115228            0040000170000000000000000890614
2679206151000DANIELSR         1142734  0FILE SAVE   0050000420000000000000000890615
2679406161414SWBNET       47232266440229            0040000020000000000000000890617
2679706201427SWBNET       47232266440229            0040000030000000000000000890620
2679506161734PNTS         44062537506229            0040001800000000000000000890622
