2679906271114RKRUL       021477421552229            0 9   175   285195      0890627
2679906271127RKRUL       021477421552229            0 9    99   174250      0890627
2680006271242TECHSERV     21476261167201            0050013680000000000000002890627
2680106291342SIRTITAS     44155276437228            0040000290000000000000000890629
2680407040747SCONET       36445456343 70F26 TO D31  0050019880000000000000001890704
2680507120952SRA              1215254  0SCRATCH 'EM 0040000010000000000000000890713
2680607151000DANIELSR         1142734  0FILE SAVE   0050000420000000000000000890715
2681107240616OPER             1    21  0235         0050018290000000000000001890724
