2675602241126BRUCES      011020030722  3            0 9    12    17608      0890224
2675602241128BRUCES      011020030722  3            0 9    12    17811      0890224
2675702281350BRUCES      011020030722  3            0 9    12    18077      0890228
2675702281352BRUCES      011020030722  3            0 9    12    18084      0890228
2675803071523CTS          440546640242294257        0040000030000000000000000890307
2676003130731BRUCES      011020030722  3            0 9   325   595788      0890313
2675903130410DANIELSR         1142734  0MONITOR TAPE0050000040000000000000000890313
2676203151131OPER        000001000021  0CDC         0 9    12    47069      0890315
2676303151207OPER        000001000021  0CDC         0 9     2     4400      0890315
2676403151213OPER        000001000021  0CDC         0 9    14    47075      0890315
2676503151347OPER        000001000021  0CDC         0 9     4    11600      0890315
2676103151000DANIELSR         1142734  0FILE SAVE   0050000870000000000000000890315
2676603210849BRUCES      011020030722  3            0 9   325   595788      0890321
2676703210939BRUCES      011020030722  3            0 9   325   595788      0890321
2676703211029BRUCES      011020030722  3            0 9   325   595788      0890321
2676703211120BRUCES      011020030722  3            0 9   325   595788      0890321
2676803211253BRUCES      011020030722  3            0 9   325   595788      0890321
2676803211344BRUCES      011020030722  3            0 9   325   595788      0890321
2677003231417BRUCES      011020030722  3            0 9   513  1023169      0890323
2677103231643BRUCES      011020030722  3            0 9   513  1023169      0890323
2677103231807BRUCES      011020030722  3            0 9   513  1023169      0890323
2677203240846BRUCES      011020030722  3            0 9   293   530857      0890324
