2677504280920SRA              1215254  0COMPLETION O0040000050000000000000000890428
2677705091347SRA              1215254  0SCRATCH TAPE0040000080000000000000000890511
2677805151000DANIELSR         1142734  0FILE SAVE   0050000420000000000000000890515
2677905151357BRUCES      011020030722  3            0 9    11    20961      0890515
2678005151601BRUCES      011020030722  3            0 9    69   128971      0890515
