2682310020727NTS         011020171731  3            0 9    44    78015      0891002
2683010031435SLO          44054544145229            01001   0   606095      1891003
2683010031435SLO          44054544145229            011   197 10     0      0891003
2683110031540BRUCES       11020 30722  3            01001   0    37245      1891003
2683110031540BRUCES       11020 30722  3            011    24 10     0      0891003
2683210151000DANIELSR         1142734  0FILE SAVE   0050000430000000000000000891016
2683310171013TECHSERV     21476261167201            0040009940000000000000000891018
2683310171013TECHSERV     21476261167201            0050000050000000000000001891018
2683411080919TECHSERV     21476261167201RECOVERY    0040000020000000000000000891108
2683511080931TECHSERV     21476261167201            0040000030000000000000000891108
2683711091109NTS          11020171731  31167-1514   0040000010000000000000000891109
2683811130202OPER        000001000021  0CDC         0 9    12    16994      0891113
2683911130210OPER        000001000021  0CDC         0 9     5     6271      0891113
2684011130210OPER        000001000021  0CDC         0 9     1      614      0891113
2684111130211OPER        000001000021  0CDC         0 9     4     5365      0891113
2684211130226OPER        000001000021  0CDC         0 9    38    53254      0891113
2684311130228OPER        000001000021  0CDC         0 9     5     6758      0891113
2684411151000DANIELSR         1142734  0FILE SAVE   0050000440000000000000000891115
2684511200936CLEN         21476773133229            0050004960000000000000001891120
