2681809121126SWBNET       47232266440229            0040000020000000000000000890912
2681909151000DANIELSR         1142734  0FILE SAVE   0050000430000000000000000890915
2682009250925NTS         011020171731  3            0 9    49    86882      0890925
2682009251007NTS         011020171731  3            0 9    45    76731      0890925
2682109281508CLEN         21476773133229            0050004590000000000000001890928
