0277609010300DANIELSR         1142734  0TNT FILES   0000000000000000000000000000000
0277709011000DANIELSR         1142734  0TNT FILES   0000000000000000000000000000000
0277809011630DANIELSR         1142734  0TNT FILES   0000000000000000000000000000000
0277909020300DANIELSR         1142734  0TNT FILES   0000000000000000000000000000000
0278009021000DANIELSR         1142734  0TNT FILES   0000000000000000000000000000000
0278109021630DANIELSR         1142734  0TNT FILES   0000000000000000000000000000000
0278209030300DANIELSR         1142734  0TNT FILES   0000000000000000000000000000000
0278309031000DANIELSR         1142734  0TNT FILES   0000000000000000000000000000000
0278409031630DANIELSR         1142734  0TNT FILES   0000000000000000000000000000000
0278509040300DANIELSR         1142734  0TNT FILES   0000000000000000000000000000000
0278609041000DANIELSR         1142734  0TNT FILES   0000000000000000000000000000000
0278709041630DANIELSR         1142734  0TNT FILES   0000000000000000000000000000000
0278809050300DANIELSR         1142734  0TNT FILES   0000000000000000000000000000000
0278909051000DANIELSR         1142734  0TNT FILES   0000000000000000000000000000000
0279009051630DANIELSR         1142734  0TNT FILES   0000000000000000000000000000000
0279109060300DANIELSR         1142734  0TNT FILES   0000000000000000000000000000000
0279209061000DANIELSR         1142734  0TNT FILES   0000000000000000000000000000000
0279309061630DANIELSR         1142734  0TNT FILES   0000000000000000000000000000000
0279409070300DANIELSR         1142734  0TNT FILES   0000000000000000000000000000000
0279509071000DANIELSR         1142734  0TNT FILES   0000000000000000000000000000000
0279609071630DANIELSR         1142734  0TNT FILES   0000000000000000000000000000000
0279709080300DANIELSR         1142734  0TNT FILES   0000000000000000000000000000000
0279809081000DANIELSR         1142734  0TNT FILES   0000000000000000000000000000000
0279909081630DANIELSR         1142734  0TNT FILES   0000000000000000000000000000000
0280009090300DANIELSR         1142734  0TNT FILES   0000000000000000000000000000000
0280109091000DANIELSR         1142734  0TNT FILES   0000000000000000000000000000000
0280209091630DANIELSR         1142734  0TNT FILES   0000000000000000000000000000000
0280309100300DANIELSR         1142734  0TNT FILES   0000000000000000000000000000000
0280409101000DANIELSR         1142734  0TNT FILES   0000000000000000000000000000000
0280509101630DANIELSR         1142734  0TNT FILES   0000000000000000000000000000000
0280609110523DANIELSR         1142734  0TNT FILES   0000000000000000000000000000000
0280709111000DANIELSR         1142734  0TNT FILES   0000000000000000000000000000000
0280809111630DANIELSR         1142734  0TNT FILES   0000000000000000000000000000000
0280909120300DANIELSR         1142734  0TNT FILES   0000000000000000000000000000000
0281009121000DANIELSR         1142734  0TNT FILES   0000000000000000000000000000000
0281109121630DANIELSR         1142734  0TNT FILES   0000000000000000000000000000000
0281209130300DANIELSR         1142734  0TNT FILES   0000000000000000000000000000000
0281309131338NSSC         21477147773229            0000000000000000000000000000000
0281409131000DANIELSR         1142734  0TNT FILES   0000000000000000000000000000000
0281509131310NETCON       21477175306229RESTORE FILE1000000000000000000000000000000
0181609131630DANIELSR         1142734  0TNT FILES   0000000000000000000000000000000
0181709140300DANIELSR         1142734  0TNT FILES   0000000000000000000000000000000
0181809141000DANIELSR         1142734  0TNT FILES   0000000000000000000000000000000
0281909141910NSSC         21477147773229LOST IN SYST0000000000000000000000000000000
0282009141630DANIELSR         1142734  0TNT FILES   0000000000000000000000000000000
0182109150300DANIELSR         1142734  0TNT FILES   0000000000000000000000000000000
0182209151002PAPDEV       21477125475229            0000000000000000000000000000000
0182309151000DANIELSR         1142734  0TNT FILES   0000000000000000000000000000000
0182409151630DANIELSR         1142734  0TNT FILES   0000000000000000000000000000000
0182509162319DANIELSR         1142734  0TNT FILES   0000000000000000000000000000000
0182609162319DANIELSR         1142734  0TNT FILES   0000000000000000000000000000000
0182709162319DANIELSR         1142734  0TNT FILES   0000000000000000000000000000000
0182809170300DANIELSR         1142734  0TNT FILES   0000000000000000000000000000000
0182909171000DANIELSR         1142734  0TNT FILES   0000000000000000000000000000000
0183009171630DANIELSR         1142734  0TNT FILES   0000000000000000000000000000000
0183109180300DANIELSR         1142734  0TNT FILES   0000000000000000000000000000000
0183209181000DANIELSR         1142734  0TNT FILES   0000000000000000000000000000000
0183309181630DANIELSR         1142734  0TNT FILES   0000000000000000000000000000000
0183509190353DANIELSR         1142734  0TNT FILES   0000000000000000000000000000000
0183609191000DANIELSR         1142734  0TNT FILES   0000000000000000000000000000000
0183709191630DANIELSR         1142734  0TNT FILES   0000000000000000000000000000000
0283809200300DANIELSR         1142734  0TNT FILES   0000000000000000000000000000000
0283909201000DANIELSR         1142734  0TNT FILES   0000000000000000000000000000000
0284009201630UTIL             1    36  0TNT FILES   0000000000000000000000000000000
0284109210100UTIL             1    36  0TNT FILES   0000000000000000000000000000000
0284209210300UTIL             1    36  0TNT FILES   0000000000000000000000000000000
0284309211000UTIL             1    36  0TNT FILES   0000000000000000000000000000000
0284409211630UTIL             1    36  0TNT FILES   0000000000000000000000000000000
0284509220100UTIL             1    36  0TNT FILES   0000000000000000000000000000000
0284609220300UTIL             1    36  0TNT FILES   0000000000000000000000000000000
0284709221000UTIL             1    36  0TNT FILES   0000000000000000000000000000000
0284809221630UTIL             1    36  0TNT FILES   0000000000000000000000000000000
0284909230100UTIL             1    36  0TNT FILES   0000000000000000000000000000000
0285009230300UTIL             1    36  0TNT FILES   0000000000000000000000000000000
0285109231000UTIL             1    36  0TNT FILES   0000000000000000000000000000000
0285209231630UTIL             1    36  0TNT FILES   0000000000000000000000000000000
0285309240100UTIL             1    36  0TNT FILES   0000000000000000000000000000000
0285409240300UTIL             1    36  0TNT FILES   0000000000000000000000000000000
0285509241000UTIL             1    36  0TNT FILES   0000000000000000000000000000000
0285609241630UTIL             1    36  0TNT FILES   0000000000000000000000000000000
0285709250408UTIL             1    36  0TNT FILES   0000000000000000000000000000000
0285809250409UTIL             1    36  0TNT FILES   0000000000000000000000000000000
0285909251000UTIL             1    36  0TNT FILES   0000000000000000000000000000000
0286009251630UTIL             1    36  0TNT FILES   0000000000000000000000000000000
0286109260100UTIL             1    36  0TNT FILES   0000000000000000000000000000000
0286209260300UTIL             1    36  0TNT FILES   0000000000000000000000000000000
0286309261000UTIL             1    36  0TNT FILES   0000000000000000000000000000000
0286409261630UTIL             1    36  0TNT FILES   0000000000000000000000000000000
0286509270100UTIL             1    36  0TNT FILES   0000000000000000000000000000000
0286609270300UTIL             1    36  0TNT FILES   0000000000000000000000000000000
0286709271000UTIL             1    36  0TNT FILES   0000000000000000000000000000000
0286809271630UTIL             1    36  0TNT FILES   0000000000000000000000000000000
0286909280100UTIL             1    36  0TNT FILES   0000000000000000000000000000000
0287009280300UTIL             1    36  0TNT FILES   0000000000000000000000000000000
0287109281000UTIL             1    36  0TNT FILES   0000000000000000000000000000000
0287209281630UTIL             1    36  0TNT FILES   0000000000000000000000000000000
0287309290100UTIL             1    36  0TNT FILES   0000000000000000000000000000000
0287409290300UTIL             1    36  0TNT FILES   0000000000000000000000000000000
0287509291000UTIL             1    36  0TNT FILES   0000000000000000000000000000000
0287609291630UTIL             1    36  0TNT FILES   0000000000000000000000000000000
0287709300100UTIL             1    36  0TNT FILES   0000000000000000000000000000000
0287809300300UTIL             1    36  0TNT FILES   0000000000000000000000000000000
0287909301000UTIL             1    36  0TNT FILES   0000000000000000000000000000000
0288009301630UTIL             1    36  0TNT FILES   0000000000000000000000000000000
0288110010100UTIL             1    36  0TNT FILES   0000000000000000000000000000000
0288210010300UTIL             1    36  0TNT FILES   0000000000000000000000000000000
0288310011000UTIL             1    36  0TNT FILES   0000000000000000000000000000000
0288410011630UTIL             1    36  0TNT FILES   0000000000000000000000000000000
0288510020304UTIL             1    36  0TNT FILES   0000000000000000000000000000000
0288610020304UTIL             1    36  0TNT FILES   0000000000000000000000000000000
0288710021000UTIL             1    36  0TNT FILES   0000000000000000000000000000000
0288810021630UTIL             1    36  0TNT FILES   0000000000000000000000000000000
0288910030100UTIL             1    36  0TNT FILES   0000000000000000000000000000000
0289010030300UTIL             1    36  0TNT FILES   0000000000000000000000000000000
0289110031000UTIL             1    36  0TNT FILES   0000000000000000000000000000000
0289210031630UTIL             1    36  0TNT FILES   0000000000000000000000000000000
0289310040100UTIL             1    36  0TNT FILES   0000000000000000000000000000000
0289410040300UTIL             1    36  0TNT FILES   0000000000000000000000000000000
0289510041000UTIL             1    36  0TNT FILES   0000000000000000000000000000000
0289610041630UTIL             1    36  0TNT FILES   0000000000000000000000000000000
0289710050100UTIL             1    36  0TNT FILES   0000000000000000000000000000000
0289810050300UTIL             1    36  0TNT FILES   0000000000000000000000000000000
0289910051000UTIL             1    36  0TNT FILES   0000000000000000000000000000000
0290010051630UTIL             1    36  0TNT FILES   0000000000000000000000000000000
0290110060100UTIL             1    36  0TNT FILES   0000000000000000000000000000000
0290210060300UTIL             1    36  0TNT FILES   0000000000000000000000000000000
0290310061000UTIL             1    36  0TNT FILES   0000000000000000000000000000000
0290410061630UTIL             1    36  0TNT FILES   0000000000000000000000000000000
0290510070100UTIL             1    36  0TNT FILES   0000000000000000000000000000000
0290610070300UTIL             1    36  0TNT FILES   0000000000000000000000000000000
0290710071000UTIL             1    36  0TNT FILES   0000000000000000000000000000000
0290810071630UTIL             1    36  0TNT FILES   0000000000000000000000000000000
0290910080100UTIL             1    36  0TNT FILES   0000000000000000000000000000000
0291010080300UTIL             1    36  0TNT FILES   0000000000000000000000000000000
0291110081000UTIL             1    36  0TNT FILES   0000000000000000000000000000000
0291210081630UTIL             1    36  0TNT FILES   0000000000000000000000000000000
0291310090240UTIL             1    36  0TNT FILES   0000000000000000000000000000000
0291410090300UTIL             1    36  0TNT FILES   0000000000000000000000000000000
0291510091000UTIL             1    36  0TNT FILES   0000000000000000000000000000000
0291610091630UTIL             1    36  0TNT FILES   0000000000000000000000000000000
0291810100100UTIL             1    36  0TNT FILES   0000000000000000000000000000000
0291910100300UTIL             1    36  0TNT FILES   0000000000000000000000000000000
0292010101000UTIL             1    36  0TNT FILES   0000000000000000000000000000000
0292110101630UTIL             1    36  0TNT FILES   0000000000000000000000000000000
0292210110100UTIL             1    36  0TNT FILES   0000000000000000000000000000000
0292310110300UTIL             1    36  0TNT FILES   0000000000000000000000000000000
0292410111000UTIL             1    36  0TNT FILES   0000000000000000000000000000000
0292510111630UTIL             1    36  0TNT FILES   0000000000000000000000000000000
0292610120100UTIL             1    36  0TNT FILES   0000000000000000000000000000000
0292710120300UTIL             1    36  0TNT FILES   0000000000000000000000000000000
0292810121000UTIL             1    36  0TNT FILES   0000000000000000000000000000000
0292910121630UTIL             1    36  0TNT FILES   0000000000000000000000000000000
0293010130100UTIL             1    36  0TNT FILES   0000000000000000000000000000000
0293110130300UTIL             1    36  0TNT FILES   0000000000000000000000000000000
0293210131001UTIL             1    36  0TNT FILES   0000000000000000000000000000000
0293310131630UTIL             1    36  0TNT FILES   0000000000000000000000000000000
0293410140100UTIL             1    36  0TNT FILES   0000000000000000000000000000000
0293510140300UTIL             1    36  0TNT FILES   0000000000000000000000000000000
0293610141000UTIL             1    36  0TNT FILES   0000000000000000000000000000000
0293710141630UTIL             1    36  0TNT FILES   0000000000000000000000000000000
0293810150100UTIL             1    36  0TNT FILES   0000000000000000000000000000000
0293910150300UTIL             1    36  0TNT FILES   0000000000000000000000000000000
0294010151000UTIL             1    36  0TNT FILES   0000000000000000000000000000000
0294110151630UTIL             1    36  0TNT FILES   0000000000000000000000000000000
0294210160257UTIL             1    36  0TNT FILES   0000000000000000000000000000000
0294310160300UTIL             1    36  0TNT FILES   0000000000000000000000000000000
0294410161000UTIL             1    36  0TNT FILES   0000000000000000000000000000000
0294510161630UTIL             1    36  0TNT FILES   0000000000000000000000000000000
0294610170100UTIL             1    36  0TNT FILES   0000000000000000000000000000000
0294710170300UTIL             1    36  0TNT FILES   0000000000000000000000000000000
0294810171000UTIL             1    36  0TNT FILES   0000000000000000000000000000000
0294910171630UTIL             1    36  0TNT FILES   0000000000000000000000000000000
0295010180100UTIL             1    36  0TNT FILES   0000000000000000000000000000000
0295110180300UTIL             1    36  0TNT FILES   0000000000000000000000000000000
0295210181000UTIL             1    36  0TNT FILES   0000000000000000000000000000000
0295310181630UTIL             1    36  0TNT FILES   0000000000000000000000000000000
0295410190100UTIL             1    36  0TNT FILES   0000000000000000000000000000000
0295510190300UTIL             1    36  0TNT FILES   0000000000000000000000000000000
0295610191000UTIL             1    36  0TNT FILES   0000000000000000000000000000000
0295710191630UTIL             1    36  0TNT FILES   0000000000000000000000000000000
0295810200100UTIL             1    36  0TNT FILES   0000000000000000000000000000000
0295910200300UTIL             1    36  0TNT FILES   0000000000000000000000000000000
0296010201000UTIL             1    36  0TNT FILES   0000000000000000000000000000000
0296110201630UTIL             1    36  0TNT FILES   0000000000000000000000000000000
0296210210100UTIL             1    36  0TNT FILES   0000000000000000000000000000000
0296310210300UTIL             1    36  0TNT FILES   0000000000000000000000000000000
0296410211000UTIL             1    36  0TNT FILES   0000000000000000000000000000000
0296510211630UTIL             1    36  0TNT FILES   0000000000000000000000000000000
0296610220100UTIL             1    36  0TNT FILES   0000000000000000000000000000000
0296710220300UTIL             1    36  0TNT FILES   0000000000000000000000000000000
0296810221000UTIL             1    36  0TNT FILES   0000000000000000000000000000000
0296910221630UTIL             1    36  0TNT FILES   0000000000000000000000000000000
0297010230524UTIL             1    36  0TNT FILES   0000000000000000000000000000000
0297110230525UTIL             1    36  0TNT FILES   0000000000000000000000000000000
0297210231000UTIL             1    36  0TNT FILES   0000000000000000000000000000000
0297310231630UTIL             1    36  0TNT FILES   0000000000000000000000000000000
0297410240100UTIL             1    36  0TNT FILES   0000000000000000000000000000000
0297510240300UTIL             1    36  0TNT FILES   0000000000000000000000000000000
0297610241000UTIL             1    36  0TNT FILES   0000000000000000000000000000000
0297710241630UTIL             1    36  0TNT FILES   0000000000000000000000000000000
0297810250100UTIL             1    36  0TNT FILES   0000000000000000000000000000000
0297910250300UTIL             1    36  0TNT FILES   0000000000000000000000000000000
0298010251000UTIL             1    36  0TNT FILES   0000000000000000000000000000000
0298110251630UTIL             1    36  0TNT FILES   0000000000000000000000000000000
0298210260100UTIL             1    36  0TNT FILES   0000000000000000000000000000000
0298310260300UTIL             1    36  0TNT FILES   0000000000000000000000000000000
0298410261000UTIL             1    36  0TNT FILES   0000000000000000000000000000000
0298510261630UTIL             1    36  0TNT FILES   0000000000000000000000000000000
0298610270100UTIL             1    36  0TNT FILES   0000000000000000000000000000000
0298710270300UTIL             1    36  0TNT FILES   0000000000000000000000000000000
0298810271005UTIL             1    36  0TNT FILES   0000000000000000000000000000000
0298910271630UTIL             1    36  0TNT FILES   0000000000000000000000000000000
0299010280100UTIL             1    36  0TNT FILES   0000000000000000000000000000000
0299110280300UTIL             1    36  0TNT FILES   0000000000000000000000000000000
0299210281000UTIL             1    36  0TNT FILES   0000000000000000000000000000000
0299310281630UTIL             1    36  0TNT FILES   0000000000000000000000000000000
0299410290IL             1    36  0TNT FILES   0000000000000000000000000000000
0299510290300UTIL             1    36  0TNT FILES   0000000000000000000000000000000
0299610291000UTIL             1    36  0TNT FILES   0000000000000000000000000000000
0299710291630UTIL             1    36  0TNT FILES   0000000000000000000000000000000
0299810300149UTIL             1    36  0TNT FILES   0000000000000000000000000000000
0299910300300UTIL             1    36  0TNT FILES   0000000000000000000000000000000
0200110301000UTIL             1    36  0TNT FILES   0000000000000000000000000000000
0200210301630UTIL             1    36  0TNT FILES   0000000000000000000000000000000
0200410310100UTIL             1    36  0TNT FILES   0000000000000000000000000000000
0200510310300UTIL             1    36  0TNT FILES   0000000000000000000000000000000
0200610311001UTIL             1    36  0TNT FILES   0000000000000000000000000000000
0200710311630UTIL             1    36  0TNT FILES   0000000000000000000000000000000
2600811010100UTIL             1    36  0TNT FILES   0000000000000000000000000000000
2600911010300UTIL             1    36  0TNT FILES   0000000000000000000000000000000
2601011011000UTIL             1    36  0TNT FILES   0000000000000000000000000000000
0201111011630UTIL             1    36  0TNT FILES   0000000000000000000000000000000
2601211020100UTIL             1    36  0TNT FILES   0000000000000000000000000000000
2601311020300UTIL             1    36  0TNT FILES   0000000000000000000000000000000
2601411021000UTIL             1    36  0TNT FILES   0000000000000000000000000000000
2601511021630UTIL             1    36  0TNT FILES   0000000000000000000000000000000
2601611030100UTIL             1    36  0TNT FILES   0000000000000000000000000000000
2601711030300UTIL             1    36  0TNT FILES   0000000000000000000000000000000
2601811031000UTIL             1    36  0TNT FILES   0000000000000000000000000000000
2601911031630UTIL             1    36  0TNT FILES   0000000000000000000000000000000
2602011040100UTIL             1    36  0TNT FILES   0000000000000000000000000000000
2602111040300UTIL             1    36  0TNT FILES   0000000000000000000000000000000
2602211041000UTIL             1    36  0TNT FILES   0000000000000000000000000000000
2602311041630UTIL             1    36  0TNT FILES   0000000000000000000000000000000
2602411050100UTIL             1    36  0TNT FILES   0000000000000000000000000000000
2602511050300UTIL             1    36  0TNT FILES   0000000000000000000000000000000
2602611051000UTIL             1    36  0TNT FILES   0000000000000000000000000000000
2602711051630UTIL             1    36  0TNT FILES   0000000000000000000000000000000
2602811060311UTIL             1    36  0TNT FILES   0000000000000000000000000000000
2602911060311UTIL             1    36  0TNT FILES   0000000000000000000000000000000
2603011061000UTIL             1    36  0TNT FILES   0000000000000000000000000000000
2603111061630UTIL             1    36  0TNT FILES   0000000000000000000000000000000
2603211070100UTIL             1    36  0TNT FILES   0000000000000000000000000000000
2603311070300UTIL             1    36  0TNT FILES   0000000000000000000000000000000
2603411071000UTIL             1    36  0TNT FILES   0000000000000000000000000000000
2603511071630UTIL             1    36  0TNT FILES   0000000000000000000000000000000
2603611080100UTIL             1    36  0TNT FILES   0000000000000000000000000000000
2603711080300UTIL             1    36  0TNT FILES   0000000000000000000000000000000
2603811081001UTIL             1    36  0TNT FILES   0000000000000000000000000000000
2603911081630UTIL             1    36  0TNT FILES   0000000000000000000000000000000
2604011090100UTIL             1    36  0TNT FILES   0000000000000000000000000000000
2604111090300UTIL             1    36  0TNT FILES   0000000000000000000000000000000
2604211091001UTIL             1    36  0TNT FILES   0000000000000000000000000000000
2604311091630UTIL             1    36  0TNT FILES   0000000000000000000000000000000
2604411100100UTIL             1    36  0TNT FILES   0000000000000000000000000000000
2604511100300UTIL             1    36  0TNT FILES   0000000000000000000000000000000
2604611101000UTIL             1    36  0TNT FILES   0000000000000000000000000000000
2604711101630UTIL             1    36  0TNT FILES   0000000000000000000000000000000
2604811110100UTIL             1    36  0TNT FILES   0000000000000000000000000000000
2604911110300UTIL             1    36  0TNT FILES   0000000000000000000000000000000
2605011111000UTIL             1    36  0TNT FILES   0000000000000000000000000000000
2605111111630UTIL             1    36  0TNT FILES   0000000000000000000000000000000
2605211120100UTIL             1    36  0TNT FILES   0000000000000000000000000000000
2605311120300UTIL             1    36  0TNT FILES   0000000000000000000000000000000
2605411121000UTIL             1    36  0TNT FILES   0000000000000000000000000000000
2605511121630UTIL             1    36  0TNT FILES   0000000000000000000000000000000
2605611130400UTIL             1    36  0TNT FILES   0000000000000000000000000000000
2605711130400UTIL             1    36  0TNT FILES   0000000000000000000000000000000
2605811131000UTIL             1    36  0TNT FILES   0000000000000000000000000000000
2605911131630UTIL             1    36  0TNT FILES   0000000000000000000000000000000
2606011140100UTIL             1    36  0TNT FILES   0000000000000000000000000000000
2606111140300UTIL             1    36  0TNT FILES   0000000000000000000000000000000
2606211141000UTIL             1    36  0TNT FILES   0000000000000000000000000000000
2606311141630UTIL             1    36  0TNT FILES   0000000000000000000000000000000
2606411150100UTIL             1    36  0TNT FILES   0000000000000000000000000000000
2606511150300UTIL             1    36  0TNT FILES   0000000000000000000000000000000
2606611151000UTIL             1    36  0TNT FILES   0000000000000000000000000000000
2606711151630UTIL             1    36  0TNT FILES   0000000000000000000000000000000
2606811160100UTIL             1    36  0TNT FILES   0000000000000000000000000000000
2606911160300UTIL             1    36  0TNT FILES   0000000000000000000000000000000
2607011161000UTIL             1    36  0TNT FILES   0000000000000000000000000000000
2607111161630UTIL             1    36  0TNT FILES   0000000000000000000000000000000
2607211170100UTIL             1    36  0TNT FILES   0000000000000000000000000000000
2607311170300UTIL             1    36  0TNT FILES   0000000000000000000000000000000
2607411171000UTIL             1    36  0TNT FILES   0000000000000000000000000000000
2607511171630UTIL             1    36  0TNT FILES   0000000000000000000000000000000
2607611180100UTIL             1    36  0TNT FILES   0000000000000000000000000000000
2607711180300UTIL             1    36  0TNT FILES   0000000000000000000000000000000
2607811181000UTIL             1    36  0TNT FILES   0000000000000000000000000000000
2607911181630UTIL             1    36  0TNT FILES   0000000000000000000000000000000
2608011190100UTIL             1    36  0TNT FILES   0000000000000000000000000000000
2608111190300UTIL             1    36  0TNT FILES   0000000000000000000000000000000
2608211191000UTIL             1    36  0TNT FILES   0000000000000000000000000000000
2608311191630UTIL             1    36  0TNT FILES   0000000000000000000000000000000
2608411200429UTIL             1    36  0TNT FILES   0000000000000000000000000000000
2608511200429UTIL             1    36  0TNT FILES   0000000000000000000000000000000
2608611201000UTIL             1    36  0TNT FILES   0000000000000000000000000000000
2608711201630UTIL             1    36  0TNT FILES   0000000000000000000000000000000
2608911210100UTIL             1    36  0TNT FILES   0000000000000000000000000000000
2609011210300UTIL             1    36  0TNT FILES   0000000000000000000000000000000
2609111211000UTIL             1    36  0TNT FILES   0000000000000000000000000000000
2609211211630UTIL             1    36  0TNT FILES   0000000000000000000000000000000
2609311220100UTIL             1    36  0TNT FILES   0000000000000000000000000000000
2609411220300UTIL             1    36  0TNT FILES   0000000000000000000000000000000
2609511221001UTIL             1    36  0TNT FILES   0000000000000000000000000000000
2609611221630UTIL             1    36  0TNT FILES   0000000000000000000000000000000
2609711230100UTIL             1    36  0TNT FILES   0000000000000000000000000000000
2609811230300UTIL             1    36  0TNT FILES   0000000000000000000000000000000
2609911231000UTIL             1    36  0TNT FILES   0000000000000000000000000000000
2610011231630UTIL             1    36  0TNT FILES   0000000000000000000000000000000
2610111240100UTIL             1    36  0TNT FILES   0000000000000000000000000000000
2610211240300UTIL             1    36  0TNT FILES   0000000000000000000000000000000
2610311241000UTIL             1    36  0TNT FILES   0000000000000000000000000000000
2610411241630UTIL             1    36  0TNT FILES   0000000000000000000000000000000
2610511250100UTIL             1    36  0TNT FILES   0000000000000000000000000000000
2610611250300UTIL             1    36  0TNT FILES   0000000000000000000000000000000
2610711251000UTIL             1    36  0TNT FILES   0000000000000000000000000000000
2610811251630UTIL             1    36  0TNT FILES   0000000000000000000000000000000
2610911260100UTIL             1    36  0TNT FILES   0000000000000000000000000000000
2611011260300UTIL             1    36  0TNT FILES   0000000000000000000000000000000
2611111261000UTIL             1    36  0TNT FILES   0000000000000000000000000000000
2611211261630UTIL             1    36  0TNT FILES   0000000000000000000000000000000
2611311270309UTIL             1    36  0TNT FILES   0000000000000000000000000000000
2611411270309UTIL             1    36  0TNT FILES   0000000000000000000000000000000
2611511271000UTIL             1    36  0TNT FILES   0000000000000000000000000000000
2611611271630UTIL             1    36  0TNT FILES   0000000000000000000000000000000
2611711280100UTIL             1    36  0TNT FILES   0000000000000000000000000000000
2611811280300UTIL             1    36  0TNT FILES   0000000000000000000000000000000
2611911281000UTIL             1    36  0TNT FILES   0000000000000000000000000000000
2612011281630UTIL             1    36  0TNT FILES   0000000000000000000000000000000
2612111290100UTIL             1    36  0TNT FILES   0000000000000000000000000000000
2612211290300UTIL             1    36  0TNT FILES   0000000000000000000000000000000
2612311291006UTIL             1    36  0TNT FILES   0000000000000000000000000000000
2612411291630UTIL             1    36  0TNT FILES   0000000000000000000000000000000
2612511300100UTIL             1    36  0TNT FILES   0000000000000000000000000000000
2612611300300UTIL             1    36  0TNT FILES   0000000000000000000000000000000
2612711301000UTIL             1    36  0TNT FILES   0000000000000000000000000000000
2612811301630UTIL             1    36  0TNT FILES   0000000000000000000000000000000
2612912010100UTIL             1    36  0TNT FILES   0000000000000000000000000000000
2613012010300UTIL             1    36  0TNT FILES   0000000000000000000000000000000
2613112011000UTIL             1    36  0TNT FILES   0000000000000000000000000000000
2613212011630UTIL             1    36  0TNT FILES   0000000000000000000000000000000
2613312020100UTIL             1    36  0TNT FILES   0000000000000000000000000000000
2613412020300UTIL             1    36  0TNT FILES   0000000000000000000000000000000
2613512021000UTIL             1    36  0TNT FILES   0000000000000000000000000000000
2613612021630UTIL             1    36  0TNT FILES   0000000000000000000000000000000
2613712030100UTIL             1    36  0TNT FILES   0000000000000000000000000000000
2613812030300UTIL             1    36  0TNT FILES   0000000000000000000000000000000
2613912031000UTIL             1    36  0TNT FILES   0000000000000000000000000000000
2614012031630UTIL             1    36  0TNT FILES   0000000000000000000000000000000
2614112040330UTIL             1    36  0TNT FILES   0000000000000000000000000000000
2614212040331UTIL             1    36  0TNT FILES   0000000000000000000000000000000
2614312041000UTIL             1    36  0TNT FILES   0000000000000000000000000000000
2614412041630UTIL             1    36  0TNT FILES   0000000000000000000000000000000
2614512050100UTIL             1    36  0TNT FILES   0000000000000000000000000000000
2614612050300UTIL             1    36  0TNT FILES   0000000000000000000000000000000
2614712051000UTIL             1    36  0TNT FILES   0000000000000000000000000000000
2614812051630UTIL             1    36  0TNT FILES   0000000000000000000000000000000
2614912060100UTIL             1    36  0TNT FILES   0000000000000000000000000000000
2615012060300UTIL             1    36  0TNT FILES   0000000000000000000000000000000
2615112061001UTIL             1    36  0TNT FILES   0000000000000000000000000000000
2615212061630UTIL             1    36  0TNT FILES   0000000000000000000000000000000
2615312070100UTIL             1    36  0TNT FILES   0000000000000000000000000000000
2615412070300UTIL             1    36  0TNT FILES   0000000000000000000000000000000
2615512071000UTIL             1    36  0TNT FILES   0000000000000000000000000000000
2615612071630UTIL             1    36  0TNT FILES   0000000000000000000000000000000
0215712080100UTIL             1    36  0TNT FILES   0000000000000000000000000000000
2615812080300UTIL             1    36  0TNT FILES   0000000000000000000000000000000
2615912081001UTIL             1    36  0TNT FILES   0000000000000000000000000000000
2616012081630UTIL             1    36  0TNT FILES   0000000000000000000000000000000
2616112090100UTIL             1    36  0TNT FILES   0000000000000000000000000000000
2616212090300UTIL             1    36  0TNT FILES   0000000000000000000000000000000
2616312091000UTIL             1    36  0TNT FILES   0000000000000000000000000000000
2616412091630UTIL             1    36  0TNT FILES   0000000000000000000000000000000
2616512100100UTIL             1    36  0TNT FILES   0000000000000000000000000000000
2616612100300UTIL             1    36  0TNT FILES   0000000000000000000000000000000
2616712101000UTIL             1    36  0TNT FILES   0000000000000000000000000000000
2616812101630UTIL             1    36  0TNT FILES   0000000000000000000000000000000
2616912110304UTIL             1    36  0TNT FILES   0000000000000000000000000000000
2617012110304UTIL             1    36  0TNT FILES   0000000000000000000000000000000
2617112111000UTIL             1    36  0TNT FILES   0000000000000000000000000000000
2617212111630UTIL             1    36  0TNT FILES   0000000000000000000000000000000
2617412120100UTIL             1    36  0TNT FILES   0000000000000000000000000000000
2617512120300UTIL             1    36  0TNT FILES   0000000000000000000000000000000
2617612121000UTIL             1    36  0TNT FILES   0000000000000000000000000000000
2617712121630UTIL             1    36  0TNT FILES   0000000000000000000000000000000
2617812130100UTIL             1    36  0TNT FILES   0000000000000000000000000000000
2617912130300UTIL             1    36  0TNT FILES   0000000000000000000000000000000
2618012131000UTIL             1    36  0TNT FILES   0000000000000000000000000000000
2618112131630UTIL             1    36  0TNT FILES   0000000000000000000000000000000
2618212140100UTIL             1    36  0TNT FILES   0000000000000000000000000000000
2618312140300UTIL             1    36  0TNT FILES   0000000000000000000000000000000
2618412141000UTIL             1    36  0TNT FILES   0000000000000000000000000000000
2618512141630UTIL             1    36  0TNT FILES   0000000000000000000000000000000
2618612150100UTIL             1    36  0TNT FILES   0000000000000000000000000000000
2618712150300UTIL             1    36  0TNT FILES   0000000000000000000000000000000
2618812151000UTIL             1    36  0TNT FILES   0000000000000000000000000000000
2618912151630UTIL             1    36  0TNT FILES   0000000000000000000000000000000
2619012160100UTIL             1    36  0TNT FILES   0000000000000000000000000000000
2619112160300UTIL             1    36  0TNT FILES   0000000000000000000000000000000
2619212161000UTIL             1    36  0TNT FILES   0000000000000000000000000000000
2619312161630UTIL             1    36  0TNT FILES   0000000000000000000000000000000
2619412170100UTIL             1    36  0TNT FILES   0000000000000000000000000000000
2619512170300UTIL             1    36  0TNT FILES   0000000000000000000000000000000
2619612171000UTIL             1    36  0TNT FILES   0000000000000000000000000000000
2619712171630UTIL             1    36  0TNT FILES   0000000000000000000000000000000
2619812180228UTIL             1    36  0TNT FILES   0000000000000000000000000000000
2619912180300UTIL             1    36  0TNT FILES   0000000000000000000000000000000
2620012181000UTIL             1    36  0TNT FILES   0000000000000000000000000000000
2620112181630UTIL             1    36  0TNT FILES   0000000000000000000000000000000
2620212190100UTIL             1    36  0TNT FILES   0000000000000000000000000000000
2620312190300UTIL             1    36  0TNT FILES   0000000000000000000000000000000
2620412191000UTIL             1    36  0TNT FILES   0000000000000000000000000000000
2620512191630UTIL             1    36  0TNT FILES   0000000000000000000000000000000
2620612200100UTIL             1    36  0TNT FILES   0000000000000000000000000000000
2620712200300UTIL             1    36  0TNT FILES   0000000000000000000000000000000
2620812201000UTIL             1    36  0TNT FILES   0000000000000000000000000000000
2620912201630UTIL             1    36  0TNT FILES   0000000000000000000000000000000
2621012210100UTIL             1    36  0TNT FILES   0000000000000000000000000000000
2621112210300UTIL             1    36  0TNT FILES   0000000000000000000000000000000
2621212211001UTIL             1    36  0TNT FILES   0000000000000000000000000000000
2621312211630UTIL             1    36  0TNT FILES   0000000000000000000000000000000
2621412220100UTIL             1    36  0TNT FILES   0000000000000000000000000000000
2621512220300UTIL             1    36  0TNT FILES   0000000000000000000000000000000
2621612221000UTIL             1    36  0TNT FILES   0000000000000000000000000000000
2621712221630UTIL             1    36  0TNT FILES   0000000000000000000000000000000
2621812230100UTIL             1    36  0TNT FILES   0000000000000000000000000000000
2621912230300UTIL             1    36  0TNT FILES   0000000000000000000000000000000
2622012231000UTIL             1    36  0TNT FILES   0000000000000000000000000000000
2622112231630UTIL             1    36  0TNT FILES   0000000000000000000000000000000
2622212240100UTIL             1    36  0TNT FILES   0000000000000000000000000000000
2622312240300UTIL             1    36  0TNT FILES   0000000000000000000000000000000
2622412241000UTIL             1    36  0TNT FILES   0000000000000000000000000000000
2622512241630UTIL             1    36  0TNT FILES   0000000000000000000000000000000
2622612250227UTIL             1    36  0TNT FILES   0000000000000000000000000000000
2622712250300UTIL             1    36  0TNT FILES   0000000000000000000000000000000
2622812251000UTIL             1    36  0TNT FILES   0000000000000000000000000000000
2622912251630UTIL             1    36  0TNT FILES   0000000000000000000000000000000
2623012260100UTIL             1    36  0TNT FILES   0000000000000000000000000000000
2623112260300UTIL             1    36  0TNT FILES   0000000000000000000000000000000
2623212261000UTIL             1    36  0TNT FILES   0000000000000000000000000000000
2623312261630UTIL             1    36  0TNT FILES   0000000000000000000000000000000
2623412270100UTIL             1    36  0TNT FILES   0000000000000000000000000000000
2623512270300UTIL             1    36  0TNT FILES   0000000000000000000000000000000
2623612271000UTIL             1    36  0TNT FILES   0000000000000000000000000000000
0223712271444FLMTECH      21476311244229            0000000000000000000000000000000
2623812271630UTIL             1    36  0TNT FILES   0000000000000000000000000000000
2623912280100UTIL             1    36  0TNT FILES   0000000000000000000000000000000
2624012280300UTIL             1    36  0TNT FILES   0000000000000000000000000000000
2624112281000UTIL             1    36  0TNT FILES   0000000000000000000000000000000
2624212281630UTIL             1    36  0TNT FILES   0000000000000000000000000000000
2624312290100UTIL             1    36  0TNT FILES   0000000000000000000000000000000
2624412290300UTIL             1    36  0TNT FILES   0000000000000000000000000000000
2624512291000UTIL             1    36  0TNT FILES   0000000000000000000000000000000
2624612291630UTIL             1    36  0TNT FILES   0000000000000000000000000000000
2624712300100UTIL             1    36  0TNT FILES   0000000000000000000000000000000
2624812300300UTIL             1    36  0TNT FILES   0000000000000000000000000000000
2624912301000UTIL             1    36  0TNT FILES   0000000000000000000000000000000
2625012301630UTIL             1    36  0TNT FILES   0000000000000000000000000000000
2625112310100UTIL             1    36  0TNT FILES   0000000000000000000000000000000
2625212310300UTIL             1    36  0TNT FILES   0000000000000000000000000000000
2625312311000UTIL             1    36  0TNT FILES   0000000000000000000000000000000
2625412311630UTIL             1    36  0TNT FILES   0000000000000000000000000000000
2625501010306UTIL             1    36  0TNT FILES   0000000000000000000000000000000
2625601010306UTIL             1    36  0TNT FILES   0000000000000000000000000000000
2625701011000UTIL             1    36  0TNT FILES   0000000000000000000000000000000
2625801011630UTIL             1    36  0TNT FILES   0000000000000000000000000000000
2626001020100UTIL             1    36  0TNT FILES   0000000000000000000000000000000
2626101020300UTIL             1    36  0TNT FILES   0000000000000000000000000000000
2626201021000UTIL             1    36  0TNT FILES   0000000000000000000000000000000
2626301021630UTIL             1    36  0TNT FILES   0000000000000000000000000000000
2626401030100UTIL             1    36  0TNT FILES   0000000000000000000000000000000
2626501030300UTIL             1    36  0TNT FILES   0000000000000000000000000000000
2626601031000UTIL             1    36  0TNT FILES   0000000000000000000000000000000
2626701031630UTIL             1    36  0TNT FILES   0000000000000000000000000000000
2626801040100UTIL             1    36  0TNT FILES   0000000000000000000000000000000
2626901040300UTIL             1    36  0TNT FILES   0000000000000000000000000000000
2627001041000UTIL             1    36  0TNT FILES   0000000000000000000000000000000
2627101041630UTIL             1    36  0TNT FILES   0000000000000000000000000000000
2627201050100UTIL             1    36  0TNT FILES   0000000000000000000000000000000
2627301050300UTIL             1    36  0TNT FILES   0000000000000000000000000000000
2627401051000UTIL             1    36  0TNT FILES   0000000000000000000000000000000
2627501051630UTIL             1    36  0TNT FILES   0000000000000000000000000000000
2627601060100UTIL             1    36  0TNT FILES   0000000000000000000000000000000
2627701060300UTIL             1    36  0TNT FILES   0000000000000000000000000000000
2627801061000UTIL             1    36  0TNT FILES   0000000000000000000000000000000
2627901061630UTIL             1    36  0TNT FILES   0000000000000000000000000000000
2628001070100UTIL             1    36  0TNT FILES   0000000000000000000000000000000
2628101070300UTIL             1    36  0TNT FILES   0000000000000000000000000000000
2628201071000UTIL             1    36  0TNT FILES   0000000000000000000000000000000
2628301071630UTIL             1    36  0TNT FILES   0000000000000000000000000000000
2628401080346UTIL             1    36  0TNT FILES   0000000000000000000000000000000
2628501080346UTIL             1    36  0TNT FILES   0000000000000000000000000000000
2628601081000UTIL             1    36  0TNT FILES   0000000000000000000000000000000
2628701081630UTIL             1    36  0TNT FILES   0000000000000000000000000000000
2628801090100UTIL             1    36  0TNT FILES   0000000000000000000000000000000
2628901090300UTIL             1    36  0TNT FILES   0000000000000000000000000000000
2629001091000UTIL             1    36  0TNT FILES   0000000000000000000000000000000
2629101091631UTIL             1    36  0TNT FILES   0000000000000000000000000000000
2629201100100UTIL             1    36  0TNT FILES   0000000000000000000000000000000
2629301100300UTIL             1    36  0TNT FILES   0000000000000000000000000000000
2629401101000UTIL             1    36  0TNT FILES   0000000000000000000000000000000
2629501101630UTIL             1    36  0TNT FILES   0000000000000000000000000000000
2629601110100UTIL             1    36  0TNT FILES   0000000000000000000000000000000
2629701110300UTIL             1    36  0TNT FILES   0000000000000000000000000000000
2629801111000UTIL             1    36  0TNT FILES   0000000000000000000000000000000
2629901111630UTIL             1    36  0TNT FILES   0000000000000000000000000000000
2630001120100UTIL             1    36  0TNT FILES   0000000000000000000000000000000
2630101120300UTIL             1    36  0TNT FILES   0000000000000000000000000000000
2630201121001UTIL             1    36  0TNT FILES   0000000000000000000000000000000
2630301121630UTIL             1    36  0TNT FILES   0000000000000000000000000000000
2630401130100UTIL             1    36  0TNT FILES   0000000000000000000000000000000
2630501130300UTIL             1    36  0TNT FILES   0000000000000000000000000000000
2630601131000UTIL             1    36  0TNT FILES   0000000000000000000000000000000
2630701131630UTIL             1    36  0TNT FILES   0000000000000000000000000000000
2630801140100UTIL             1    36  0TNT FILES   0000000000000000000000000000000
2630901140300UTIL             1    36  0TNT FILES   0000000000000000000000000000000
2631001141000UTIL             1    36  0TNT FILES   0000000000000000000000000000000
2631101141630UTIL             1    36  0TNT FILES   0000000000000000000000000000000
2631201150300UTIL             1    36  0TNT FILES   0000000000000000000000000000000
2631301150300UTIL             1    36  0TNT FILES   0000000000000000000000000000000
2631401151000UTIL             1    36  0TNT FILES   0000000000000000000000000000000
2631501151630UTIL             1    36  0TNT FILES   0000000000000000000000000000000
2631601160100UTIL             1    36  0TNT FILES   0000000000000000000000000000000
2631701160300UTIL             1    36  0TNT FILES   0000000000000000000000000000000
2631801161000UTIL             1    36  0TNT FILES   0000000000000000000000000000000
2631901161630UTIL             1    36  0TNT FILES   0000000000000000000000000000000
2632001170100UTIL             1    36  0TNT FILES   0000000000000000000000000000000
2632101170300UTIL             1    36  0TNT FILES   0000000000000000000000000000000
2632201171000UTIL             1    36  0TNT FILES   0000000000000000000000000000000
2632301171630UTIL             1    36  0TNT FILES   0000000000000000000000000000000
2632401180100UTIL             1    36  0TNT FILES   0000000000000000000000000000000
2632501180300UTIL             1    36  0TNT FILES   0000000000000000000000000000000
2632601181000UTIL             1    36  0TNT FILES   0000000000000000000000000000000
2632701181630UTIL             1    36  0TNT FILES   0000000000000000000000000000000
2632801190100UTIL             1    36  0TNT FILES   0000000000000000000000000000000
2632901190300UTIL             1    36  0TNT FILES   0000000000000000000000000000000
2633001191007UTIL             1    36  0TNT FILES   0000000000000000000000000000000
2633101191630UTIL             1    36  0TNT FILES   0000000000000000000000000000000
2633201200100UTIL             1    36  0TNT FILES   0000000000000000000000000000000
2633301200300UTIL             1    36  0TNT FILES   0000000000000000000000000000000
2633401201000UTIL             1    36  0TNT FILES   0000000000000000000000000000000
2633501201630UTIL             1    36  0TNT FILES   0000000000000000000000000000000
2633601210100UTIL             1    36  0TNT FILES   0000000000000000000000000000000
2633701210300UTIL             1    36  0TNT FILES   0000000000000000000000000000000
2633801211000UTIL             1    36  0TNT FILES   0000000000000000000000000000000
2633901211630UTIL             1    36  0TNT FILES   0000000000000000000000000000000
2634001220221UTIL             1    36  0TNT FILES   0000000000000000000000000000000
2634101220300UTIL             1    36  0TNT FILES   0000000000000000000000000000000
2634201221000UTIL             1    36  0TNT FILES   0000000000000000000000000000000
2634301221630UTIL             1    36  0TNT FILES   0000000000000000000000000000000
2634501230100UTIL             1    36  0TNT FILES   0000000000000000000000000000000
2634601230300UTIL             1    36  0TNT FILES   0000000000000000000000000000000
2634701231000UTIL             1    36  0TNT FILES   0000000000000000000000000000000
2634801231630UTIL             1    36  0TNT FILES   0000000000000000000000000000000
2634901240100UTIL             1    36  0TNT FILES   0000000000000000000000000000000
2635001240300UTIL             1    36  0TNT FILES   0000000000000000000000000000000
2635101241000UTIL             1    36  0TNT FILES   0000000000000000000000000000000
2635201241630UTIL             1    36  0TNT FILES   0000000000000000000000000000000
2635301250100UTIL             1    36  0TNT FILES   0000000000000000000000000000000
2635401250300UTIL             1    36  0TNT FILES   0000000000000000000000000000000
2635501251000UTIL             1    36  0TNT FILES   0000000000000000000000000000000
2635601251630UTIL             1    36  0TNT FILES   0000000000000000000000000000000
2635701260100UTIL             1    36  0TNT FILES   0000000000000000000000000000000
2635801260300UTIL             1    36  0TNT FILES   0000000000000000000000000000000
2635901261000UTIL             1    36  0TNT FILES   0000000000000000000000000000000
2636001261630UTIL             1    36  0TNT FILES   0000000000000000000000000000000
2636101270100UTIL             1    36  0TNT FILES   0000000000000000000000000000000
2636201270300UTIL             1    36  0TNT FILES   0000000000000000000000000000000
2636301271000UTIL             1    36  0TNT FILES   0000000000000000000000000000000
2636401271630UTIL             1    36  0TNT FILES   0000000000000000000000000000000
2636501280100UTIL             1    36  0TNT FILES   0000000000000000000000000000000
2636601280300UTIL             1    36  0TNT FILES   0000000000000000000000000000000
2636701281000UTIL             1    36  0TNT FILES   0000000000000000000000000000000
2636801281630UTIL             1    36  0TNT FILES   0000000000000000000000000000000
2636901290310UTIL             1    36  0TNT FILES   0000000000000000000000000000000
2637001290310UTIL             1    36  0TNT FILES   0000000000000000000000000000000
2637101291000UTIL             1    36  0TNT FILES   0000000000000000000000000000000
2637201291630UTIL             1    36  0TNT FILES   0000000000000000000000000000000
2637301300100UTIL             1    36  0TNT FILES   0000000000000000000000000000000
2637401300300UTIL             1    36  0TNT FILES   0000000000000000000000000000000
2637501301000UTIL             1    36  0TNT FILES   0000000000000000000000000000000
2637601301630UTIL             1    36  0TNT FILES   0000000000000000000000000000000
2637701310100UTIL             1    36  0TNT FILES   0000000000000000000000000000000
2637801310300UTIL             1    36  0TNT FILES   0000000000000000000000000000000
2637901311000UTIL             1    36  0TNT FILES   0000000000000000000000000000000
2638001311630UTIL             1    36  0TNT FILES   0000000000000000000000000000000
2638102010100UTIL             1    36  0TNT FILES   0000000000000000000000000000000
2638202010300UTIL             1    36  0TNT FILES   0000000000000000000000000000000
2638302011630UTIL             1    36  0TNT FILES   0000000000000000000000000000000
2638402020100UTIL             1    36  0TNT FILES   0000000000000000000000000000000
2638502020300UTIL             1    36  0TNT FILES   0000000000000000000000000000000
2638602021630UTIL             1    36  0TNT FILES   0000000000000000000000000000000
2638702030100UTIL             1    36  0TNT FILES   0000000000000000000000000000000
2638802030300UTIL             1    36  0TNT FILES   0000000000000000000000000000000
2638902031630UTIL             1    36  0TNT FILES   0000000000000000000000000000000
2639002040100UTIL             1    36  0TNT FILES   0000000000000000000000000000000
2639102040300UTIL             1    36  0TNT FILES   0000000000000000000000000000000
2639202041630UTIL             1    36  0TNT FILES   0000000000000000000000000000000
2639302050310UTIL             1    36  0TNT FILES   0000000000000000000000000000000
2639402050310UTIL             1    36  0TNT FILES   0000000000000000000000000000000
2639502051630UTIL             1    36  0TNT FILES   0000000000000000000000000000000
2639602060100UTIL             1    36  0TNT FILES   0000000000000000000000000000000
2639702060300UTIL             1    36  0TNT FILES   0000000000000000000000000000000
2639802061630UTIL             1    36  0TNT FILES   0000000000000000000000000000000
2639902070100UTIL             1    36  0TNT FILES   0000000000000000000000000000000
2640002070300UTIL             1    36  0TNT FILES   0000000000000000000000000000000
2640102071630UTIL             1    36  0TNT FILES   0000000000000000000000000000000
2640202080100UTIL             1    36  0TNT FILES   0000000000000000000000000000000
2640302080300UTIL             1    36  0TNT FILES   0000000000000000000000000000000
2640402081630UTIL             1    36  0TNT FILES   0000000000000000000000000000000
2640502090100UTIL             1    36  0TNT FILES   0000000000000000000000000000000
2640602090300UTIL             1    36  0TNT FILES   0000000000000000000000000000000
2640702091630UTIL             1    36  0TNT FILES   0000000000000000000000000000000
2640802100100UTIL             1    36  0TNT FILES   0000000000000000000000000000000
2640902100300UTIL             1    36  0TNT FILES   0000000000000000000000000000000
2641002101630UTIL             1    36  0TNT FILES   0000000000000000000000000000000
2641102110100UTIL             1    36  0TNT FILES   0000000000000000000000000000000
2641202110300UTIL             1    36  0TNT FILES   0000000000000000000000000000000
2641302111630UTIL             1    36  0TNT FILES   0000000000000000000000000000000
2641402120237UTIL             1    36  0TNT FILES   0000000000000000000000000000000
2641502120300UTIL             1    36  0TNT FILES   0000000000000000000000000000000
2641602121630UTIL             1    36  0TNT FILES   0000000000000000000000000000000
2641802130100UTIL             1    36  0TNT FILES   0000000000000000000000000000000
2641902130300UTIL             1    36  0TNT FILES   0000000000000000000000000000000
2642002131630UTIL             1    36  0TNT FILES   0000000000000000000000000000000
2642102140100UTIL             1    36  0TNT FILES   0000000000000000000000000000000
2642202140300UTIL             1    36  0TNT FILES   0000000000000000000000000000000
2642302141111CARL             3352477238NONE        0000000000000000000000000000000
2642402141630UTIL             1    36  0TNT FILES   0000000000000000000000000000000
2642502150100UTIL             1    36  0TNT FILES   0000000000000000000000000000000
2642602150300UTIL             1    36  0TNT FILES   0000000000000000000000000000000
2642702151000UTIL             1    36  0TNT FILES   0000000000000000000000000000000
2642802151630UTIL             1    36  0TNT FILES   0000000000000000000000000000000
2642902160100UTIL             1    36  0TNT FILES   0000000000000000000000000000000
2643002160300UTIL             1    36  0TNT FILES   0000000000000000000000000000000
2643102161000UTIL             1    36  0TNT FILES   0000000000000000000000000000000
2643202161630UTIL             1    36  0TNT FILES   0000000000000000000000000000000
2643302170100UTIL             1    36  0TNT FILES   0000000000000000000000000000000
2643402170300UTIL             1    36  0TNT FILES   0000000000000000000000000000000
2643502171000UTIL             1    36  0TNT FILES   0000000000000000000000000000000
2643602171630UTIL             1    36  0TNT FILES   0000000000000000000000000000000
2643702180100UTIL             1    36  0TNT FILES   0000000000000000000000000000000
2643802180300UTIL             1    36  0TNT FILES   0000000000000000000000000000000
2643902181000UTIL             1    36  0TNT FILES   0000000000000000000000000000000
2644002181630UTIL             1    36  0TNT FILES   0000000000000000000000000000000
2644102190355UTIL             1    36  0TNT FILES   0000000000000000000000000000000
2644202190355UTIL             1    36  0TNT FILES   0000000000000000000000000000000
2644302191000UTIL             1    36  0TNT FILES   0000000000000000000000000000000
2644402191630UTIL             1    36  0TNT FILES   0000000000000000000000000000000
2644502200100UTIL             1    36  0TNT FILES   0000000000000000000000000000000
2644602200300UTIL             1    36  0TNT FILES   0000000000000000000000000000000
2644702201000UTIL             1    36  0TNT FILES   0000000000000000000000000000000
2644802201630UTIL             1    36  0TNT FILES   0000000000000000000000000000000
2644902210100UTIL             1    36  0TNT FILES   0000000000000000000000000000000
2645002210300UTIL             1    36  0TNT FILES   0000000000000000000000000000000
2645102211001UTIL             1    36  0TNT FILES   0000000000000000000000000000000
2645202211630UTIL             1    36  0TNT FILES   0000000000000000000000000000000
2645302220100UTIL             1    36  0TNT FILES   0000000000000000000000000000000
2645402220300UTIL             1    36  0TNT FILES   0000000000000000000000000000000
2645502221000UTIL             1    36  0TNT FILES   0000000000000000000000000000000
2645602221630UTIL             1    36  0TNT FILES   0000000000000000000000000000000
2645702230100UTIL             1    36  0TNT FILES   0000000000000000000000000000000
2645802230300UTIL             1    36  0TNT FILES   0000000000000000000000000000000
2645902231000UTIL             1    36  0TNT FILES   0000000000000000000000000000000
2646002231630UTIL             1    36  0TNT FILES   0000000000000000000000000000000
2646102240100UTIL             1    36  0TNT FILES   0000000000000000000000000000000
2646202240300UTIL             1    36  0TNT FILES   0000000000000000000000000000000
2646302241000UTIL             1    36  0TNT FILES   0000000000000000000000000000000
2646402241630UTIL             1    36  0TNT FILES   0000000000000000000000000000000
2646502250100UTIL             1    36  0TNT FILES   0000000000000000000000000000000
2646602250300UTIL             1    36  0TNT FILES   0000000000000000000000000000000
2646702251000UTIL             1    36  0TNT FILES   0000000000000000000000000000000
2646802251630UTIL             1    36  0TNT FILES   0000000000000000000000000000000
2646902260228UTIL             1    36  0TNT FILES   0000000000000000000000000000000
2647002260300UTIL             1    36  0TNT FILES   0000000000000000000000000000000
2647102261000UTIL             1    36  0TNT FILES   0000000000000000000000000000000
2647202261630UTIL             1    36  0TNT FILES   0000000000000000000000000000000
2647302270100UTIL             1    36  0TNT FILES   0000000000000000000000000000000
2647402270300UTIL             1    36  0TNT FILES   0000000000000000000000000000000
2647502271000UTIL             1    36  0TNT FILES   0000000000000000000000000000000
2647602271630UTIL             1    36  0TNT FILES   0000000000000000000000000000000
2647702280100UTIL             1    36  0TNT FILES   0000000000000000000000000000000
2647802280300UTIL             1    36  0TNT FILES   0000000000000000000000000000000
2647902281000UTIL             1    36  0TNT FILES   0000000000000000000000000000000
2648002281630UTIL             1    36  0TNT FILES   0000000000000000000000000000000
2648103010100UTIL             1    36  0TNT FILES   0000000000000000000000000000000
2648203010300UTIL             1    36  0TNT FILES   0000000000000000000000000000000
2648303011000UTIL             1    36  0TNT FILES   0000000000000000000000000000000
2648403011630UTIL             1    36  0TNT FILES   0000000000000000000000000000000
2648503020100UTIL             1    36  0TNT FILES   0000000000000000000000000000000
2648603020300UTIL             1    36  0TNT FILES   0000000000000000000000000000000
2648703021000UTIL             1    36  0TNT FILES   0000000000000000000000000000000
2648803021630UTIL             1    36  0TNT FILES   0000000000000000000000000000000
2648903030100UTIL             1    36  0TNT FILES   0000000000000000000000000000000
2649003030300UTIL             1    36  0TNT FILES   0000000000000000000000000000000
2649103031001UTIL             1    36  0TNT FILES   0000000000000000000000000000000
2649203031630UTIL             1    36  0TNT FILES   0000000000000000000000000000000
2649303040100UTIL             1    36  0TNT FILES   0000000000000000000000000000000
2649403040300UTIL             1    36  0TNT FILES   0000000000000000000000000000000
2649503041000UTIL             1    36  0TNT FILES   0000000000000000000000000000000
2649603041630UTIL             1    36  0TNT FILES   0000000000000000000000000000000
2649703050307UTIL             1    36  0TNT FILES   0000000000000000000000000000000
2649803050307UTIL             1    36  0TNT FILES   0000000000000000000000000000000
2649903051000UTIL             1    36  0TNT FILES   0000000000000000000000000000000
2650003051630UTIL             1    36  0TNT FILES   0000000000000000000000000000000
2650203060100UTIL             1    36  0TNT FILES   0000000000000000000000000000000
2650303060300UTIL             1    36  0TNT FILES   0000000000000000000000000000000
2650403061000UTIL             1    36  0TNT FILES   0000000000000000000000000000000
2650503061630UTIL             1    36  0TNT FILES   0000000000000000000000000000000
2650603070100UTIL             1    36  0TNT FILES   0000000000000000000000000000000
2650703070300UTIL             1    36  0TNT FILES   0000000000000000000000000000000
2650803071000UTIL             1    36  0TNT FILES   0000000000000000000000000000000
2650903071630UTIL             1    36  0TNT FILES   0000000000000000000000000000000
2651003080100UTIL             1    36  0TNT FILES   0000000000000000000000000000000
2651103080300UTIL             1    36  0TNT FILES   0000000000000000000000000000000
2651203081000UTIL             1    36  0TNT FILES   0000000000000000000000000000000
2651303081630UTIL             1    36  0TNT FILES   0000000000000000000000000000000
2651403090100UTIL             1    36  0TNT FILES   0000000000000000000000000000000
2651503090300UTIL             1    36  0TNT FILES   0000000000000000000000000000000
2651603091000UTIL             1    36  0TNT FILES   0000000000000000000000000000000
2651703091630UTIL             1    36  0TNT FILES   0000000000000000000000000000000
2651803100100UTIL             1    36  0TNT FILES   0000000000000000000000000000000
2651903100300UTIL             1    36  0TNT FILES   0000000000000000000000000000000
2652003101001UTIL             1    36  0TNT FILES   0000000000000000000000000000000
2652103101630UTIL             1    36  0TNT FILES   0000000000000000000000000000000
2652203110100UTIL             1    36  0TNT FILES   0000000000000000000000000000000
2652303110300UTIL             1    36  0TNT FILES   0000000000000000000000000000000
2652403111000UTIL             1    36  0TNT FILES   0000000000000000000000000000000
2652503111630UTIL             1    36  0TNT FILES   0000000000000000000000000000000
2652603120436UTIL             1    36  0TNT FILES   0000000000000000000000000000000
2652703120436UTIL             1    36  0TNT FILES   0000000000000000000000000000000
2652803121000UTIL             1    36  0TNT FILES   0000000000000000000000000000000
2652903121630UTIL             1    36  0TNT FILES   0000000000000000000000000000000
2653003130100UTIL             1    36  0TNT FILES   0000000000000000000000000000000
2653103130300UTIL             1    36  0TNT FILES   0000000000000000000000000000000
2653203131000UTIL             1    36  0TNT FILES   0000000000000000000000000000000
2653303131630UTIL             1    36  0TNT FILES   0000000000000000000000000000000
2653403140100UTIL             1    36  0TNT FILES   0000000000000000000000000000000
2653503140300UTIL             1    36  0TNT FILES   0000000000000000000000000000000
2653603141000UTIL             1    36  0TNT FILES   0000000000000000000000000000000
2653703141630UTIL             1    36  0TNT FILES   0000000000000000000000000000000
2653803150100UTIL             1    36  0TNT FILES   0000000000000000000000000000000
2653903150300UTIL             1    36  0TNT FILES   0000000000000000000000000000000
2654003151000UTIL             1    36  0TNT FILES   0000000000000000000000000000000
2654103151630UTIL             1    36  0TNT FILES   0000000000000000000000000000000
2654203160100UTIL             1    36  0TNT FILES   0000000000000000000000000000000
2654303160300UTIL             1    36  0TNT FILES   0000000000000000000000000000000
2654403161000UTIL             1    36  0TNT FILES   0000000000000000000000000000000
2654503161630UTIL             1    36  0TNT FILES   0000000000000000000000000000000
2654603170100UTIL             1    36  0TNT FILES   0000000000000000000000000000000
2654703170300UTIL             1    36  0TNT FILES   0000000000000000000000000000000
2654803171000UTIL             1    36  0TNT FILES   0000000000000000000000000000000
2654903171630UTIL             1    36  0TNT FILES   0000000000000000000000000000000
2655003180100UTIL             1    36  0TNT FILES   0000000000000000000000000000000
2655103180300UTIL             1    36  0TNT FILES   0000000000000000000000000000000
2655203181000UTIL             1    36  0TNT FILES   0000000000000000000000000000000
2655303181630UTIL             1    36  0TNT FILES   0000000000000000000000000000000
2655403190508UTIL             1    36  0TNT FILES   0000000000000000000000000000000
2655503190508UTIL             1    36  0TNT FILES   0000000000000000000000000000000
2655603191000UTIL             1    36  0TNT FILES   0000000000000000000000000000000
2655703191630UTIL             1    36  0TNT FILES   0000000000000000000000000000000
2655803200100UTIL             1    36  0TNT FILES   0000000000000000000000000000000
2655903200300UTIL             1    36  0TNT FILES   0000000000000000000000000000000
2656003201000UTIL             1    36  0TNT FILES   0000000000000000000000000000000
2656103201630UTIL             1    36  0TNT FILES   0000000000000000000000000000000
2656203210100UTIL             1    36  0TNT FILES   0000000000000000000000000000000
2656303210300UTIL             1    36  0TNT FILES   0000000000000000000000000000000
2656403211000UTIL             1    36  0TNT FILES   0000000000000000000000000000000
2656503211630UTIL             1    36  0TNT FILES   0000000000000000000000000000000
2656603220100UTIL             1    36  0TNT FILES   0000000000000000000000000000000
2656703220300UTIL             1    36  0TNT FILES   0000000000000000000000000000000
2656803221000UTIL             1    36  0TNT FILES   0000000000000000000000000000000
2656903221630UTIL             1    36  0TNT FILES   0000000000000000000000000000000
2657003230100UTIL             1    36  0TNT FILES   0000000000000000000000000000000
2657103230300UTIL             1    36  0TNT FILES   0000000000000000000000000000000
2657203231033UTIL             1    36  0TNT FILES   0000000000000000000000000000000
2657303231630UTIL             1    36  0TNT FILES   0000000000000000000000000000000
2657403240100UTIL             1    36  0TNT FILES   0000000000000000000000000000000
2657503240300UTIL             1    36  0TNT FILES   0000000000000000000000000000000
2657603241000UTIL             1    36  0TNT FILES   0000000000000000000000000000000
2657703241001UTIL             1    36  0TNT FILES   0000000000000000000000000000000
2657803241630UTIL             1    36  0TNT FILES   0000000000000000000000000000000
2657903250135UTIL             1    36  0TNT FILES   0000000000000000000000000000000
2658003250300UTIL             1    36  0TNT FILES   0000000000000000000000000000000
2658103251000UTIL             1    36  0TNT FILES   0000000000000000000000000000000
2658203251630UTIL             1    36  0TNT FILES   0000000000000000000000000000000
2658303260349UTIL             1    36  0TNT FILES   0000000000000000000000000000000
2658403260349UTIL             1    36  0TNT FILES   0000000000000000000000000000000
2658503261000UTIL             1    36  0TNT FILES   0000000000000000000000000000000
2658603261630UTIL             1    36  0TNT FILES   0000000000000000000000000000000
2658803270100UTIL             1    36  0TNT FILES   0000000000000000000000000000000
2658903270300UTIL             1    36  0TNT FILES   0000000000000000000000000000000
2659003271000UTIL             1    36  0TNT FILES   0000000000000000000000000000000
2659103271630UTIL             1    36  0TNT FILES   0000000000000000000000000000000
2659203280100UTIL             1    36  0TNT FILES   0000000000000000000000000000000
2659303280300UTIL             1    36  0TNT FILES   0000000000000000000000000000000
2659403281000UTIL             1    36  0TNT FILES   0000000000000000000000000000000
2659503281630UTIL             1    36  0TNT FILES   0000000000000000000000000000000
2659603290100UTIL             1    36  0TNT FILES   0000000000000000000000000000000
2659703290300UTIL             1    36  0TNT FILES   0000000000000000000000000000000
2659803291000UTIL             1    36  0TNT FILES   0000000000000000000000000000000
2659903291630UTIL             1    36  0TNT FILES   0000000000000000000000000000000
2660003300100UTIL             1    36  0TNT FILES   0000000000000000000000000000000
2660103300300UTIL             1    36  0TNT FILES   0000000000000000000000000000000
2660203301000UTIL             1    36  0TNT FILES   0000000000000000000000000000000
2660303301630UTIL             1    36  0TNT FILES   0000000000000000000000000000000
2660403310100UTIL             1    36  0TNT FILES   0000000000000000000000000000000
2660503310300UTIL             1    36  0TNT FILES   0000000000000000000000000000000
2660603311000UTIL             1    36  0TNT FILES   0000000000000000000000000000000
2660703311630UTIL             1    36  0TNT FILES   0000000000000000000000000000000
2660804010100UTIL             1    36  0TNT FILES   0000000000000000000000000000000
2660904010300UTIL             1    36  0TNT FILES   0000000000000000000000000000000
2661004011000UTIL             1    36  0TNT FILES   0000000000000000000000000000000
2661104011630UTIL             1    36  0TNT FILES   0000000000000000000000000000000
2661204020517UTIL             1    36  0TNT FILES   0000000000000000000000000000000
2661304020517UTIL             1    36  0TNT FILES   0000000000000000000000000000000
2661404021000UTIL             1    36  0TNT FILES   0000000000000000000000000000000
2661504021630UTIL             1    36  0TNT FILES   0000000000000000000000000000000
2661604030100UTIL             1    36  0TNT FILES   0000000000000000000000000000000
2661704030300UTIL             1    36  0TNT FILES   0000000000000000000000000000000
2661804031000UTIL             1    36  0TNT FILES   0000000000000000000000000000000
2661904031630UTIL             1    36  0TNT FILES   0000000000000000000000000000000
2662004040100UTIL             1    36  0TNT FILES   0000000000000000000000000000000
2662104040300UTIL             1    36  0TNT FILES   0000000000000000000000000000000
2662204041000UTIL             1    36  0TNT FILES   0000000000000000000000000000000
2662304041630UTIL             1    36  0TNT FILES   0000000000000000000000000000000
2662404050100UTIL             1    36  0TNT FILES   0000000000000000000000000000000
2662504050300UTIL             1    36  0TNT FILES   0000000000000000000000000000000
2662604051000UTIL             1    36  0TNT FILES   0000000000000000000000000000000
2662704051630UTIL             1    36  0TNT FILES   0000000000000000000000000000000
2662804060100UTIL             1    36  0TNT FILES   0000000000000000000000000000000
2662904060300UTIL             1    36  0TNT FILES   0000000000000000000000000000000
2663004061000UTIL             1    36  0TNT FILES   0000000000000000000000000000000
2663104061630UTIL             1    36  0TNT FILES   0000000000000000000000000000000
2663204070100UTIL             1    36  0TNT FILES   0000000000000000000000000000000
2663304070300UTIL             1    36  0TNT FILES   0000000000000000000000000000000
2663404071000UTIL             1    36  0TNT FILES   0000000000000000000000000000000
2663504071630UTIL             1    36  0TNT FILES   0000000000000000000000000000000
2663604080100UTIL             1    36  0TNT FILES   0000000000000000000000000000000
2663704080300UTIL             1    36  0TNT FILES   0000000000000000000000000000000
2663804081000UTIL             1    36  0TNT FILES   0000000000000000000000000000000
2663904081630UTIL             1    36  0TNT FILES   0000000000000000000000000000000
2664004090228UTIL             1    36  0TNT FILES   0000000000000000000000000000000
2664104090300UTIL             1    36  0TNT FILES   0000000000000000000000000000000
2664204091000UTIL             1    36  0TNT FILES   0000000000000000000000000000000
2664304091630UTIL             1    36  0TNT FILES   0000000000000000000000000000000
2664404100100UTIL             1    36  0TNT FILES   0000000000000000000000000000000
2664504100300UTIL             1    36  0TNT FILES   0000000000000000000000000000000
2664604101000UTIL             1    36  0TNT FILES   0000000000000000000000000000000
2664704101630UTIL             1    36  0TNT FILES   0000000000000000000000000000000
2664804110100UTIL             1    36  0TNT FILES   0000000000000000000000000000000
2664904110300UTIL             1    36  0TNT FILES   0000000000000000000000000000000
2665004111000UTIL             1    36  0TNT FILES   0000000000000000000000000000000
2665104111630UTIL             1    36  0TNT FILES   0000000000000000000000000000000
2665204120100UTIL             1    36  0TNT FILES   0000000000000000000000000000000
2665304120300UTIL             1    36  0TNT FILES   0000000000000000000000000000000
2665404121000UTIL             1    36  0TNT FILES   0000000000000000000000000000000
2665504121630UTIL             1    36  0TNT FILES   0000000000000000000000000000000
2665604130100UTIL             1    36  0TNT FILES   0000000000000000000000000000000
2665704130300UTIL             1    36  0TNT FILES   0000000000000000000000000000000
2665804131000UTIL             1    36  0TNT FILES   0000000000000000000000000000000
2665904131630UTIL             1    36  0TNT FILES   0000000000000000000000000000000
2666004140100UTIL             1    36  0TNT FILES   0000000000000000000000000000000
2666104140300UTIL             1    36  0TNT FILES   0000000000000000000000000000000
2666204141000UTIL             1    36  0TNT FILES   0000000000000000000000000000000
2666304141630UTIL             1    36  0TNT FILES   0000000000000000000000000000000
2666404150100UTIL             1    36  0TNT FILES   0000000000000000000000000000000
2666504150300UTIL             1    36  0TNT FILES   0000000000000000000000000000000
2666604151000UTIL             1    36  0TNT FILES   0000000000000000000000000000000
2666704151630UTIL             1    36  0TNT FILES   0000000000000000000000000000000
2666804160241UTIL             1    36  0TNT FILES   0000000000000000000000000000000
2666904160300UTIL             1    36  0TNT FILES   0000000000000000000000000000000
2667004161000UTIL             1    36  0TNT FILES   0000000000000000000000000000000
2667104161630UTIL             1    36  0TNT FILES   0000000000000000000000000000000
2667304170100UTIL             1    36  0TNT FILES   0000000000000000000000000000000
2667404170300UTIL             1    36  0TNT FILES   0000000000000000000000000000000
2667504171000UTIL             1    36  0TNT FILES   0000000000000000000000000000000
2667604171630UTIL             1    36  0TNT FILES   0000000000000000000000000000000
2667704180100UTIL             1    36  0TNT FILES   0000000000000000000000000000000
2667804180300UTIL             1    36  0TNT FILES   0000000000000000000000000000000
2667904181000UTIL             1    36  0TNT FILES   0000000000000000000000000000000
2668004181630UTIL             1    36  0TNT FILES   0000000000000000000000000000000
2668104190100UTIL             1    36  0TNT FILES   0000000000000000000000000000000
2668204190300UTIL             1    36  0TNT FILES   0000000000000000000000000000000
2668304191000UTIL             1    36  0TNT FILES   0000000000000000000000000000000
2668404191630UTIL             1    36  0TNT FILES   0000000000000000000000000000000
2668504200300UTIL             1    36  0TNT FILES   0000000000000000000000000000000
2668604201000UTIL             1    36  0TNT FILES   0000000000000000000000000000000
2668704201630UTIL             1    36  0TNT FILES   0000000000000000000000000000000
2668804210300UTIL             1    36  0TNT FILES   0000000000000000000000000000000
2668904211000UTIL             1    36  0TNT FILES   0000000000000000000000000000000
2669004211630UTIL             1    36  0TNT FILES   0000000000000000000000000000000
2669104220100UTIL             1    36  0TNT FILES   0000000000000000000000000000000
2669204220300UTIL             1    36  0TNT FILES   0000000000000000000000000000000
2669304221000UTIL             1    36  0TNT FILES   0000000000000000000000000000000
2669404221630UTIL             1    36  0TNT FILES   0000000000000000000000000000000
2669504230201UTIL             1    36  0TNT FILES   0000000000000000000000000000000
2669604230300UTIL             1    36  0TNT FILES   0000000000000000000000000000000
2669704231000UTIL             1    36  0TNT FILES   0000000000000000000000000000000
2669804231630UTIL             1    36  0TNT FILES   0000000000000000000000000000000
2669904240100UTIL             1    36  0TNT FILES   0000000000000000000000000000000
2670004240300UTIL             1    36  0TNT FILES   0000000000000000000000000000000
2670104241000UTIL             1    36  0TNT FILES   0000000000000000000000000000000
2670204241630UTIL             1    36  0TNT FILES   0000000000000000000000000000000
2670304250100UTIL             1    36  0TNT FILES   0000000000000000000000000000000
2670404250300UTIL             1    36  0TNT FILES   0000000000000000000000000000000
2670504251000UTIL             1    36  0TNT FILES   0000000000000000000000000000000
2670604251630UTIL             1    36  0TNT FILES   0000000000000000000000000000000
2670704260100UTIL             1    36  0TNT FILES   0000000000000000000000000000000
2670804260300UTIL             1    36  0TNT FILES   0000000000000000000000000000000
2670904261000UTIL             1    36  0TNT FILES   0000000000000000000000000000000
2671004261630UTIL             1    36  0TNT FILES   0000000000000000000000000000000
2671104270100UTIL             1    36  0TNT FILES   0000000000000000000000000000000
2671204270300UTIL             1    36  0TNT FILES   0000000000000000000000000000000
2671304271000UTIL             1    36  0TNT FILES   0000000000000000000000000000000
2671404271630UTIL             1    36  0TNT FILES   0000000000000000000000000000000
2671504280100UTIL             1    36  0TNT FILES   0000000000000000000000000000000
2671604280300UTIL             1    36  0TNT FILES   0000000000000000000000000000000
2671704281000UTIL             1    36  0TNT FILES   0000000000000000000000000000000
2671804281630UTIL             1    36  0TNT FILES   0000000000000000000000000000000
2671904290100UTIL             1    36  0TNT FILES   0000000000000000000000000000000
2672004290300UTIL             1    36  0TNT FILES   0000000000000000000000000000000
2672104291000UTIL             1    36  0TNT FILES   0000000000000000000000000000000
2672204291630UTIL             1    36  0TNT FILES   0000000000000000000000000000000
2672304300255UTIL             1    36  0TNT FILES   0000000000000000000000000000000
2672404300300UTIL             1    36  0TNT FILES   0000000000000000000000000000000
2672504301000UTIL             1    36  0TNT FILES   0000000000000000000000000000000
2672604301630UTIL             1    36  0TNT FILES   0000000000000000000000000000000
2672705010100UTIL             1    36  0TNT FILES   0000000000000000000000000000000
2672805010300UTIL             1    36  0TNT FILES   0000000000000000000000000000000
2672905011000UTIL             1    36  0TNT FILES   0000000000000000000000000000000
2673005011630UTIL             1    36  0TNT FILES   0000000000000000000000000000000
2673105020100UTIL             1    36  0TNT FILES   0000000000000000000000000000000
2673205020300UTIL             1    36  0TNT FILES   0000000000000000000000000000000
2673305021000UTIL             1    36  0TNT FILES   0000000000000000000000000000000
2673405021630UTIL             1    36  0TNT FILES   0000000000000000000000000000000
2673505030100UTIL             1    36  0TNT FILES   0000000000000000000000000000000
2673605030300UTIL             1    36  0TNT FILES   0000000000000000000000000000000
2673705031000UTIL             1    36  0TNT FILES   0000000000000000000000000000000
2673805031630UTIL             1    36  0TNT FILES   0000000000000000000000000000000
2673905040100UTIL             1    36  0TNT FILES   0000000000000000000000000000000
2674005040300UTIL             1    36  0TNT FILES   0000000000000000000000000000000
2674105041000UTIL             1    36  0TNT FILES   0000000000000000000000000000000
2674205041630UTIL             1    36  0TNT FILES   0000000000000000000000000000000
2674305050100UTIL             1    36  0TNT FILES   0000000000000000000000000000000
2674405050300UTIL             1    36  0TNT FILES   0000000000000000000000000000000
2674505051000UTIL             1    36  0TNT FILES   0000000000000000000000000000000
2674605051630UTIL             1    36  0TNT FILES   0000000000000000000000000000000
2674705060100UTIL             1    36  0TNT FILES   0000000000000000000000000000000
2674805060300UTIL             1    36  0TNT FILES   0000000000000000000000000000000
2674905061000UTIL             1    36  0TNT FILES   0000000000000000000000000000000
2675005061630UTIL             1    36  0TNT FILES   0000000000000000000000000000000
2675105070231UTIL             1    36  0TNT FILES   0000000000000000000000000000000
2675205070300UTIL             1    36  0TNT FILES   0000000000000000000000000000000
2675305071000UTIL             1    36  0TNT FILES   0000000000000000000000000000000
2675405071630UTIL             1    36  0TNT FILES   0000000000000000000000000000000
2675605080100UTIL             1    36  0TNT FILES   0000000000000000000000000000000
2675705080300UTIL             1    36  0TNT FILES   0000000000000000000000000000000
2675805081000UTIL             1    36  0TNT FILES   0000000000000000000000000000000
2675905081630UTIL             1    36  0TNT FILES   0000000000000000000000000000000
2676005090100UTIL             1    36  0TNT FILES   0000000000000000000000000000000
2676105090300UTIL             1    36  0TNT FILES   0000000000000000000000000000000
2676205091000UTIL             1    36  0TNT FILES   0000000000000000000000000000000
2676305091630UTIL             1    36  0TNT FILES   0000000000000000000000000000000
2676405100100UTIL             1    36  0TNT FILES   0000000000000000000000000000000
2676505100300UTIL             1    36  0TNT FILES   0000000000000000000000000000000
2676605101000UTIL             1    36  0TNT FILES   0000000000000000000000000000000
2676705101630UTIL             1    36  0TNT FILES   0000000000000000000000000000000
2676805110100UTIL             1    36  0TNT FILES   0000000000000000000000000000000
2676905110300UTIL             1    36  0TNT FILES   0000000000000000000000000000000
2677005111000UTIL             1    36  0TNT FILES   0000000000000000000000000000000
2677105111630UTIL             1    36  0TNT FILES   0000000000000000000000000000000
2677205120100UTIL             1    36  0TNT FILES   0000000000000000000000000000000
2677305120300UTIL             1    36  0TNT FILES   0000000000000000000000000000000
2677405121000UTIL             1    36  0TNT FILES   0000000000000000000000000000000
2677505121630UTIL             1    36  0TNT FILES   0000000000000000000000000000000
2677605130100UTIL             1    36  0TNT FILES   0000000000000000000000000000000
2677705130300UTIL             1    36  0TNT FILES   0000000000000000000000000000000
2677805131000UTIL             1    36  0TNT FILES   0000000000000000000000000000000
2677905131630UTIL             1    36  0TNT FILES   0000000000000000000000000000000
2678005140231UTIL             1    36  0TNT FILES   0000000000000000000000000000000
2678105140300UTIL             1    36  0TNT FILES   0000000000000000000000000000000
2678205141000UTIL             1    36  0TNT FILES   0000000000000000000000000000000
2678305141630UTIL             1    36  0TNT FILES   0000000000000000000000000000000
2678405150100UTIL             1    36  0TNT FILES   0000000000000000000000000000000
2678505150300UTIL             1    36  0TNT FILES   0000000000000000000000000000000
2678605151000UTIL             1    36  0TNT FILES   0000000000000000000000000000000
2678705151630UTIL             1    36  0TNT FILES   0000000000000000000000000000000
2678805160100UTIL             1    36  0TNT FILES   0000000000000000000000000000000
2678905160300UTIL             1    36  0TNT FILES   0000000000000000000000000000000
2679005161000UTIL             1    36  0TNT FILES   0000000000000000000000000000000
2679105161630UTIL             1    36  0TNT FILES   0000000000000000000000000000000
2679205170100UTIL             1    36  0TNT FILES   0000000000000000000000000000000
2679305170300UTIL             1    36  0TNT FILES   0000000000000000000000000000000
2679405171000UTIL             1    36  0TNT FILES   0000000000000000000000000000000
2679505171630UTIL             1    36  0TNT FILES   0000000000000000000000000000000
2679605180100UTIL             1    36  0TNT FILES   0000000000000000000000000000000
2679705180300UTIL             1    36  0TNT FILES   0000000000000000000000000000000
2679805181000UTIL             1    36  0TNT FILES   0000000000000000000000000000000
2679905181630UTIL             1    36  0TNT FILES   0000000000000000000000000000000
2680005190100UTIL             1    36  0TNT FILES   0000000000000000000000000000000
2680105190300UTIL             1    36  0TNT FILES   0000000000000000000000000000000
2680205191000UTIL             1    36  0TNT FILES   0000000000000000000000000000000
2680305191630UTIL             1    36  0TNT FILES   0000000000000000000000000000000
2680405200100UTIL             1    36  0TNT FILES   0000000000000000000000000000000
2680505200300UTIL             1    36  0TNT FILES   0000000000000000000000000000000
2680605201000UTIL             1    36  0TNT FILES   0000000000000000000000000000000
2680705201630UTIL             1    36  0TNT FILES   0000000000000000000000000000000
2680805210227UTIL             1    36  0TNT FILES   0000000000000000000000000000000
2680905210300UTIL             1    36  0TNT FILES   0000000000000000000000000000000
2681005211000UTIL             1    36  0TNT FILES   0000000000000000000000000000000
2681105211630UTIL             1    36  0TNT FILES   0000000000000000000000000000000
2681205220100UTIL             1    36  0TNT FILES   0000000000000000000000000000000
2681305220300UTIL             1    36  0TNT FILES   0000000000000000000000000000000
2681405221000UTIL             1    36  0TNT FILES   0000000000000000000000000000000
2681505221630UTIL             1    36  0TNT FILES   0000000000000000000000000000000
2681605230100UTIL             1    36  0TNT FILES   0000000000000000000000000000000
2681705230300UTIL             1    36  0TNT FILES   0000000000000000000000000000000
2681805231000UTIL             1    36  0TNT FILES   0000000000000000000000000000000
2681905231630UTIL             1    36  0TNT FILES   0000000000000000000000000000000
2682005240100UTIL             1    36  0TNT FILES   0000000000000000000000000000000
2682105240300UTIL             1    36  0TNT FILES   0000000000000000000000000000000
2682205241000UTIL             1    36  0TNT FILES   0000000000000000000000000000000
2682305241630UTIL             1    36  0TNT FILES   0000000000000000000000000000000
2682405250100UTIL             1    36  0TNT FILES   0000000000000000000000000000000
2682505250300UTIL             1    36  0TNT FILES   0000000000000000000000000000000
2682605251000UTIL             1    36  0TNT FILES   0000000000000000000000000000000
2682705251630UTIL             1    36  0TNT FILES   0000000000000000000000000000000
2682805260100UTIL             1    36  0TNT FILES   0000000000000000000000000000000
2682905260300UTIL             1    36  0TNT FILES   0000000000000000000000000000000
2683005261000UTIL             1    36  0TNT FILES   0000000000000000000000000000000
2683105261630UTIL             1    36  0TNT FILES   0000000000000000000000000000000
2683205270100UTIL             1    36  0TNT FILES   0000000000000000000000000000000
2683305270300UTIL             1    36  0TNT FILES   0000000000000000000000000000000
2683405271000UTIL             1    36  0TNT FILES   0000000000000000000000000000000
2683505271630UTIL             1    36  0TNT FILES   0000000000000000000000000000000
2683605280436UTIL             1    36  0TNT FILES   0000000000000000000000000000000
2683705280436UTIL             1    36  0TNT FILES   0000000000000000000000000000000
2683805281000UTIL             1    36  0TNT FILES   0000000000000000000000000000000
2683905281630UTIL             1    36  0TNT FILES   0000000000000000000000000000000
2684105290100UTIL             1    36  0TNT FILES   0000000000000000000000000000000
2684205290300UTIL             1    36  0TNT FILES   0000000000000000000000000000000
2684305291000UTIL             1    36  0TNT FILES   0000000000000000000000000000000
2684405291630UTIL             1    36  0TNT FILES   0000000000000000000000000000000
2684505300100UTIL             1    36  0TNT FILES   0000000000000000000000000000000
2684605300300UTIL             1    36  0TNT FILES   0000000000000000000000000000000
2684705301000UTIL             1    36  0TNT FILES   0000000000000000000000000000000
2684805301630UTIL             1    36  0TNT FILES   0000000000000000000000000000000
2684905310100UTIL             1    36  0TNT FILES   0000000000000000000000000000000
2685005310300UTIL             1    36  0TNT FILES   0000000000000000000000000000000
2685105311000UTIL             1    36  0TNT FILES   0000000000000000000000000000000
2685205311630UTIL             1    36  0TNT FILES   0000000000000000000000000000000
2685306010100UTIL             1    36  0TNT FILES   0000000000000000000000000000000
2685406010300UTIL             1    36  0TNT FILES   0000000000000000000000000000000
2685506011000UTIL             1    36  0TNT FILES   0000000000000000000000000000000
2685606012110PAPDEV       21477125475229            0000000000000000000000000000000
2685706011630UTIL             1    36  0TNT FILES   0000000000000000000000000000000
2685806020100UTIL             1    36  0TNT FILES   0000000000000000000000000000000
2685906020300UTIL             1    36  0TNT FILES   0000000000000000000000000000000
2686006021000UTIL             1    36  0TNT FILES   0000000000000000000000000000000
2686106021630UTIL             1    36  0TNT FILES   0000000000000000000000000000000
2686206030100UTIL             1    36  0TNT FILES   0000000000000000000000000000000
2686306030300UTIL             1    36  0TNT FILES   0000000000000000000000000000000
2686406031000UTIL             1    36  0TNT FILES   0000000000000000000000000000000
2686506031630UTIL             1    36  0TNT FILES   0000000000000000000000000000000
2686606040302UTIL             1    36  0TNT FILES   0000000000000000000000000000000
2686706040302UTIL             1    36  0TNT FILES   0000000000000000000000000000000
2686806041000UTIL             1    36  0TNT FILES   0000000000000000000000000000000
2686906041630UTIL             1    36  0TNT FILES   0000000000000000000000000000000
2687006050100UTIL             1    36  0TNT FILES   0000000000000000000000000000000
2687106050300UTIL             1    36  0TNT FILES   0000000000000000000000000000000
2687206051000UTIL             1    36  0TNT FILES   0000000000000000000000000000000
2687306051630UTIL             1    36  0TNT FILES   0000000000000000000000000000000
2687406060100UTIL             1    36  0TNT FILES   0000000000000000000000000000000
2687506060300UTIL             1    36  0TNT FILES   0000000000000000000000000000000
2687606061000UTIL             1    36  0TNT FILES   0000000000000000000000000000000
2687706061630UTIL             1    36  0TNT FILES   0000000000000000000000000000000
2687806070100UTIL             1    36  0TNT FILES   0000000000000000000000000000000
2687906070300UTIL             1    36  0TNT FILES   0000000000000000000000000000000
2688006071000UTIL             1    36  0TNT FILES   0000000000000000000000000000000
2688106071630UTIL             1    36  0TNT FILES   0000000000000000000000000000000
2688206080100UTIL             1    36  0TNT FILES   0000000000000000000000000000000
2688306080300UTIL             1    36  0TNT FILES   0000000000000000000000000000000
2688406081000UTIL             1    36  0TNT FILES   0000000000000000000000000000000
2688506081630UTIL             1    36  0TNT FILES   0000000000000000000000000000000
2688606090100UTIL             1    36  0TNT FILES   0000000000000000000000000000000
2688706090300UTIL             1    36  0TNT FILES   0000000000000000000000000000000
2688806091000UTIL             1    36  0TNT FILES   0000000000000000000000000000000
2688906091630UTIL             1    36  0TNT FILES   0000000000000000000000000000000
2689006100100UTIL             1    36  0TNT FILES   0000000000000000000000000000000
2689106100300UTIL             1    36  0TNT FILES   0000000000000000000000000000000
2689206101000UTIL             1    36  0TNT FILES   0000000000000000000000000000000
2689306101630UTIL             1    36  0TNT FILES   0000000000000000000000000000000
2689406110241UTIL             1    36  0TNT FILES   0000000000000000000000000000000
2689506110300UTIL             1    36  0TNT FILES   0000000000000000000000000000000
2689606111000UTIL             1    36  0TNT FILES   0000000000000000000000000000000
2689706111630UTIL             1    36  0TNT FILES   0000000000000000000000000000000
2689806120100UTIL             1    36  0TNT FILES   0000000000000000000000000000000
2689906120300UTIL             1    36  0TNT FILES   0000000000000000000000000000000
2690006121006UTIL             1    36  0TNT FILES   0000000000000000000000000000000
2690106121630UTIL             1    36  0TNT FILES   0000000000000000000000000000000
2690206130100UTIL             1    36  0TNT FILES   0000000000000000000000000000000
2690306130300UTIL             1    36  0TNT FILES   0000000000000000000000000000000
2690406131000UTIL             1    36  0TNT FILES   0000000000000000000000000000000
2690506131001UTIL             1    36  0TNT FILES   0000000000000000000000000000000
2690606131630UTIL             1    36  0TNT FILES   0000000000000000000000000000000
2690706140100UTIL             1    36  0TNT FILES   0000000000000000000000000000000
2690806140300UTIL             1    36  0TNT FILES   0000000000000000000000000000000
2690906141000UTIL             1    36  0TNT FILES   0000000000000000000000000000000
2691006141630UTIL             1    36  0TNT FILES   0000000000000000000000000000000
2691106150100UTIL             1    36  0TNT FILES   0000000000000000000000000000000
2691206150300UTIL             1    36  0TNT FILES   0000000000000000000000000000000
2691306151000UTIL             1    36  0TNT FILES   0000000000000000000000000000000
2691406151630UTIL             1    36  0TNT FILES   0000000000000000000000000000000
2691506160100UTIL             1    36  0TNT FILES   0000000000000000000000000000000
2691606160300UTIL             1    36  0TNT FILES   0000000000000000000000000000000
2691706161000UTIL             1    36  0TNT FILES   0000000000000000000000000000000
2691806161630UTIL             1    36  0TNT FILES   0000000000000000000000000000000
2691906170100UTIL             1    36  0TNT FILES   0000000000000000000000000000000
2692006170300UTIL             1    36  0TNT FILES   0000000000000000000000000000000
2692106171000UTIL             1    36  0TNT FILES   0000000000000000000000000000000
2692206171630UTIL             1    36  0TNT FILES   0000000000000000000000000000000
2692306180232UTIL             1    36  0TNT FILES   0000000000000000000000000000000
2692406180300UTIL             1    36  0TNT FILES   0000000000000000000000000000000
2692506181000UTIL             1    36  0TNT FILES   0000000000000000000000000000000
2692606181630UTIL             1    36  0TNT FILES   0000000000000000000000000000000
2692806190100UTIL             1    36  0TNT FILES   0000000000000000000000000000000
2692906190300UTIL             1    36  0TNT FILES   0000000000000000000000000000000
2693006191000UTIL             1    36  0TNT FILES   0000000000000000000000000000000
2693106191630UTIL             1    36  0TNT FILES   0000000000000000000000000000000
2693206200100UTIL             1    36  0TNT FILES   0000000000000000000000000000000
2693306200300UTIL             1    36  0TNT FILES   0000000000000000000000000000000
2693406201000UTIL             1    36  0TNT FILES   0000000000000000000000000000000
2693506201630UTIL             1    36  0TNT FILES   0000000000000000000000000000000
2693606210100UTIL             1    36  0TNT FILES   0000000000000000000000000000000
2693706211000UTIL             1    36  0TNT FILES   0000000000000000000000000000000
2693806211630UTIL             1    36  0TNT FILES   0000000000000000000000000000000
2693906220100UTIL             1    36  0TNT FILES   0000000000000000000000000000000
2694006220300UTIL             1    36  0TNT FILES   0000000000000000000000000000000
2694106221000UTIL             1    36  0TNT FILES   0000000000000000000000000000000
2694206221630UTIL             1    36  0TNT FILES   0000000000000000000000000000000
2694306230100UTIL             1    36  0TNT FILES   0000000000000000000000000000000
2694406230301UTIL             1    36  0TNT FILES   0000000000000000000000000000000
2694506231001UTIL             1    36  0TNT FILES   0000000000000000000000000000000
2694606231630UTIL             1    36  0TNT FILES   0000000000000000000000000000000
2694706240100UTIL             1    36  0TNT FILES   0000000000000000000000000000000
2694806240300UTIL             1    36  0TNT FILES   0000000000000000000000000000000
2694906241000UTIL             1    36  0TNT FILES   0000000000000000000000000000000
2695006241630UTIL             1    36  0TNT FILES   0000000000000000000000000000000
2695106250334UTIL             1    36  0TNT FILES   0000000000000000000000000000000
2695206250334UTIL             1    36  0TNT FILES   0000000000000000000000000000000
2695306251000UTIL             1    36  0TNT FILES   0000000000000000000000000000000
2695406251630UTIL             1    36  0TNT FILES   0000000000000000000000000000000
2695506260100UTIL             1    36  0TNT FILES   0000000000000000000000000000000
2695606260300UTIL             1    36  0TNT FILES   0000000000000000000000000000000
2695706261000UTIL             1    36  0TNT FILES   0000000000000000000000000000000
2695806261630UTIL             1    36  0TNT FILES   0000000000000000000000000000000
2695906270100UTIL             1    36  0TNT FILES   0000000000000000000000000000000
2696006270300UTIL             1    36  0TNT FILES   0000000000000000000000000000000
2696106271000UTIL             1    36  0TNT FILES   0000000000000000000000000000000
2696206271630UTIL             1    36  0TNT FILES   0000000000000000000000000000000
2696306280100UTIL             1    36  0TNT FILES   0000000000000000000000000000000
2696406280300UTIL             1    36  0TNT FILES   0000000000000000000000000000000
2696506281000UTIL             1    36  0TNT FILES   0000000000000000000000000000000
2696606281630UTIL             1    36  0TNT FILES   0000000000000000000000000000000
