2923411301432SSEREP           1320663  0JCLMIN      0040000220000000000000000881130
2923411301432SSEREP           1320663  0JCLMIN      0050000220000000000000000881130
2923512021559NTMAI        11447721425  0TYMVAL      0050000650000000000000000881203
2923612032147ONTYMPROD        4220505173ASB CREDIT  0040000180000000000000000881203
2923612032147ONTYMPROD        4220505173ASB CREDIT  0050000180000000000000000881203
2923812041249OPER        000001000021  0CD          0 9     1     1200      0881204
2923912041325OPER        000001000021  0CDC         0 9    28   121895      0881204
2923712040839EMSACCT          4 35174173NOV88 BACKUP0050017470000000000000000881204
2924012051100DIST124A     22157247037124COEES ACCESS0070000010001000000000001881205
2924112051200DIST124A     22157247037124KL10 ACCESS 0070000010001000000000001881205
2924212051511SRAMOV           1257377  0            0040000380000000000000000881205
2924312061741JMS              3431116  390842       0040040090000000000000000881208
2924312061741JMS              3431116  390842       0050040090000000000000000881208
2924812081054NTMAI        11447721425  0NTMAI       0040001850000000000000000881208
2924812081054NTMAI        11447721425  0NTMAI       0050001850000000000000000881208
2924612081047NTMAI        11447721425  0MOVEFILES   0040000640000000000000000881208
2924612081047NTMAI        11447721425  0MOVEFILES   0050000640000000000000000881208
2925212091525KRIVANEC         1277731  0USER FILE DI0040000010000000000000000881209
2925212091525KRIVANEC         1277731  0USER FILE DI0050008370000000000000001881209
2925312091538SRAMOV           1257377  0AT&T MOVE 290050109460000000000000003881210
2925312091538SRAMOV           1257377  0AT&T MOVE 290040109070000000000000000881210
2925412121409KRIVANEC         1277731  0USER FILE DI0050000040000000000000000881212
2925512121444STAFFORD     21477234661229            1040003850000000000000000881212
2925512121444STAFFORD     21477234661229            1050003850000000000000000881212
2925612121629NTDTIME0     11334554045200            0040002870000000000000000881212
2925612121629NTDTIME0     11334554045200            0050002870000000000000000881212
2924912081130JORTIZ           1450376144            1040001750000000000000000881213
2924912081130JORTIZ           1450376144            1050001750000000000000000881213
2925112081133JORTIZ           1450376144            1040002460000000000000000881213
2925112081133JORTIZ           1450376144            1050002460000000000000000881213
2925712131454STAFFORD     21477234661229            1040001880000000000000000881213
2925712131454STAFFORD     21477234661229            1050001880000000000000000881213
2926012130000OPER        000001000021  0CDC         0 9    67   268721      0881213
2925012081131JORTIZ           1450376144            1010000670100000000000000881213
2925012081131JORTIZ           1450376144            1040037890000000000000000881213
2925012081131JORTIZ           1450376144            1050037890000000000000000881213
2925812131503KRIVANEC         1277731  0USER FILE DI0050000170000000000000000881214
2926112140806NADM         21477275525229            0040000120000000000000000881214
2926112140806NADM         21477275525229            0050000120000000000000000881214
2925912131510JORTIZ           1450376144            1040009100000000000000000881214
2925912131510JORTIZ           1450376144            1050009100000000000000000881214
2926212141550TYMRES1      10056677020229            0040000630000000000000000881214
2926212141550TYMRES1      10056677020229            0050000630000000000000000881214
2924412062227CARL             3352477  3PRINTING    0 1    67 10000000       881214
2924512062329CARL             3352477  3PRINTING    0 1     7 10000000       881214
2926312151230JORTIZ           1450376144            1040002730000000000000000881215
2926312151230JORTIZ           1450376144            1050002730000000000000000881215
2926412151522JORTIZ           1450376144            1040013260000000000000000881215
2926412151522JORTIZ           1450376144            1050013260000000000000000881215
2926612161145BILLING10        1 44355  0BSAT29.NOV  0050000150000000000000001881216
2926612161145BILLING10        1 44355  0BSAT29.NOV  0040000010000000000000000881216
2926512161141SRAMOV           1257377  0SYSTEM 29 SH0040071950000000000000000881216
2926512161141SRAMOV           1257377  0SYSTEM 29 SH0050071950000000000000000881216
